:020000040800F2
:10000000F80B0020D500000875370008CB31000838
:1000100000000000000000000000000000000000E0
:10002000000000000000000000000000833A00080B
:100030000000000000000000BD370008B94A0008B9
:10004000E7000008E700000891380008E700000812
:10005000E7000008E7000008E7000008E7000008E4
:1000600000000000E7000008E7000008E7000008C3
:10007000E7000008E700000800000000E7000008B3
:1000800000000000E7000008000000000000000081
:10009000E700000800000000E7000008E700000893
:1000A000E7000008E7000008C1390008E700000881
:1000B00071510008E7000008000000000000000087
:1000C0000348854600F066FD00480047715D000862
:1000D000F80B00200448804704480047FEE7FEE78D
:1000E000FEE7FEE7FEE7FEE7514B0008C10000080F
:1000F00030B50B46014600202022012409E00D46C0
:10010000D5409D4205D31D469540491B2546954047
:1001100040191546521E002DF1DC30BD70B500248B
:100120002546002801DA01244042002901DA012590
:100130004942FFF7DDFFAC4200D04042002C00D026
:10014000494270BDF0B51FB40646002082B0054696
:100150004024019100901BE0019922460F46304651
:1001600000F002FC049A059B801A994110D31046B6
:100170001946224600F0E8FB361A8F4101972246C5
:1001800001200021009F00F0DFFB38184D41009056
:100190002046641E0028DFDC019B00982946324679
:1001A00007B0F0BDF8B500242546002904DA0E4654
:1001B000012400214042B141002B04DA1E460023F5
:1001C00052420125B341FFF7BDFF8C4617461E463C
:1001D000AC4203D0002540428D41AC46002C02D0F9
:1001E000002657429E4161463A46334601B0F0BD73
:1001F000F0B51FB486B000200090019002900698E0
:10020000069980B204900798090C02040014114367
:1002100007900027089D099806913E463C460390AA
:100220000398A9B20204000C039004982D0C154306
:1002300048430021224600F087FBC7197141103462
:100240000E46402CECDB3846029A00F07DFB009A0B
:10025000019B801800905941029801911030029042
:100260004028CCDB00980BB0F0BD03460B439B0746
:1002700003D009E008C9121F08C0042AFAD203E01B
:100280000B780370401C491C521EF9D27047D2B241
:1002900001E00270401C491EFBD270470022F6E7C5
:1002A00010B513460A4604461946FFF7F0FF2046EC
:1002B00010BDF8B502464A40D40F42004B00520828
:1002C0005B089A4202D20246084611464A0023D0F1
:1002D000C30D4A00DDB2120EAD1A202D35DA4902E7
:1002E0000126490AF6058A19002C00D05242202125
:1002F0004F1B1146B9402A411018C20D9A4221D015
:10030000002C17D0012D08DCDA05801AD20F8019D5
:10031000D207DBB200F054FBF8BDDA05801A0123E6
:1003200040001B06C01880185A428018CA0F10439C
:10033000490007E04908C2071143DA05801A80190D
:100340004008801800F034FBF8BD61000122511A0A
:10035000001BF7E70122D2075140AAE70122D2078A
:100360005040A6E7024670B54A40D30FDB07400075
:100370002DD04A002AD0010E140E000212020919D3
:10038000400A520A8418E50104465443000A120A3E
:100390002E045043A4194219200CC543AA18120C6C
:1003A0000125AD03521C521912047F39240400D0D8
:1003B000521C104301D44000491EC2B20C06C009B1
:1003C0002018401C4008802A02D003E0002070BDA5
:1003D00040084000002900DA0020184370BD70B5C5
:1003E00002464A40D50F40004A00ED074008520837
:1003F000002814D0002A12D0C40DD30D41020120D0
:10040000C0055202490A520AE41A091812187D342A
:10041000914201D3641C00E04900002C01DA002065
:1004200070BD0023914201D3891A0343400849005B
:100430000028F7D100290AD0914202D10121C90731
:1004400005E0914201D2012101E00121C943E0050B
:10045000C018401900F0ACFA70BD0000F0B50746B6
:100460000846584087B0C00F049048000E46590017
:1004700040084908BC1A884105D2384631461E4614
:1004800017460B4602465800400810434CD0300D2A
:10049000039040055900400D490D0590401A029007
:1004A000402872DA18030121000B09050843019066
:1004B00004980092002805D00199524200208841FA
:1004C00000920190029840210A1A0199009800F0C8
:1004D0003BFA05460C466B4607CB00F056FAC019AE
:1004E0007141039A0E0D0023D71756401A467A40E1
:1004F000164344D0049A002A2DD0029A012A039A66
:1005000015DC1205C01A914101263605001C714107
:10051000D20F059ED2070093019202962A462346E7
:1005200000F094FA07B0F0BD38463146FAE71605F8
:10053000224A0F46B218C01AB74101210905001C12
:100540004F4100187F41114618187941E20F1043BE
:100550006D19644113E0E2076D0815436408C20792
:100560001443039A01261205C01A91413605001C56
:100570007141CE07400830434908C01851412A460E
:10058000234600F056FACDE7FFE704980122400029
:10059000C117121A00238B4104983146C417381A28
:1005A000A141EEE730B40124E407634030BC55E7D5
:1005B00030B40124E407614030BC4FE70000E0FFA5
:1005C000F0B51FB488B00B990998002448400999E8
:1005D000C00F490049080991C0070B9900904900D4
:1005E00049080B9109990898A64608431CD00B9915
:1005F0000A98084318D0099801244000420D480089
:10060000410D099824050003000B204309900B9825
:100610000003000B20430B9050181C494018002287
:1006200001901446104605E0002001460DB0F0BDD3
:10063000032801DA034600E003239C46C11A0AAEF0
:100640000AE05F0008ADED5B4F00F75B7D430027DC
:10065000AA187C41491C5B1E6145F2DD410004ABD8
:100660005A522104120C0A43240C401C0828DFDBD8
:10067000019802900099704601910090059B049AA0
:100680000799069800F0E2F9D0E700000DFCFFFFA3
:10069000F0B50C465C4085B0E40FE40703944C00D1
:1006A00000266408590094464908024602962243EF
:1006B00021D062460A431ED06200570D4A000E0345
:1006C0002303550D012402462C492405781B1B0BDE
:1006D000360B401823432643614600901C46501AAF
:1006E000B44103D30098401C009002E09218009897
:1006F0005B41002803DA0020014605B0F0BD002070
:10070000012109050746864611E064461D46141B73
:10071000B54106D36546521BB341744607430C43AB
:10072000A646CD0740084908284392185B41054674
:100730000D43EAD11046184313D060461946504085
:100740007140084306D06046101AB34106D2012218
:10075000002306E000220123DB0702E00122D2434E
:100760005310009874460105381C6141029C039D9A
:100770000019694100F05DF9BFE70000FD030000CA
:1007800070B54B005B0803430BD04B005C0D00269B
:1007900033466542B341D417AD1AA34102DB0020B2
:1007A000014670BD12053018514170BDC217C10F0E
:1007B000504010B54018CA079623002100F000F9F8
:1007C00010BD10B500229623114600F0F9F810BDB7
:1007D0000EB5C217C10F5040CA0740180021054B83
:1007E0000293019200910A460B4600F02FF903B0E4
:1007F00000BD0000330400000EB505490291002140
:1008000000910A460B46019100F020F903B000BDAB
:1008100033040000410040020122400AD205090EC3
:1008200080187F2901DA00207047962903DC962280
:10083000511AC840704796398840704770B5CD0F3F
:100840004A0009030123090B1B0519430B4BED0754
:100850000024520D9A4201DA002070BD074B343358
:100860009A4203DC9A1A00F07FF802E0044951181A
:1008700088402C43F1D0404270BD0000FF030000CF
:10088000CDFBFFFF4A0009030123090B1B05194398
:10089000094B10B5520D9A4201DA002010BD064BEB
:1008A00034339A4203DC9A1A00F05EF810BD034913
:1008B0005118884010BD0000FF030000CDFBFFFF72
:1008C000C20FD207400040080BD0C10D0723DB0147
:1008D000C91840020905400A1143C20840071143E4
:1008E000704700200146704710B5002904DB012441
:1008F000E40740428C412146002B04DB1C460123C7
:10090000DB075242A3418B4200D1824210BD00005E
:10091000CB0FDB07490010B5490802460A4307D050
:100920000A0D07240903E401090B121B002A01DC4C
:10093000002010BDC900440F0C43C100E018D205CF
:10094000801800F035F810BD10B5202A04DB0146F0
:10095000203A9140002010BD914020239C1A03466C
:10096000E3401943904010BD10B5202A04DB08462F
:10097000203AD040002110BD0B46D340D040202467
:10098000A21A91400843194610BD10B5202A06DB73
:10099000CB170846203A1041C1170B4306E00B461F
:1009A0001341D0402024A21A91400843194610BD9B
:1009B000002904DA401C490001D14008400070477A
:1009C00070B40024050C05D11024000402D10029C4
:1009D00021D01124050E01D100020834050F01D1E8
:1009E0000001241D850F01D18000A41C002801DB1B
:1009F0004000641C002908D020252E1B0D46F54020
:100A0000A14000D001212943084301061B1B000A15
:100A1000DB1D02D5002070BC7047DB05181880185C
:100A20000029F8DA401C4900F5D170BC40084000AC
:100A3000704710B5002B08DA0024401C6141921861
:100A40005B411A4301D14008400010BDF0B51FB40E
:100A500082B005460C0003D0084604F0EFFB02E02C
:100A600004F0ECFB20300246009021462846FFF7B8
:100A70006BFF049B059A04460F4618431143084335
:100A800014D0184610431BD0009840210A1A18466B
:100A90000599FFF769FF05460E46009A05990498E7
:100AA000FFF752FF084305D0012004E020463946F5
:100AB00007B0F0BD0020C11705430E432C43374358
:100AC00000990E986305401A7905E40A00220C4348
:100AD000FD0A0A3002D500200146E9E70105101998
:100AE00069410C9C0D9D00196941FFF7A2FFDFE7EA
:100AF000F8B50546480040080C46284304D060007D
:100B0000184A400D904201DD2846F8BD1549353997
:100B1000884210DC88420BDB290D2003084329039F
:100B2000014305D0E00F1049C00741180020F8BD6F
:100B300000200146F8BD161A4020821B2846214697
:100B4000FFF702FF07460091284621463246FFF78D
:100B50000BFF3A46009BFFF76CFF3246FFF7F4FEAF
:100B6000F8BD0000330400000000F03F10B500297C
:100B700004DB0124E40740428C412146002B04DBC6
:100B80001C460123DB075242A341994200D1904207
:100B900010BD0000064C0125064E05E0E36807CCB9
:100BA0002B430C3C98471034B442F7D3FFF78CFA30
:100BB000B06D0008D06D000870B58C180578401C29
:100BC0006B075B0F01D10378401C2A1106D1027814
:100BD000401C03E006780E70401C491C5B1EF9D1D6
:100BE0002B0705D40023521E0DD40B70491CFAE7C5
:100BF0000378401CCB1A921C03E01D780D70491C31
:100C00005B1C521EF9D5A142D8D3002070BD000054
:100C100038B50446064805490068FFF769FA60439D
:100C200000E0401E00900028FBD138BD40420F007C
:100C300040000020F8B50446006881688907890FE4
:100C4000012902D10168C90722D18168114A102601
:100C50001140012500290ED18168294381600120BE
:100C6000FFF7D6FF00F01AFD07460CE000F016FD76
:100C7000C01B0A2807D9A06D3043A065E06D28434A
:100C8000E0650120F8BD20680068C043C007EDD1D1
:100C90000020F8BD1700008010B50C487D21C90068
:100CA0000068FFF725FA0A49401E88420DD8094915
:100CB000486109480722C3691B021B0A4C042343ED
:100CC000C361002088610A6110BDFEE7400000207A
:100CD000FFFFFF0000E000E004ED00E070B503F06E
:100CE00061FF194800F012FD184C194D042604222A
:100CF0000F21184801F034FA0121084600F07EFD6A
:100D0000144801F0EFF92068304320600E4800F0ED
:100D1000FDFC6878401CC0B268709B280FD300208F
:100D200068700C4801F0DEF903F0CCFE02F0D4FB51
:100D300002F0F4FC02F0C6FC02F05EFC70BD064856
:100D400002F01BF8D3E700003802002000700040DA
:100D50000C00002048020020D0020020FEB5414EC9
:100D6000012730463771403804F0CCFB7D2000016C
:100D700000F04EFB314640390846583004F00DFB78
:100D8000344618340420205E0190FFF70FFD3649E9
:100D9000FFF725FB35490860E0680090FFF711FD7B
:100DA0003349FFF71CFB33490860A0680546FFF78D
:100DB00008FD314908602069FFF703FD2A49FFF764
:100DC0000EFB2E4908602E49019840182D49884293
:100DD00009D22D490098884205D82C48854202D86E
:100DE000481085422DD21F483771403804F08AFBE5
:100DF0007D20000100F00CFB1A49403908465830AC
:100E000004F0CBFA0420205EFFF7D0FC1649FFF770
:100E1000E6FA16490860E068FFF7D3FC1449FFF7CB
:100E2000DEFA14490860A068FFF7CBFC124908609D
:100E300064212069FFF75CF9FFF7C3FC0F490860E4
:100E4000FEBD134841680029FAD147600020307187
:100E50000448403804F056FB012211030D4800F00D
:100E600016FCFEBD8C0100200000C84220000020BE
:100E700000007A4424000020280000202C000020DC
:100E800088130000C9320000A0860100F04902006A
:100E9000000000200004005010B504F095F901494D
:100EA000088010BD0E00002010B50F4C2078FF28E0
:100EB00002D16078182801D0002010BDE0786421AC
:100EC000484321794018FFF77CFC0849FFF787FA6F
:100ED0000749FFF747FAFFF79DFC064908600649F6
:100EE000E0790860012010BDC40200200000C84263
:100EF00086380E411C00002034000020FEB500277B
:100F00003D4601970097FFF7C7FF02F029FDFF2636
:100F10009136294C17E0294800F0F8FB02F020FD3B
:100F20002088B0420ED0FFF74CFC0199FFF7C1F9C1
:100F3000019023480088FFF744FC0099FFF7B9F9B6
:100F40006D1C00907F1CFFF7AFFF002801D0142F0D
:100F500001DA192FDFDB0027002D15D1174800F02B
:100F6000D5FB02F0FDFC2088B0420AD080B2FFF72A
:100F700028FC019012480088FFF723FC012500900F
:100F800002E07F1C142FE9DB2846FFF70FFC054623
:100F900029460198FFF723FAFFF73CFC87B2278028
:100FA00029460098FFF71BFAFFF734FC0449002F8D
:100FB000088000D12680FEBDE60000203802002017
:100FC000E4000020F8B506460D464036317D012983
:100FD0000DD00121317501688A68520709D5816DEC
:100FE000202211438165002030750120F8BD0220C8
:100FF000F8BD174B6A68D80547109A42154C8A6AA3
:101000002B6812D05B035B0B1A438A622968490381
:1010100005D5A1680143A1600A20FFF7F9FD286802
:10102000800312D5A06838430EE05B035B0B9A4344
:101030008A622968490302D5A1688143A1602868B2
:10104000800302D5A068B843A06000203075F8BDC9
:1010500001100000002701400068006C704700008C
:1010600070B5040006D0A06D264600254036002845
:1010700002D006E0012070BDE5653575204600F020
:10108000D1F8A06DC00603D421688868400705D553
:10109000A06D10210843A0653575EBE7A06DFF2218
:1010A0000132904302221043A06588688207920FA4
:1010B0005A48012A02D10A68D2072BD10323626859
:1010C0009B079A4205D05B429A4202D05B009A424B
:1010D00009D10A69920092080A6121680A69636865
:1010E0001A430A610CE00A69920092080A61816859
:1010F0000F2292049143816081686268114381608C
:101100002168CA6818239A43CA602168CA68A3681C
:101110001A43CA6081680122520691438160816846
:10112000228F52061143816020688168C90004D46F
:10113000816801221207114381602068C168384A22
:101140001140C1602169E068022923D000210843D1
:10115000216A226B4903520011430843616B084323
:10116000A16989030843E169C90308432168CA6882
:101170001043C860A06A0146FF39C23905D0E16A50
:1011800008432168CA681043C860606A01210128C9
:1011900002D00BE00421DAE7206A002823D0A06DFA
:1011A00020221043A065E06D0843E065206C012813
:1011B00020681FD00169C90703D0016949084900A7
:1011C000016120684169C908C9004161206841691D
:1011D000E26B11434161E565A06D80088000401C11
:1011E000A065002070BD2068C26801231B041A435B
:1011F000C260DBE70269FF239B009A43026120681B
:101200000269636CE66C1A43A36C33431A430261B0
:10121000206802690A430261D3E700000027014009
:101220001902FEFF00B500680A4985B088420FD157
:101230000948416B4215114341630120009003208E
:1012400001900020029005206946000700F05EF939
:1012500005B000BD0024014000100240F8B504466E
:101260004069254640350E4608280BD02068C068E6
:10127000C00709D0A06D20210843A0650020287573
:101280000120F8BD082700E00C2700F007FA0090C5
:1012900011E0701C0FD0002E05D000F0FFF900996E
:1012A000401AB04207D9A06D04210843A065002070
:1012B00028750320F8BD206800683842E9D0A06D89
:1012C000012149020843A0652068C16809058A0F09
:1012D0000C21002A1AD1226A002A17D102681207AB
:1012E00014D5826853070122002B08DB43688B4327
:1012F0004360A06D130298431043A06506E0A06D03
:1013000020231843A065E06D1043E065A069002824
:1013100001D1206801600020F8BD000070B50446CE
:10132000216800208968490721D425464035297D58
:1013300001291CD001212975E169012904D0204629
:10134000FFF778FC002811D1A16D0A4A1140FF2255
:1013500001321143A1650021E165297522681C2134
:10136000116021688A6804231A438A6070BD0220D4
:1013700070BD0000FEF1FFFF70B500240246203270
:101380005179022903D00421C16301243CE00168A2
:101390000B680E25AB430B6001680B685B085B00B4
:1013A0000B601A4B0168994201D1012121E0174BD2
:1013B0001433994201D110211BE0144B2833994278
:1013C00001D1891515E0114B3C33994201D18914A3
:1013D0000FE00E4B5033994202D10121090408E07D
:1013E0000A4B6433994202D10121090501E0012130
:1013F0000906064B083B596001215171002111710A
:10140000816B002900D08847204670BD080002404B
:1014100031B500F043F9044600F040F90099001B93
:101420008842F9D338BD0000F0B500235DE0012407
:101430009C4022460A4057D006685F000325BD4005
:101440002E43AC460660DD08AD002D182E6AAE4670
:101450005D07EF0E0F25BD40AE4375462E628668D0
:101460006546AE4386604568A5434560C4686546E9
:10147000AC43C4609D081F4CAD002D19AF689C079C
:10148000260F0F24B440A4463C4005273F07B8422E
:1014900001D1002714E0184FB84201D101270FE015
:1014A000164FB84201D102270AE0154FB84201D1C8
:1014B000032705E0134FB84201D1052700E00627B6
:1014C000B740A74210D1AE686446A643AE600E4C4A
:1014D000256895432560656895436560A5689543D3
:1014E000A560E5689543E5605B1C0A46DA409ED13D
:1014F000F0BD000000000140000400500008005052
:10150000000C0050001C005000040140F8B50023FE
:101510000124A2E027469F403A4070D04D68022D3A
:1015200001D0122D14D1DD08AD002D1800952D6AC3
:101530005E07AC46F50E0F26AE46AE406546B54397
:10154000AC460E697546AE4065462E43009D2E6240
:101550004D68012D05D0022D03D0112D01D0122D83
:1015600016D185680326AC465D00AE46AE406546A2
:10157000B543AC46CE687546AE4065462E438660A0
:1015800046680D79BE43ED06ED0F9D40354345603D
:1015900006685F000325BD40AE46AE430D79B446F4
:1015A000AE07B60FBE4065462E430660C668754658
:1015B000AE438D68BD403543C5604D68ED004BD5E9
:1015C000294D6E6B26436E639E08284DB600751933
:1015D000AC46AD689E07360F0F27B740BD430527C1
:1015E0003F07B84201D1002715E0214FB84201D191
:1015F000012710E01F4FB84202D102270BE02BE079
:101600001D4FB84201D1032705E01C4FB84201D15C
:10161000052700E00627B7402F436546AF60184D09
:101620002E684F689643FF0300D516432E606E6800
:101630004F689643BF0300D516436E60AE684F688F
:101640009643FF0200D51643AE60EE684F6896439E
:10165000BF0200D51643EE605B1C0A681546DD40EC
:1016600000D057E7F8BD0000001002400000014024
:101670000004005000080050000C0050001C0050F6
:10168000000401400069084000D001207047002A92
:1016900001D0816170478162704700000148006895
:1016A000704700003C01002070B504000FD0216895
:1016B0001348086021681348086003CC4160206823
:1016C000083C21688860FFF7E9FF054608E0012033
:1016D00070BDFFF7E3FF401B302801D9032070BD28
:1016E0002068C0680028F4D120680269E1688A4255
:1016F00001D0016101E004490160002070BD0000DB
:10170000CCCC000055550000AAAA00000068024990
:101710000160002070470000AAAA0000024801688A
:10172000491C0160704700003C01002010B50648CC
:101730000168402211430160002000F007F800F02A
:1017400019F8002010BD00000020024010B504462A
:1017500007487D21C9000068FEF7CAFC01F0F0FAD5
:1017600000222146501E00F035F8002010BD000078
:101770004000002010B50C48416B01221143416329
:10178000816B02041143816300221146501F00F057
:1017900021F800221146901E00F01CF8002211468C
:1017A000501E00F017F810BD00100240C106C90E0F
:1017B00001208840014908607047000080E100E096
:1017C000C106C90E01208840014908607047000029
:1017D00000E100E010B501F0CFFF10BD0248016844
:1017E0000215114301607047007000400248016813
:1017F0004215114301607047007000400A4B1A689F
:101800009208920002431A600848036904221343B5
:101810000361012906D040BF20BF20BF0169914369
:101820000161704730BFF9E70070004000ED00E053
:10183000F8B54749034601240020E403434D444AD8
:101840004031082B71D00FDC012B3ED0022B56D03B
:10185000042B1AD1CB680326B60233405AD0012795
:10186000FF02BB4243D058E0102B6BD0202B0CD191
:101870000B690969032501272D043F0429407E00D7
:10188000B94203D199052CE02046F8BDB14203D1FD
:101890009907FAD52F48F8BDA942FCD111688903F0
:1018A000F9D5116803200005014001200005091A3F
:1018B00009D0091A05D0814201D12748F8BD27482F
:1018C000F8BD2748F8BD2748F8BDCB689B079B0F9C
:1018D0000AD0022B0BD0012B0ED0032BF4D10969B7
:1018E00089050029D0DBF8BD00F0BAF9F8BD116810
:1018F0004907FBD52846F8BD00F0C2F9F8BDCB6812
:101900000C26334006D0082BF1D0042BF4D00C2B3E
:10191000E5D0F8BD00F094F9F8BD0122920293429F
:10192000EAD0B342DBD0F8BDFFE7C96803231B034D
:101930001940EFD0012464036310A142D7D099422B
:10194000DAD0F0E7916B4902E4D4ECE70024F4002C
:10195000001002408890000020A1070000093D000F
:1019600040420F0080841E00F8B504460078544DB4
:10197000800672D5524E0027403EB06BC00004D4A2
:10198000B06BA9050843B06301274E480168C9053B
:1019900011D40168821511430160FFF77FFE0090AA
:1019A00005E0FFF77BFE0099401A642837D84548C8
:1019B0000068C005F5D532680321090560680A4052
:1019C0000140914208D08103890F032904D1316875
:1019D000890301D50120F8BD2A69032109040A40C1
:1019E00022D0084090421FD0207880061CD528695C
:1019F0002A6988430121C9040A432A612A698A4362
:101A00002A612861C0050FD5FFF748FE009008E065
:101A1000FFF744FE0099411A2B48814201D9032067
:101A2000F8BD28698005F3D561688803800F032815
:101A300005D132680005824301400A4332602869BB
:101A4000032261681204114008432861002F04D06A
:101A5000B16B012000078143B1632078C00705D036
:101A6000E868A168800880000843E8602078800763
:101A700005D5E8680C218843E1680843E8602078D0
:101A8000400706D5E8680321890288432169084395
:101A9000E8602078000706D5E86803210903884339
:101AA00061690843E8602078000606D5E8680321EC
:101AB00089048843A1690843E8600020F8BD00005C
:101AC000401002400070004088130000F8B5054641
:101AD00053480E460068C007C00FB0420AD25048B3
:101AE000016849084900314301600068C007C00F20
:101AF000B0426FD128784B4C800705D5E068F021C3
:101B00008843A9680843E0602878C00752D0686815
:101B1000022817D0032818D02168012818D0890579
:101B2000002957DAE168890889000143E160FFF77D
:101B3000B5FD69680746022912D003291CD0012986
:101B400026D033E021688903EAE721688901E7E7C5
:101B50004907E5E7FFF7A2FDC11B3348814223D8BF
:101B6000E0680007800F0228F4D123E0FFF796FD1C
:101B7000C11B2D48814217D8E0680007800F032859
:101B8000F4D117E0FFF78AFDC11B274881420BD82B
:101B9000E0680007800F0128F4D10BE0FFF77EFD1D
:101BA000C11B2148814201D90320F8BDE06800072C
:101BB000800FF3D11A480168C907C90FB1420BD988
:101BC000016849084900314301600068C007C00F3F
:101BD000B04201D00120F8BD2878400706D5E06862
:101BE000072109028843E9680843E0602878000774
:101BF00007D5E0680721C90288432969C90008435D
:101C0000E06000F03DF8E168084A0906090F515C00
:101C1000C840074908600020FFF798FD0020F8BD84
:101C20000020024000100240881300009469000860
:101C3000400000200148006870470000400000207C
:101C4000044805490068C968044A4905490F515CC0
:101C5000C84070474000002000100240AD690008F5
:101C6000044805490068C968044A8904490F515C61
:101C7000C84070474000002000100240AD690008D5
:101C800010B5184AD1680C20084004280BD0082849
:101C900010D00C2810D050680004410F0120C00360
:101CA000491C884010BD1068C00601D50E4810BD03
:101CB0000E4810BD0E4810BD88020E4B000F185C78
:101CC0000902D368890F491CDB0301D5084A05E0E6
:101CD0001268D20601D5044A00E0044A5043FEF7D8
:101CE00007FA10BD0010024000093D000024F40076
:101CF00000127A00A4690008F8B504460078F24D95
:101D0000C0074AD0E8680007800F022807D0E868BB
:101D10000007800F032809D1E868C00306D52868AA
:101D200080033AD56068002873D036E001206268ED
:101D30000004824203D129680143296011E0052390
:101D400001211B0489049A422A6802D10A432A60AD
:101D5000F1E782432A602A6802400092286888439B
:101D60002860606800280CD0FFF798FC064604E065
:101D7000FFF794FC801B64287ED828688003F7D581
:101D80000BE0FFF78BFC064604E0FFF787FC801BA7
:101D90006428F1D828688003F7D42078800741D5DB
:101DA000E8681F270007800F3F02012807D0E86876
:101DB0000007800F032809D1E868C00306D428680B
:101DC000400717D5E068012823D113E0E068002818
:101DD00017D029680922914301432960FFF75EFC6F
:101DE000064604E0FFF75AFC801B0228C4D8286886
:101DF0004007F7D568682169B8430902084368605D
:101E000010E02868400840002860FFF747FC0646BD
:101E100005E090E0FFF742FC801B0228ACD8286860
:101E20004007F7D42078C00676D5E868A74E0007AB
:101E3000800F0BD0A06900285DD02868FF210131F8
:101E400008432860FFF72AFC074644E0286880051D
:101E500002D5A06900286ED0206A696831408842A6
:101E600012D901F0ADFC0028AED16868216AB043F8
:101E700008436860686800E0BBE00002217F000A58
:101E80000906084368600FE06968B143014369606F
:101E90006868217F0002000A090608436860206A1A
:101EA00001F08EFC00288FD1206A410B0120C00375
:101EB000491C8840E96809060A0F8549895CC840C1
:101EC000844908600020FFF741FC25E0FFF7E6FBAE
:101ED000C01B02288AD828688005F7D56868216A5F
:101EE000B043084368606868217F0002000A090661
:101EF0000843686010E02968FF20013081432960B1
:101F0000FFF7CCFB064604E0FFF7C8FB801B022866
:101F10006FD828688005F7D420786F4E000723D546
:101F200060690028306910D0012108433061FFF753
:101F3000B5FB074605E0C5E0FFF7B0FBC01B022874
:101F400057D830698007F7D50EE04008400030616F
:101F5000FFF7A4FB074604E0FFF7A0FBC01B022825
:101F600047D830698007F7D42078400762D5A86B3E
:101F70000027C00005D4A86B012109070843A86306
:101F8000012756480168C90511D40168821511431B
:101F90000160FFF783FB009005E0FFF77FFB0099EE
:101FA000401A642825D84D480068C005F5D5FF20A3
:101FB000A2680130824203D131690143316111E0ED
:101FC00001218902002A07D005231B029A4203D16E
:101FD00032690A433261EFE7326982433261306924
:101FE00088433061A06800280FD0FFF757FB0090AE
:101FF00007E060E0FFF752FB0099411A3848814240
:1020000059D830698005F5D50DE0FFF747FB009002
:1020100006E0FFF743FB0099411A314881424AD854
:1020200030698005F5D4002F04D0A96B012000078A
:102030008143A963606A002842D0E9680907890FD3
:1020400003293FD0012636060228286805D0B04370
:102050002860FFF723FB04462FE0B0432860FFF71A
:102060001DFB074604E0FFF719FBC01B022822D81E
:1020700028688001F7D4E16AA06AEA680843216B06
:10208000FD231B049A4311430843E860286830434A
:102090002860FFF703FB044604E0FFF7FFFA001B8C
:1020A000022808D828688001F7D509E0FFF7F6FA7A
:1020B000001B022801D90320F8BD28688001F5D44F
:1020C0000020F8BD0120F8BD0010024000E0000033
:1020D0009469000840000020401002400070004059
:1020E00088130000F8B505460446203528780128F5
:1020F00019D001202870022068702168CA20486227
:10210000216853204862206881680122920291432D
:10211000816020688168120191438160FFF7BEFAF7
:10212000064600270FE00220F8BDFFF7B7FA811B33
:102130007D20C000814206D92168FF20486203202B
:1021400068702F70F8BD2068C0684007EDD5216821
:10215000FF204862012068702F700020F8BD000049
:10216000F7B5054604462035287882B0012814D0FA
:1021700001202870022068702168CA204862216806
:10218000532048622068806800264005FF27002809
:1021900012DAFFF783FA00900AE0022005B0F0BDE2
:1021A000FFF77CFA0099411A7D20C00081421CD8BB
:1021B0002068C0684007F3D4206881680122920239
:1021C000914381602068C16880221140204A8918AB
:1021D000C160FFF763FA00900DE0FFF75FFA009926
:1021E000411A7D20C000814205D920684762032042
:1021F00068702E70D2E72068C0684007EDD521686E
:102200000398486120688168C908C9008160206816
:102210008168049A114381600E4802680121090512
:102220000A43026082680A43826020688168012252
:10223000920311438160206881681211114381600B
:1022400020684762012068702E700020A6E7000019
:102250007FFBFFFF000401407047000010B50446FB
:102260000068C068400509D52046FFF7F5FF2068E3
:10227000C16880221140054A8918C16001200449C3
:102280000005486101202034607010BD7FFBFFFF16
:102290000004014070B5040005D02546203568785B
:1022A000002802D006E0012070BD002028702046E2
:1022B00000F042F8022068702168CA204862216854
:1022C00053204862204601F0C6FAFF21002820680A
:1022D00003D0416204206870E5E78268154B1A401C
:1022E0008260226890686368A66918432369334353
:1022F000184390602268E0681061206802692389B1
:102300001B041A4302612068C26880239A43C2609A
:102310002068C26C92089200C264E269606902435C
:102320002068C36C1A43C26420684162012068704F
:10233000002070BDBFFF8FFF00680549884205D1AE
:1023400004480169012292041143016170470000B1
:102350000028004040100240F8B5054604462035EC
:1023600028780B46012815D00120287002206870BB
:102370005878002A10D001F05BFA987801F058FAEA
:10238000D8789E78000406435878197800024903EB
:10239000084316E00220F8BDC10603D5EF2108402E
:1023A0000A305870D87801F04BFA0604587801F0DA
:1023B00047FA00020643987801F042FA064318787B
:1023C000400306432168CA204862216853204862BE
:1023D000204601F040FA0027002811D1104806409D
:1023E000206846602068C16880229143C1602068EF
:1023F000806880060CD4204600F08CF8002807D0B6
:102400002168FF204862042068702F700120F8BD09
:102410002168FF204862012068702F700020F8BDFD
:102420003FFFFF00F8B506460446203630780D46DB
:1024300001280ED001203070022070702068002723
:102440008068002A07D040061AD5287801F0F0F9F4
:1024500017E00220F8BD400600D4EF70287801F0A4
:10246000EFF90204687801F0EBF900020243A87862
:1024700001F0E6F90243E8780004024300920BE021
:10248000EF702978A878090408436978EA78090286
:1024900012041143084300902168CA204862216851
:1024A00053204862204601F0D6F900281FD1184970
:1024B0000098084021680860206881680122920421
:1024C000914381602969E868084321688A6810435C
:1024D00088602068C16880229143C160206880685C
:1024E00080060CD4204600F015F8002807D021689B
:1024F000FF2048620420707037700120F8BD216809
:10250000FF2048620120707037700020F8BD000085
:102510007F7F7F0070B504460068C168A0229143A8
:10252000C160FFF7BBF87D260546F60006E0FFF721
:10253000B5F8401BB04201D9032070BD2068C068C7
:102540008006F4D5002070BD70B5040012D00221C1
:10255000204640300546417420680168402291437E
:102560000160204600F0ACF80021616569742974AF
:10257000084670BD012070BD704738B501684A68D3
:10258000D243520609D48A68D243D20705D18A6859
:10259000D243520601D5816C08E04A68D243120644
:1025A00006D48A68D243920702D4C16C884738BDEA
:1025B0004A68D2439206FAD48A68D243D20606D435
:1025C000426D02231A4342651022D2438A60016899
:1025D0008A680123D2439206002A08DB426D1A431F
:1025E00042658A6800920A684024A2430A60016832
:1025F0008A68D243540602464032002C09DB547CE0
:10260000122C06D0446D04252C434465CC688C689C
:1026100000948C68E443E40505D4446D08252C43FC
:1026200044658C680094446D002CC0D04C68E02553
:10263000AC434C605374FFF79FFF38BD70B5040086
:1026400006D025464035687C0026002802D005E0EB
:10265000012070BD2E74204600F04CF802206874F2
:1026600020680168402291430160A1686068226986
:102670000843E16811430843616901220843A169E5
:10268000520211400843E1690843216A0843A16AE4
:10269000084321680860A0690421000C0840616AB1
:1026A0000843216848602168E06A08612068C169C0
:1026B00092009143C161666501206874002070BD7D
:1026C00010B50068084988420DD10848816B012285
:1026D000920391438163072149030548FEF7A4FE55
:1026E0001A20FFF763F810BD0038004000100240C8
:1026F0000004005000B50068104985B088421BD125
:102700000F48816B0122920311438163072040032C
:102710000090022000210190032002910491039077
:1027200069460848FEF7F2FE002211461A20FFF71C
:1027300051F81A20FFF744F805B000BD00380040FA
:102740000010024000040050FFB581B0044600268E
:102750006846068027464037787C01287ED10029CC
:102760003CD0002A3AD0387C012877D00120387438
:10277000222078746665A163A287E287A664E66476
:102780002663A686E6860120A368C003834205D19E
:10279000206803680125AD03AB4303600125A06AEF
:1027A0006D03A84207D123681868A8431860206801
:1027B00003682B4303606368D81FFD3802D1A0680B
:1027C00000280ED020680168490603D40168402221
:1027D00011430160E06800281DD032E0012005B0FF
:1027E000F0BD3E740498134600900A46204600F05F
:1027F0003DF9F4E7002201212046049B01F0E8F8AE
:10280000002834D12068C168A06B421CA26301700B
:10281000E08F401EE087E08F0128EBD814E0002213
:1028200001212046049B01F0D3F800281FD1206825
:10283000C068A16B0880A06B801CA063E08F401E65
:10284000E087E08F0128EAD8A06AA84205D1206875
:102850000168012212031143016000E05CE00022E4
:1028600001212046049B01F0B3F8002801D0032089
:10287000B5E7E0680028206818D0C068A16B088020
:10288000A06B801CA063E08F401EE087A06AA84276
:1028900017D1002201212046049B01F099F800285D
:1028A0000AD0606D022108436065E0E7C168A06B53
:1028B000421CA2630170E6E72068C0686946088090
:1028C00008886168C81FFD380CD10121A068C903C0
:1028D000884202D04911884204D120680268402110
:1028E0008A43026001207874A06AA84211D120684E
:1028F0008168C943C9060CD4616D02221143616528
:102900000168A943016020680168294301603E74A1
:1029100064E73E74002062E7022060E7FFB50546E9
:1029200004464035687C81B0012872D100293CD032
:10293000002A3AD0287C01286BD00120287412206C
:102940006874002666652163A286E286E664A66452
:10295000A663A687E6870127A06A7F03B84207D14E
:1029600020680168B943016020680168394301604B
:102970000121A068C903884205D1206801680122AD
:1029800092031143016020680168490603D401687D
:10299000402211430160E0680028606808D00028E8
:1029A00020D0E08E01281DD026E0012005B0F0BD2A
:1029B000002802D0E08E012808D1206B411C216341
:1029C00021680078C860E08E401EE086E08E002816
:1029D00020D0002202212046049B00F0F9FF0028AD
:1029E00015D1EAE7206B21680088C860206B801C45
:1029F0002063E08E401EE086E08E00280AD0002290
:102A000002212046049B00F0E3FF0028EAD00320C7
:102A1000CCE729E0A06AB84205D121680868012204
:102A2000120310430860002202212046049B00F09C
:102A3000CFFF2027002807D1012280212046049BB8
:102A400000F0C6FF002803D0606D38436065DEE704
:102A5000A068002803D12068C16880680090012028
:102A600068742E740020A1E702209FE7F8B50446A1
:102A700000276846078026464036707C012802D031
:102A8000707C22287ED100290CD0002A0AD0002B8D
:102A900008D0307C012875D001203074707C01286A
:102AA00002D003E00120F8BD322070746765A26394
:102AB000A387E3872163A386E386A764E7640125F0
:102AC000A06A6D03A84207D120680168A94301608C
:102AD000206801682943016020680168490603D421
:102AE00001684022114301600121FF20E268C90210
:102AF00005308A42616866D1002904D081420CD138
:102B0000E08E012809D1206B21680088C860206B05
:102B1000801C2063E08E401EE086E08E002843D1BA
:102B2000A06AA84246D1206801680122120311431D
:102B300001603FE02068C068A16B0880A06B801C2A
:102B4000A063B0E0002202212046069B00F040FF77
:102B500000287DD1206B21680088C860206B801C14
:102B60002063E08E401EE086E08E002808D1A06A37
:102B7000A84205D1206801680122120311430160B7
:102B8000002200E0CCE001212046069B00F020FF5F
:102B900000287FD12068C068A16B0880A06B801CD2
:102BA000A063E08F401EE087E08E0028CAD16068F5
:102BB00000287BD1002201212046069B00F008FF5F
:102BC000002867D1B6E7002904D081420BD1E08EFE
:102BD000012808D1206B411C216321680078C8605E
:102BE000E08E401EE086E08E002845D1A06AA84213
:102BF00005D12068016801221203114301600022FF
:102C000001212046069B00F0E3FE002842D1206807
:102C1000C068A16B087046E0002202212046069B96
:102C200000F0D6FE002835D1206B411C21632168BD
:102C30000078C860E08E401EE086E08E00280AD151
:102C4000A06AA84207D1206802680121090300E0B8
:102C500020E00A430260002201212046069B00F08A
:102C6000B7FE002816D12068C268A06B411CA16382
:102C70000270E08F401EE087E08E0028CCD16068B3
:102C8000002813D1002201212046069B00F0A0FE5F
:102C9000002802D00320F8BD08E02068C168A06BBE
:102CA000421CA2630170E08F401EE087A06AA84228
:102CB0000FD1002201212046069B00F089FE00284A
:102CC00002D0606D02210EE02068C068694608806D
:102CD0000888012280212046069B00F079FE00280A
:102CE00004D0606D202108436065D3E70120707433
:102CF000A06AA84211D120688168C943C9060CD4D2
:102D0000616D0222114361650168A9430160206879
:102D10000168294301603774C4E637740020BAE7BC
:102D20000220B8E7042204490428086902D090432D
:102D3000086170471043FBE700E000E070470000C7
:102D4000094910B5401E884201D9012010BD074C29
:102D500060610321081F00F00FFD0020A061072023
:102D60002061002010BD0000FFFFFF0000E000E038
:102D700010B5FFF7E3FF10BD704770B5040019D020
:102D800024212046603006464172206801684908C7
:102D900049000160206800250560206845602068C2
:102DA0008560204600F0E2F8E5667572B57235720E
:102DB000002070BD012070BD70470000F8B50268AA
:102DC0000446D06911680607360F07D1830605D57A
:102DD0008B0603D5204602F01AF8F8BD956820232B
:102DE000002E65D0EE07F60FFF2721370F4037433F
:102DF0005ED0C70706D0CF0504D501271762E26E63
:102E00003A43E266820708D5EA0706D0276802221D
:102E10003A62E26E04273A43E266420708D5EA07BF
:102E200006D0256804222A62E26E02252A43E26661
:102E3000020709D50A461A40324305D02368082202
:102E40001A62E36E1343E366E26E002AC5D0800681
:102E500004D5880602D5204601F0D9FFE06E0007B0
:102E600003D42068806840061CD5204601F0C0FFCE
:102E700020688168490611D5826840218A438260B2
:102E8000606E00280AD01D498163606EFEF774FAF7
:102E90000028A2D0606E816B8847F8BD2046FFF7FE
:102EA0008BFFF8BD2046FFF787FF0020E066F8BDE6
:102EB0002646C7026036002F0ADA6D0208D50120C7
:102EC000000510627372B3722046FFF755FFF8BD1C
:102ED000050605D50D0603D5204602F0E5F8F8BD38
:102EE0004006FCD54806FAD52046146840218C439C
:102EF0001460737200F068F9F8BD0000DD4D000841
:102F000070B5040005D025466035687A002802D0E7
:102F100006E0012070BD00202872204600F03EF837
:102F20002420687220680168490849000160606ACD
:102F3000002802D0204601F0BBFE204601F0A6FF8B
:102F40000128E7D0206841680922D20291434160FC
:102F5000206881682A2291438160206801680122EB
:102F600011430160204601F009FF70BD10B50068F3
:102F7000084988420DD10848816B012252049143CF
:102F80008163C11305200007FEF74EFA1C20FEF7EF
:102F90000DFC10BD0044004000100240F0B5006878
:102FA000114985B088421DD11048816B012252041D
:102FB000114381630424022000250326009401AA02
:102FC000049461C205273F0769463846FEF79EFA1A
:102FD00060030090122001AA049461C26946384639
:102FE000FEF794FA05B0F0BD004400400010024026
:102FF000F0B5034660339C7A202C44D100290BD0D5
:10300000002A09D0012584682D03AC4206D1066947
:10301000002E03D1CE0701D00120F0BD1E7A012E73
:1030200031D001261E724165014640310A834A8330
:10303000FF27AC4204D10269002A12D1134A0EE0E4
:103040007F22002C08D001252D07AC420AD104694B
:10305000002C04D03F2202E00469002C01D08A83B6
:1030600000E08F830021C16622229A7219720168E2
:103070008A6832438A6000680168FF222132114366
:1030800001600020F0BD0220F0BD0000FF01000043
:1030900010B50068174988422BD117484188092983
:1030A00001D100214180144942880B7813498B5487
:1030B0004288521C4280182B13D142888A18203A29
:1030C000937F0222FF2B05D14388012B02D9FF23D6
:1030D0000B7005E04388012B03D1097AFF2900D149
:1030E00042800648012204490C30FFF781FF002886
:1030F000F7D110BD004400403C000020C402002075
:10310000FFB5064604466036707A83B00D46202827
:1031100058D1002D0CD00598002809D00120A168B5
:103120000003814207D12069002804D1E80702D0BA
:10313000012007B0F0BD307A012843D00120307261
:103140000020E06621207072FEF7A8FA0190274661
:103150004037059838820598788218E0788A401EB2
:10316000788206980090002280212046019B01F081
:10317000CEFF002818D10120A1680003814202D1AE
:103180002069002812D02168287888626D1C788A0E
:103190000028E3D106980090002240212046019BA0
:1031A00001F0B5FF002808D00320C2E72888216875
:1031B000C005C00D8862AD1CE9E7202070720020B8
:1031C0003072B6E70220B4E77047FEE710B50F4C47
:1031D000002208212046FEF75AFA00F09DFB00224B
:1031E00010212046FEF753FA022002F049FC01228A
:1031F00008212046FEF74BFA022002F041FC002293
:1032000008212046FEF743FA10BD000000040050DC
:10321000F8B50746002400F05FFB144E002500229D
:1032200008213046FEF733FA022002F029FC012281
:1032300008213046FEF72BFA6006040E10213046B6
:10324000FEF720FA002801D0641CE4B2012002F04D
:1032500017FC6D1CEDB2082DE1D3002F03D0FFF752
:10326000B5FF2046F8BD00F08FF8FAE700040050E3
:1032700010B500F051FB0E4C012210212046FEF744
:1032800006FA012208212046FEF701FA042002F086
:10329000F7FB002210212046FEF7F9F9042002F086
:1032A000EFFB002208212046FEF7F1F910BD0000D7
:1032B0000004005010B500F02FFB0E4C0022082136
:1032C0002046FEF7E4F9002210212046FEF7DFF940
:1032D000042002F0D5FB012208212046FEF7D7F991
:1032E000012210212046FEF7D2F9042002F0C8FB8B
:1032F00010BD000000040050F8B50546002700F09E
:103300000BFB204E0024280601D5012200E00022FC
:1033100010213046FEF7BBF9022002F0B1FB01227A
:1033200008213046FEF7B3F9022002F0A9FB002283
:1033300008213046FEF7ABF96806641C050EE4B2BE
:10334000082CE0D3012210213046FEF7A0F900F04E
:10335000C3FA022002F094FB012208213046FEF756
:1033600096F9022002F08CFB10213046FEF78AF914
:1033700038430446002208213046FEF788F92046EB
:10338000F8BD00000004005010B50F4C00220821C9
:103390002046FEF77CF900F0BFFA012210212046FA
:1033A000FEF775F9022002F06BFB0122082120468E
:1033B000FEF76DF9022002F063FB0022082120468F
:1033C000FEF765F910BD000000040050F8B5054691
:1033D000002700F0A1FA204E0024280601D5012282
:1033E00000E0002210213046FEF751F9022002F0E1
:1033F00047FB012208213046FEF749F9022002F07E
:103400003FFB002208213046FEF741F96806641CA4
:10341000050EE4B2082CE0D3012210213046FEF75D
:1034200036F900F059FA022002F02AFB01220821A5
:103430003046FEF72CF9022002F022FB1021304624
:10344000FEF720F938430446002208213046FEF7F3
:103450001EF92046F8BD0000000400507CB5194854
:1034600017490160002103229207016442608160D4
:1034700001240461C160416206220462C263FF222A
:10348000C162C23282620163042295028161456396
:10349000C46142618163FDF7E3FD002803D04D2143
:1034A00009A001F0BFFE6946064801950094FDF7AA
:1034B00089FD002803D0562103A001F0B3FE7CBD96
:1034C00000240140D80100202E2E2F5372632F615B
:1034D00064632E6300000000F0B5324887B0C26A12
:1034E00004210A43C262C26A0A400592C26A80216C
:1034F0000A43C262C26A0A400592C16A0125294391
:10350000C162C16A29400591C16A02263143C16284
:10351000C06A254F30406C03059000222146384692
:10352000FEF7B5F80520002202210007FEF7AFF8EC
:1035300000221B211D48FEF7AAF8C32101224901E0
:103540001A48FEF7A4F800940024019502946946F5
:1035500038460394FDF7DAFF052002946946000718
:10356000009601950394FDF7D1FF11480090029455
:103570006946019503940D48FDF7C8FF0D4800907A
:103580000194694602940948FDF7C0FF7820009035
:10359000112001900294694603940448FDF7B6FF98
:1035A00007B0F0BD001002400008005000040050B9
:1035B000031800000404000010B509480749016021
:1035C000062141600749C1608160FEF76DF800285F
:1035D00003D03B2104A001F025FE10BD00300040C7
:1035E00038020020FF0F00002E2E2F5372632F6928
:1035F0007764672E6300000010B500221146022098
:10360000FEF7E8F80220FEF7DBF8002211461C2046
:10361000FEF7E0F81C20FEF7D3F810BD10B52349E3
:10362000234886B0002412C07F2101608460C460FA
:103630000461FF21446141600838FEF72BFE002839
:1036400003D043211BA001F0EDFD684604704470D7
:10365000847003940122694615480494FEF7E2FE43
:10366000002803D04F2113A001F0DCFD052069469E
:1036700008750120487588752020C875012205A9A4
:103680000B48FEF769FE002803D0592109A001F07C
:10369000C9FD042214210648FEF762FD002803D06C
:1036A000602104A001F0BEFD06B010BD002800405E
:1036B000480200202E2E2F5372632F7274632E63E4
:1036C0000000000010B510480E490160FF210531CF
:1036D000416000218160C16001220161520282616A
:1036E0004161016230224162C26181620721C1628F
:1036F000FEF7A4FF002803D0452104A001F092FDAD
:1037000010BD0000003800406C0200202E2E2F5308
:1037100072632F7370692E630000000010B51048AB
:103720000E4901604B21C901416000218160C160E7
:10373000016181610C22C1614261016230214162FB
:103740000121090381634900C163FFF7D9FB002808
:1037500003D0502103A001F065FD10BD00440040DE
:10376000D00200202E2E2F5372632F757361727456
:103770002E630000704700008307FF22DB0E9A4093
:103780008907090E994000280BDA0007000F083856
:10379000830808489B001818C36993430B43C3610F
:1037A0007047830804489B001B181868904308431F
:1037B0001860704700ED00E000E400E07047000092
:1037C00070B517490023CA681206120F18D18A6B08
:1037D000154CD500134A02D51268224009E08E6BC1
:1037E00001252D072E438E6312688E6B2240AE4357
:1037F0008E63A24204D103218903884200D10123B0
:103800000A48016849084900194301600068C00777
:10381000C00F984201D0012070BD002070BD000093
:10382000001002400070004000180000002002401C
:1038300001090A2200075143000F4018C0B2704727
:10384000002102E00A38C0B2491C0A28FAD209074E
:10385000090E0843704770B504460068C168490600
:1038600013D40021C943C160FDF718FF7D2605462A
:10387000F60006E0FDF712FF401BB04201D903201D
:1038800070BD2068C0684006F4D5002070BD0000FF
:1038900010B50248FEF7E2FC10BD0000480200200F
:1038A00007480649016007494160074981600749A7
:1038B000C16007490161074941617047253F000820
:1038C0004003002053490008294A0008093F000826
:1038D0000D4A00087548000800B585B0102000901A
:1038E000002001900290039069460248FDF70EFE09
:1038F00005B000BD0004005000B585B04020009028
:10390000002001900290039069460248FDF7FEFDF9
:1039100005B000BD0004005000B585B01020009037
:103920001120019000200290039069460248FDF7A3
:10393000EDFD05B000BD00000004005000B585B0ED
:1039400040200090112001900020029003906946D1
:103950000248FDF7DBFD05B000BD0000000400508B
:103960000C4910B5881E02F07BFE0A4CE121A41F11
:10397000608020880901401C80B22080FCF7B8FBE1
:103980000548814204D120460C3002F0FDFD6080E4
:1039900010BD0000E60000200F0E000010B502F080
:1039A0008BFE0028FBD10549881E02F06DFE034CFA
:1039B0000A3C608002F04FFE608010BDEA000020EB
:1039C00010B50248FEF7D9FD10BD00006C020020C2
:1039D000F8B51D4616460F460446FDF75FFE314614
:1039E00026464036009000291ED043E0681C1BD0BC
:1039F000002D05D0FDF752FE0099401AA84213D9B8
:103A000020684168E02291434160206802684021BB
:103A10008A43026023E021680A6882430A602168C1
:103A20000A6802430A601FE02068816838468843BC
:103A3000DCD124E0681C1DD0002D06D0FDF72EFE41
:103A400001460098081AA84214D920684268E0216B
:103A50008A4342602068016840229143016001204E
:103A6000A16A40038142D6D00120707400203074D6
:103A70000320F8BD2068816838468843DAD00020EA
:103A8000F8BD704710B50B48C2692032D0794107A4
:103A9000107C490FC3094407491CA40F00D001241E
:103AA000927CC006C918C00F09194000891808186F
:103AB00010BD00004800002010B5054A53890B8056
:103AC000002353810A880349FCF7CFFB10BD000097
:103AD00048000020C8030020F8B5CC4C0126204641
:103AE000C069627801463746C94D4031130001F084
:103AF000D4FB0CD0075290FBFAF9F8F7F6F5F4D0A6
:103B00002030007CC00601D54C2000E00C2008705D
:103B1000E12048700222402000F09CFF052000F0C8
:103B2000BDF9FF210131BB48FCF7B8FBB74838307D
:103B30004068FCF761FE07460091FFF7A3FFFCF722
:103B40005BFE0322FCF71CFE3A46009BFCF7A0FD3F
:103B50000022B14BFCF734FD02F0F6FA0022AF4B25
:103B6000FCF77CFCFCF78EFE80B24108081820624E
:103B70006062286820616061E069A02120304175A1
:103B8000352000F061FF0020A070E07020716071AE
:103B9000608102202FE100F0CDFE012805D1A07840
:103BA000002802D1A7702868606100F0B1FE0128EA
:103BB00015D1A078002812D0E07800280FD1E77046
:103BC00000F04AF96163206300F02AF9A06200F076
:103BD00057F9E07128682061606103206070A07867
:103BE000E17888430DD028686169401A616A88428B
:103BF00007D96770E069417B202001430D2000F068
:103C000023FFE078A1780843217908433FE00520AD
:103C1000F1E06189FF200130814201D90620EAE00C
:103C200000F06EFE01282DD16089617908430CD126
:103C3000E0692030017CC90905D0744801210A30AF
:103C400000F080FE01E0807C6081618960790A1A61
:103C5000E1692031497D8906890E8A420BDD6D4A72
:103C6000101800F06FFEE06961792030407D800619
:103C7000800E401805E0D1B2664A101800F062FECE
:103C8000A07A607100F034FE012803D0207900286A
:103C90002BD0B9E028682061618960790A46024327
:103CA0000425002A0ED1E0692030017CC90905D025
:103CB000564801210A3000F045FE01E0807C608119
:103CC000A17A6079534A091AC9B2101800F03AFE75
:103CD000A07A60712771657096E092E08DE05EE0F9
:103CE0003DE026E019E00CE006E028682169401A72
:103CF000216A88428BD887E00020607167700226B5
:103D000082E0002161716181417B202001430D200F
:103D100000F09AFE6770032676E0002161716181F0
:103D2000417B202001430D2000F08EFE67700626A7
:103D30006AE00F70202048700222402000F08AFEC6
:103D4000E069982120304175352000F07DFE032088
:103D500000F0A4F8082060700020A07154E000F08A
:103D6000E1FD012850D1E0692030007CC00904D079
:103D7000264801210C3000F097FEA089411E3F2902
:103D800000D920202070C1B2224800F08DFEA07919
:103D900021784018A0712868A06109202BE000F06C
:103DA000AFFD002814D1A189A0790A1A21788A428E
:103DB00007DD184A101800F077FEA0792178401826
:103DC00005E0D1B2134A101800F06EFE207BA071FE
:103DD00000F08EFD012806D12868A0610A206070DD
:103DE000012000F05BF82868A169401A7D21C90014
:103DF000884209D90B20607006E00020607004261C
:103E000002E00020607005263046F8BD4800002022
:103E1000DC000020C803002000408F400000F03F7D
:103E200010B50B4C0222E1691B201B3100F036FD5E
:103E3000E069017FC27E0802104340BAFCF7DCFC57
:103E40000022044BFCF7BCFBFCF7F8FC10BD0000A3
:103E50004800002080844E4010B5074C1120E169D5
:103E6000113100F015FDE069407CFCF7C5FC002233
:103E7000024BFCF7A5FB10BD480000200000E0BF8E
:103E800010B5054C0C20E1690C3100F001FDE06932
:103E9000007B400910BD00004800002070B50E4CAA
:103EA0000546E169002049784907490F21728D4292
:103EB00011D0032D00D10120617A884202D06072B6
:103EC00000F0F9FDE0694178C908C9002943417053
:103ED000012000F0B9FD70BD480000200149487084
:103EE000704700004800002010B5054C0A46A1812B
:103EF00001460448FCF7B9F90720607010BD0000C6
:103F000048000020C803002010B5054A1278002A96
:103F100002D000F03BF810BDFFF7CEFD10BD000051
:103F20004400002008B511490F4808601049086096
:103F300000F02AF800F00DFD6946062000F0A8FC0C
:103F400005E00CA001F070F96420FDF761FA684605
:103F500000786C28F5D10B490120087000F008FDAD
:103F600000F022F808BD0000580300206400002083
:103F7000B00000204861726420535049204572729D
:103F8000210D0A00440000207047000010B5044BCA
:103F9000DA880A800021D9800249FCF766F910BD51
:103FA000A0000020C804002070B5254D0020287016
:103FB00000F08EFA234C6F22611C012000F06EFC91
:103FC0002969202008736F22611C012000F042FD46
:103FD0002C462034206800F063FBA07900F0F0FB51
:103FE000E07900F07FFA207A00F02EFB607900F093
:103FF000CDFB607A00F090FA134800F00BFC207EB5
:1040000000F03CFB012000F09FFA10492068884234
:1040100007D9802000F0E4FA012000F0F5FA14201E
:1040200006E0002000F0DCFA002000F0EDFA0E209F
:10403000207100F059FB012000F0B2FA70BD0000C1
:10404000A000002058030020FF0300000057A61620
:10405000F8B5FF4C012620782546203500270300BF
:1040600001F01BF90BA9075097EEEDECEBA9EAE97B
:10407000A900012000F094FA20699D2141741120CB
:1040800000F0E2FCE87A012829D02069FF212030E5
:104090000171206920300179242000F0D5FC2169CC
:1040A0003F2047544020475402223F3100F0D2FCC9
:1040B000A87A012824D02069C17B41730D2000F02B
:1040C000C3FC052000F06CFAFF210131E148FCF748
:1040D000E5F868696061E0480068E06069E02169CE
:1040E000287B242250541C201C3100F0D1FB206975
:1040F000007F8006010ED948405800F0D1FAC8E789
:104100000620DFE700F0F4FB012818D1D248006850
:10411000E060E87A01280CD121691C201C3100F0F4
:10412000B7FB2069007F8006010ECC48405800F0A4
:10413000B7FA4021122000F087FC0320207000F025
:10414000E7FB012819D1C4480068E060E87A01283B
:104150000CD121691C201C3100F09AFB2069007FE2
:104160008006010EBD48405800F09AFA0221122044
:1041700000F06AFC00F09EF96070A87A01281AD15C
:10418000B5480068E168401A6169884213D9042083
:1041900010E021691220123100F07AFB2069807C46
:1041A000800609D52021122000F04EFCA87A0128B3
:1041B00000D00220207072E16946192000F068FBEF
:1041C00068460078010605D5C043401C0006800EF5
:1041D000404200E080082071A14928688842A14837
:1041E00020562ED2002818DAFCF7F2FA0646687933
:1041F0000F46C10099480022F038411803C99A4B74
:10420000FCF7DEF90022994BFCF728F90022984BC5
:10421000FCF724F932463B463DE021691A201A3169
:1042200000F036FB2069807EFCF7E6FA6A798B4B5A
:10423000D200A03B2DE024E1F7E0F0E0CCE079E013
:1042400074E0002818DAFCF7C3FA064668790F46CE
:10425000C10082480022F038411803C9824BFCF7A4
:10426000AFF90022814BFCF7F9F80022814BFCF7F3
:10427000F5F83B4632460EE021691A201A3100F06B
:1042800007FB2069807EFCF7B7FA6A79734BD2008E
:10429000503B9B180CCBFCF7E1F8E161A061A87AD8
:1042A000012820D021691020103100F0F1FA687A3D
:1042B00001282ED021691320133100F0E9FA20697A
:1042C000C17CE180017C41730D2000F0BDFB2069C1
:1042D000C17C604800F036FBA87A012800D002209B
:1042E00020700226DBE02069C17B41730D2000F0C5
:1042F000ABFB687A012808D021691320133100F044
:10430000C7FA2069C17CE180E3E720692030817829
:10431000F9E720692221095CE180017C41730D20CD
:1043200000F092FB206920308178D2E701202070D4
:104330000326B4E0012000F033F9E87A012838D0F0
:104340002069F721417420300771206920300179FC
:10435000242000F079FB2069417C112000F074FBDF
:104360002069217A20308170222000F06DFB2069C5
:10437000394687730E2000F067FB2069817B41730B
:104380000D2000F061FB206920308178314800F079
:104390008BFB216941223F20425440225254022289
:1043A00040203F3100F056FB032000F0F9F80620D2
:1043B00000E72169F52048742A7B242042541C2000
:1043C0001C3100F065FA2069007F8006010E234849
:1043D000405800F065F9B8E700F08AFA012805D1E5
:1043E0000821122000F030FB0720207000F090FA26
:1043F000012854D1E87A01280CD121691C201C31F4
:1044000000F046FA2069007F8006010E13484058EC
:1044100000F046F90221122000F016FB3FE00120D7
:1044200000F0BEF82770042639E0012000F0B8F84B
:104430002069FA214174112000F006FB21693F2018
:1044400047544020475402223F3100F003FB13E061
:10445000A0000020C8040020DC000020A86A00089A
:10446000008F4233040000000000244000C065C0FB
:104470000000104000001840072000F091F80A20CA
:1044800098E600F04FFA012809D10421122000F02B
:10449000DBFA00F04FFA012803D0277007263046D8
:1044A000F8BD0121122000F0CFFA0120207008266B
:1044B000F5E7000010B5054C0C2021690C3100F027
:1044C000E7F92069007B400910BD0000A000002032
:1044D00010B5034801694220413100F0D9F910BDFF
:1044E000A000002070B50A4D044629681D201D312A
:1044F00000F0CEF92A68F121507F0840610008439E
:10450000C1B251771D2000F09FFA0248C47170BDFE
:10451000B0000020C000002070B5094D0446296895
:104520001D201D3100F0B4F92868417F4908490079
:10453000214341771D2000F087FA0248447270BD84
:10454000B0000020C000002070B5094D0446296865
:104550002620263100F09CF92A68F7202032917934
:104560000140E00001439171262000F06DFA70BD1A
:10457000B000002070B5094D044629683120303163
:1045800000F086F92A682032107CC108C900214356
:104590001174312000F058FA70BD0000B000002006
:1045A00070B50E4C05462169002049784907490F2E
:1045B000A1708D4211D0032D00D10120E1788842F5
:1045C00002D0E07000F077FA20694178C908C9008C
:1045D00029434170012000F037FA70BDA00000208F
:1045E00070B5084D044629680920093100F050F9DA
:1045F0002868417A4906490E21434172092000F09A
:1046000023FA70BDB000002070B50E4C054621683D
:104610004D204C3100F03CF921680920093100F0AF
:1046200037F92168487AC0090AD0002D02D08722C4
:104630004C2042544031097B4D2000F005FA70BDFA
:104640008422F5E7B000002070B50A4D04462968C1
:104650001E201E3100F01CF92868FB22817F1140CA
:10466000A200114381771E2000F0EEF90248047287
:1046700070BD0000B0000020C000002010B504464E
:1046800005482146006820308470222000F0DCF9C3
:104690000248047610BD0000B0000020C0000020D9
:1046A00010B50D49096840180C490860FCF7A4F8DA
:1046B00000220B4BFBF7ECFFFCF7E4F80949020C76
:1046C00009688A71020ACA71087203220620891DCC
:1046D00000F0C0F910BD000038000020C00000202C
:1046E00080844E40B000002070B5234D04462968F8
:1046F0000920093100F0CCF829684D204C3100F038
:10470000C7F829687022487AC309002B26D04C23A9
:104710005D5C8723AB4303D0022C0DDA02240EE04C
:10472000052C01DA052402E0142C00DD14241043CA
:1047300000090001621F06E0112C00DD1124104366
:1047400000090001A21E1207120F10434872C1B2E5
:10475000092000F079F90948047170BD0023DB439A
:104760009C4201DA1C4602E00E2C00DD0E241043B0
:1047700000090001621CE6E7B0000020C000002034
:104780000149087070470000A000002070B50A4D74
:10479000044629681D201D3100F07AF8286822019E
:1047A000417F0907090F1143C9B241771D2000F06D
:1047B0004BF90248447170BDB0000020C0000020D9
:1047C00070B504460C2801D90C2405E0062C01D252
:1047D000062418E0062C16D00320FFF7CBFE0B4D65
:1047E0001E2029681E3100F053F828682201817FBD
:1047F0000907090F1143C9B281771E2000F024F97F
:104800000348847170BD0520E7E70000B000002078
:10481000C000002070B50B4D0446296802221E20FE
:104820001E3100F03BF82968A205887F920F8008AE
:10483000800010438877CC7702221E201E3100F0C2
:1048400009F970BDB000002010B5084A074CD27AB3
:10485000203C002A00D0FF2121818AB20146044871
:10486000FBF703FD0520207010BD0000C0000020F4
:10487000C804002010B505480078002802D0FFF7D2
:10488000E7FB10BDFFF728F910BD00004400002031
:1048900010B5012200F002F810BD0000F7B582B09B
:1048A0004006400E6946087001250E4E1446ED0282
:1048B000002229463046FCF7EAFE0B4F01223B4618
:1048C00069460A48FEF72AF83B46224607480399FC
:1048D000FDF73AFF012229463046FCF7D8FE05B025
:1048E000F0BD000000040050FFFF00006C0200203B
:1048F00010B504210148FCF7C5FE10BD00040050AE
:1049000010B540210148FCF7BDFE10BD0008005065
:1049100010B5012189020248FCF7B4FE10BD000069
:104920000004005010B508210148FCF7ABFE10BD93
:104930000008005010B510210148FCF7A3FE10BD7F
:10494000000800500A4610B501460020FFF7A6FFF8
:1049500010BD10B5012000F04BF80120FCF758FD08
:10496000002000F045F80620FCF752FD10BD0000C5
:1049700070B51C494A78824232D048701A4D1B4C9F
:104980000870002819D00020FFF70AFE286880224E
:10499000417811434170012000F056F80120FFF7E3
:1049A000FFFD296800203F2250544022505402222B
:1049B00040203F3100F04EF80DE00020FFF7F0FD01
:1049C000286841784906490E4170012000F03CF802
:1049D0000120FFF7E5FD6F22611C0120FFF75EFF5C
:1049E00070BD000044000020B000002058030020EB
:1049F00010B5054B012805D0012202211846FCF70D
:104A000046FE10BD0022F8E70004005010B5054A2C
:104A10001278002A02D0FFF717FF10BDFFF764FAE3
:104A200010BD00004400002010B5064800780028A2
:104A300003D00120FFF7A4FE10BD0120FFF74EFABE
:104A400010BD00004400002013B5012201A900F0B0
:104A500001F81CBDF7B5802182B008436946087093
:104A600001250E4E1446ED02002229463046FCF781
:104A70000EFE0B4F01223B4669460A48FDF74EFFEA
:104A80003B46224607480399FDF748FF0122294685
:104A90003046FCF7FCFD05B0F0BD000000040050FE
:104AA000FFFF00006C0200200A4610B501460020FE
:104AB000FFF7D0FF10BD704710B5FCF72FFEFEF7D3
:104AC00057F910BD10B521489AB001680322D202EF
:104AD0009143C2148918016009200090500101908F
:104AE00001200024059009946846FDF705F9002887
:104AF00000D0FEE70F200D9002200E900F9410942E
:104B0000002111940DA8FCF7E1FF002800D0FEE77A
:104B10002220129004201590C003139012A8FCF7D5
:104B200023FF002800D0FEE7FDF784F87D21C900AF
:104B3000FBF7DEFAFEF704F90420FEF7F3F8002293
:104B40001146501EFCF746FE1AB010BD0070004022
:104B500010480168821511430160C1680E4A114076
:104B6000C16001680D4A114001608168490849002F
:104B7000816001680122920491430160C168FD22B5
:104B800012049143C160002101610549C00388609E
:104B900070470000001002400C40FF88F6FFF6FE50
:104BA00000ED00E0F0B587B03748FEF7E6F837488B
:104BB000FDF7CAFC0520002202210007FCF767FD73
:104BC000334CE06A01210843E062E06A0840059046
:104BD000E06A02263043E062E06A30400590E06A15
:104BE00004210843E062E06A08400590E06A082773
:104BF0003843E062E06A38400590E06A802108436B
:104C0000E062E06A002508400590224800900320F9
:104C100001900520694602950007FCF777FC69467C
:104C20001D48FCF773FC69461C48FCF76FFC69469D
:104C30001B48FCF76BFC69461A48FCF767FCE06A06
:104C400040084000E062E06AB043E062E16A0420AC
:104C50008143E162E06AB843E062E16A8020814317
:104C6000E1621149114822C07F2101608560C56061
:104C70000561FF21456141600838FDF70BFB002805
:104C800000D0FEE707B0F0BDD00200206C0200208B
:104C900000100240FFFF0000000400500008005018
:104CA000000C0050001C005000280040480200206A
:104CB00010B5818CC90707D001684A6801235B04DD
:104CC0009A43836A1A434A60818C890707D5016831
:104CD0004A6801231B049A43C36A1A434A60818CC1
:104CE000490707D501684A6801239B049A43036B6F
:104CF0001A434A60818C090707D501684A68012375
:104D0000DB039A43436B1A434A60818CC90607D57B
:104D10000268916801231B039943836B19439160D7
:104D2000818C890607D501688A6801235B039A4351
:104D3000C36B1A438A60818C490612D503685A688E
:104D400001210905046C8A4322435A60026C8A429D
:104D500007D10268516803235B059943436C1943EB
:104D60005160818C090607D501684A680123DB047C
:104D7000806C9A4302434A6010BD0000F8B50026DB
:104D80000446C666FCF78AFC054620680068124F98
:104D9000000709D501212B4600224905204600972E
:104DA00000F0B5F900280DD12068006840070BD548
:104DB00001212B46002289052046009700F0A7F923
:104DC000002801D00320F8BD202060346072A0725A
:104DD00026720020F8BD0000FFFFFF0110B5806AB9
:104DE0000022014640314A834A82FDF7E5FF10BDAB
:104DF00001680A68FF2321339A430A6001688A68C0
:104E0000520852008A60202160308172704770B56C
:104E10000246403201466031938B8D7A0C46016820
:104E2000222D05D08869082210438861022070BDB8
:104E3000496A01268568360389B2B54202D10569FF
:104E4000002D0BD01940436D5D1C45651970518BC9
:104E5000491E0904090C518307D015E0456D19401E
:104E60002980416D891C4165F1E701680A68FF23CB
:104E700021339A430A6001688A68520852008A60A6
:104E80002021A172FEF704F9002070BDFEB5044692
:104E9000016880682269E36910436269102700266F
:104EA0001A4310430A683546754B1A4002430A609C
:104EB00020684168032212039143E2681143416074
:104EC000704A2168A069914201D0226A10438A6821
:104ED0000B231B029A4302438A606B4A21686B488A
:104EE00091420CD1C0688007800F06D001283DD0C8
:104EF000022839D0032820D11EE001271DE0644A92
:104F000091420AD1C0680C2108402BD004282DD032
:104F1000082829D00C2810D10EE05A4A91420CD111
:104F2000C1680320800201401CD01015091A1DD051
:104F3000091A19D0814200D108270220FCF778FC19
:104F40000190504B514922684039D81300929A423F
:104F500035D1002F0CD0022F0DD0042F12D0082FE6
:104F60001CD113E00027E8E70227E6E70427E4E77F
:104F7000FCF766FE08E00868C00601D5454805E074
:104F8000454803E0FCF77CFE002873D062685100BE
:104F90005118814202D81103814201D2012569E0F2
:104FA000010E06025008002330185941FBF7CAF8D9
:104FB00003210902394A411A914259D9EEE7E269BF
:104FC00082422DD13B0000F068F90906080B241934
:104FD0002424241F2400019812E0FCF741FE0FE076
:104FE00008686168C00602D548082D4A01E02D4ACC
:104FF00048088018FBF77CF886B20BE0FCF740FE0F
:10500000616840004A08F4E7616801224808120418
:10501000EFE70125310909013007400F084327E078
:105020003B0000F03AF909070A0D061D060606299D
:105030000600B3E7FCF704FE14E0FCF711FE11E0F4
:1050400008686168C00602D54A08124801E01248A3
:105050004A081018FBF74CF881B20098C16009E0CB
:10506000FCF70EFE61684A088018FBF741F880B231
:105070002168C8602846FEBD61684A08E9E700006B
:10508000F369FFEF00480040003801404010024043
:105090000044004000093D000024F400FFFC0F0024
:1050A00000127A000048E8016921095C212901D039
:1050B0000220704702464032518A002912D0012353
:1050C00081681B03994202D10169002915D0C16C86
:1050D0004B1CC364006809788162508A401E50826C
:1050E0000020704701680A6880239A430A600068BC
:1050F0000168402211430160F2E7C16C036809882E
:10510000C905C90D9962C16C891CC164E5E7FFB589
:1051100081B017460E4604460A9D1DE0681C1BD050
:10512000002D05D0FCF7BAFA0499401AA84213D909
:1051300020680168FF22A1329143016020688168E4
:10514000490849008160202060346072A07200200C
:105150002072032005B0F0BD2068C1693046884345
:1051600004D00020B842D9D00020F3E70120F9E7AD
:1051700010B50248FDF722FE10BD0000D00200204D
:1051800010B5182000F00CF80621702000F03AF855
:10519000182000F005F82221702000F033F810BD2F
:1051A00010B50446FEF764F82046FEF7A5F800287F
:1051B00003D10120FEF72CF80446FEF707F8FEF7AE
:1051C00079F8204610BD000010B51820FFF7E8FF61
:1051D0007320FFF7E5FF04461820FFF7E1FF712079
:1051E000FFF7DEFF2102064C081820801820FFF789
:1051F000D7FF2221702000F005F8208810BD0000A4
:105200000800002070B50D460446FEF731F8204630
:10521000FEF7DCF8002802D12846FEF7D7F8FEF7A3
:1052200049F870BDFEE7000010B5024A024900F0DF
:1052300050F810BD995A0008400100202021020CAE
:1052400001D010211046020A01D010460839020987
:1052500001D01046091F820801D01046891E42085D
:1052600001D0881E7047081A7047F8B504148BB235
:10527000264682B25E430D14104637145843360456
:1052800080190021794116466E433714360480197F
:10529000794126466E438919F8BD30B47446641EC0
:1052A0002578641CAB4200D21D46635D5B00E318A9
:1052B00030BC184702E008C8121F08C1002AFAD102
:1052C00070477047002001E001C1121F002AFBD186
:1052D0007047F8B516460F460446002503E03946E8
:1052E000B047641C6D1C20780028F8D12846F8BD12
:1052F0007CB50D46064613A103C92C460191203406
:105300000090607E6946A27E085C8A5C1018227E4E
:10531000895C08180D4948430C49373940180C4935
:1053200040187D21FF30C900F530FAF7E1FE401C3E
:1053300080B23080A17F002903D0403569884018B1
:1053400030807CBD0001020408100000AB070000A3
:1053500051090000FFB5064681B01C46184600F012
:1053600011FE050016D1A078002807D1214630464D
:1053700001F089F8050001D180200643A76C607810
:105380003146039B029AB84740342075002801D06B
:105390000125ED43284605B0F0BD70B505460C4625
:1053A000084600F0EFFD00280ED12146284600F007
:1053B0000BFE002808D1297840340906002901DABB
:1053C000012100E00021617170BD10B5044600F0BC
:1053D000D9FD002811D1204600F0D8F900280CD1C1
:1053E000234601221946D020FFF7B4FF002804D13C
:1053F0002078612802D00220C04310BD204600F072
:1054000077FB10BD10B51648002141708170154919
:1054100081641549C1641549016519210171FFF7BE
:10542000D4FF0F491248FFF763FF0D4802212030D7
:1054300001760322827604224276C17601218177A9
:10544000FF22413220300280962242800171DF200B
:10545000034900F093F8024800F054F810BD000032
:105460004C010020F5670008456800081114000889
:1054700000000020FFB58BB01D4617462821684666
:10548000FAF70CFF284600F07DFD060037D1002F0B
:1054900033D0142F31D200240FE0A87800280B98C5
:1054A00010D0015D6200684681540C986200015D75
:1054B00068461018641C4170A4B2BC42EDD3002EA3
:1054C0000AD01CE0005D294600F0DDFF06460B987F
:1054D000005D4106490EE5E77800401E83B268464C
:1054E000017800AAEC6C68780132A0474035287535
:1054F000002804D00126F64301E00326F643304697
:105500000FB0F0BD7CB504467420694608710025D3
:10551000204600F037FD00281DD1234601226946B0
:105520007420FFF717FF002816D0002DF5D1442175
:10553000095D00290FD06B461A78890792089200FE
:10554000890F0A431A70002805D1234601226946B3
:1055500001A8FFF78FFF7CBD694609788D07AD0F65
:10556000E5D088088000694608702346012201A81A
:10557000FFF780FF216D0A208847CEE7F0B589B09C
:105580000646002768460770084640300197029794
:1055900003970497059000790D4606903C462846EF
:1055A00000F0F0FC00287DD1310702D5284600F03C
:1055B00033FF059900280F7102D12846FFF7A2FF9B
:1055C0002F46F106203700291CDA28462B460722F1
:1055D00000213B3000F003F97524002805D12B464B
:1055E000012269462046FFF7B5FE6A461178E3229C
:1055F0001140FA7E5207D20E11436A46117014719F
:1056000011730124B10620D528462B46082200211B
:105610003D3000F0E4F870210791002805D12B46B9
:10562000012269460798FFF795FE6A461178F7222E
:1056300011407A7F08231A4011436A46117001AB6A
:10564000079A1A5503AA1155641CB10731D0284690
:105650002B4605220021393000F0C1F87421079152
:10566000002805D12B46012269460798FFF772FEF4
:10567000F10708D06A4611787A7EC906C90E520130
:1056800011436A461170B10709D56A461178E322C1
:105690001140BA7E5207D20E11436A46117001AA18
:1056A000079900E070E0115569460A7803A90A5588
:1056B000641C710720D528462B460522002138306E
:1056C00000F08DF872210791002805D12B460122A8
:1056D00069460798FFF73EFE6A4611783A7EC90888
:1056E0005207C900520F11436A46117001AB079A65
:1056F0001A5503AA1155641C3106890F39D0284662
:105700002B46012200213E3000F069F8002806D126
:1057100028462B460A2200213C3000F060F8712117
:105720000791002805D12B46012269460798FFF70B
:1057300011FE710609D56A461178EF221140BA7F31
:10574000D207D20E11436A461170310609D56A4656
:1057500011783A7F090909011207120F11436A46AD
:10576000117001AA0799115569460A7803A90A55CB
:10577000641C002805D12B46224603A901A8FFF787
:1057800079FE0599069A0A7109B0F0BD7CB5054607
:10579000E02168460170B6210171284600F0F2FB55
:1057A00004001AD1A878002804D1284600F05FFA36
:1057B000040012D12B46012201A96846FFF75AFEC8
:1057C0000446296D0A208847002C06D1A8780028B5
:1057D00003D1284600F04BFA044620467CBD30B584
:1057E0000024002811D0057840338D4204D2017086
:1057F00099790125294399710178914207D902705D
:10580000987902210843987101E00024E44320467E
:1058100030BD0000F0B5A1B015460C46064640224A
:105820001F496846FAF721FD1D494022403110A862
:10583000FAF71BFD362028560521FFF716FD194BF8
:105840000022C0185141A7006A460025D2592B46B4
:10585000FAF7CEFC030C0A040814740CF10313438A
:10586000C9184441FF2636066A1E8E19544110A9F4
:10587000CA59294615461A4603462846FAF7B8FC7F
:10588000CA05400A10434A12E10773080B4361102E
:105890001818514132462346FAF784FC21B0F0BD76
:1058A000146900083C05000070B50546FF209130E2
:1058B0000C46854200D90546042014212056615625
:1058C00048437D21C900FAF729FC06021220205E18
:1058D000174940186843810040186421FAF71EFCFC
:1058E0001921490440180A21FAF718FC11216156C0
:1058F0003122120189184843C10F08182034217D34
:1059000040108019091DFAF709FC15216156832200
:105910005143012212048918FAF700FC2221FA38B7
:10592000484364213230FAF7F9FBC0B270BD000081
:1059300099590200F8B50646086B0C4681004018DC
:10594000803005120C20205664216843FAF7E6FBEC
:10595000218940100901711A0E1A0D202056642168
:105960006843FAF7DBFB07460E20205664216843A4
:10597000FAF7D4FB684380116421FAF7CFFB0121C9
:105980003818890340186189484380124643E07BF8
:105990006421C701102020566843FAF7BFFBB113FA
:1059A000C0194943001189124843401030187D2125
:1059B0008012C900484305490013884201DD0846AA
:1059C000F8BD0028FCDA0020F8BD0000A086010028
:1059D00070B50C46096B7D2249105202891A254682
:1059E0008A10203506265243AE57D312734324261D
:1059F000A65F9B104E437600F318668C9B1036040E
:105A00009B190026AE57521376017243D6101E2200
:105A1000A25E4A435110711801268914A28BF60325
:105A200089194A43D1137201101A1A13801A134AA2
:105A300050439207904203DBFAF770FB400002E00C
:105A40004000FAF76BFBC1102A224943A25E4913BA
:105A5000514328230A13E35E811059434B132C7BD7
:105A600001124C4349434C436114D2185118072288
:105A7000AA56D20189180911081870BD350C00000A
:105A8000002206E00021491CC9B23229FBD3521C76
:105A9000D2B28242F6DB70477047000010B5002892
:105AA00023D0124B0022001F196803E0814203D863
:105AB0000A4649680029F9D1002A0AD01368841AD5
:105AC0009C4204D1006818181060104602E0506033
:105AD00000E01860002907D002680B1A934203D136
:105AE0000B68D21802604968416010BD4401002073
:105AF00030B58DB004462C2101A8FAF7CFFB002069
:105B000069460870204600F03DFA00287ED1234601
:105B1000192201A98920FFF71DFC002806D107A939
:105B2000234610220131E120FFF714FC08A98A79ED
:105B30004B7911021943E18269468B794A7919063A
:105B40000914114321836946C979A17669468A7A85
:105B50004B7A11021943A18369460B7BCA7A190655
:105B600009141143E18369462546497B2035297094
:105B700069460B7CCA7B1906091411436184694686
:105B80008B7C4A7C190609141143A1846946097D5E
:105B9000A9716946C97CE97169460B7ECA7D1906FF
:105BA00009141143218569468B7E4A7E1906091422
:105BB000114361856946C97E29736946C97F0A0117
:105BC0006946897F0907090F0A4322816946497F8F
:105BD0000A016946897F09090A43628108A909788F
:105BE000217308A94978617308A98978A17308A964
:105BF000C978E17308A90979217408A9497A6174FF
:105C000008A90B7ACA791906091400E02DE011439E
:105C1000618208A9897A217500281CD123460122B6
:105C200069460220FFF796FB694609788906890FC5
:105C3000297500280FD1234601226946FFF78AFB08
:105C4000694609786975002805D12346012269460D
:105C50000420FFF77FFB6946097849B20909090169
:105C6000CA17120F51180911A9750DB030BDF8B53A
:105C7000044600F087F9050010D10123A66C607876
:105C80006A46F321B04754210855002801D0AD1EC3
:105C900004E06846007810210840E0702846F8BD0E
:105CA00010B51AA000F07EF91B4C2069C00102D586
:105CB0001AA000F077F92069800102D519A000F040
:105CC00071F92069400102D519A000F06BF9206933
:105CD000C00002D519A000F065F92069800002D546
:105CE00018A000F05FF92069400002D517A000F06D
:105CF00059F92069002802DA16A000F053F920694A
:105D00000121C9050843206110BD00005245535FC1
:105D1000524541534F4E3A004010024048575245B9
:105D20004E0A0000424954505245540A00000000F7
:105D30005253545F4B45590A000000005346540A21
:105D400000000000495744470A00000057574447E5
:105D50000A0000004C5057520A000000020E0A7060
:105D6000020C4A70020A8A70C87004207047000052
:105D7000FBF7DCFCFEF7A6FEFDF7AEFBFDF7A2FC91
:105D8000FDF74CFCFDF76AFBFDF7C8FCFDF714FCC2
:105D9000FDF732FC0520002202210007FBF777FC0B
:105DA000534DA86B29040843A8635248FCF79AF99D
:105DB000FFF776FF7D200001FBF72AFB4E48FBF73B
:105DC000A5FC4E4F4E4CFBF711FDFBF707FDE868B5
:105DD0000121C9030843E8607D26F6003046FBF741
:105DE00017FB0520012202210007FBF750FC0122CE
:105DF00011464448FBF74BFC3046FBF709FB0122F8
:105E000041494248FDF7F4F83B48FBF77FFCFFF7B8
:105E1000F9FAFAF7A3FFFAF73FFFFDF741FD6060DB
:105E20000068804700202070A060E060FFF7A8F9BC
:105E3000FDF7B4FDFBF762F800F02AFD344BA068D3
:105E400019186069FFF78AFFA16840181918A06047
:105E5000A069FFF783FFA16840181918A060E069E6
:105E6000FFF77CFFA16840181918A060206AFFF7AF
:105E700075FFA1684018218D19542169401C0A0E34
:105E80001A540A0C1E1872700A0AB270F1706188F6
:105E9000001D0A0A1A541A1851701E49801C0A88DB
:105EA000110A195419184A703A88001D160A8E7082
:105EB000CA701918A060606AFFF750FFA168401807
:105EC000A0600D48FBF722FC6068202102691048A1
:105ED0009047012602E0FAF701FFE660606840693A
:105EE00080470428F7D0E0680128F7D16BE700006D
:105EF000001002404802002038020020E400002088
:105F00000C000020000400503C000020D0020020C3
:105F1000B8010020E6000020F0B50B30C108C90030
:105F2000144F0026144A0FE003688B420BD38B42B8
:105F300005D95C1A4318456830C3083B00E0436844
:105F4000136002C004E0021D10680028ECD1304646
:105F5000002803D13868002801D00020F0BD064A8F
:105F600006481060064A121AD208D20044C0012026
:105F70003860D7E74801002044010020FC050020DC
:105F8000F807002000280AD0816C002907D0C16CD6
:105F9000002904D0006D002801D0002070470020A7
:105FA000C043704710B50022815C002902D0521C0A
:105FB0000A2AF9DB014692B264230248FDF7A0F8F1
:105FC00010BD0000D0020020F0B5044691B00020C2
:105FD00001900290039004900D460A260846FFF7B0
:105FE000D1FF0746002F7CD12B460F2201A91D208F
:105FF000FFF7B0F9074669460879C209D201227055
:10600000087994460007000F60704879A07088797D
:10601000C9790003090108436946097A0909084357
:1060200069460F90487A897A000309010843694656
:10603000C97A090908436946898949BA0E916946AE
:10604000497C8A006946897C8B091A4306920A07B3
:10605000120F05922023624619400A4322706946B6
:10606000897C102319400A432270110646D5E98A1B
:10607000C0104900421AD317182007930092285ED7
:10608000C117FAF7B5F84A05C10A11430A91079BEF
:10609000009AD90750080843591002460B46FAF7F0
:1060A000A7F8020B1A200B0528561A430B13000100
:1060B000C117FAF79DF88904800B08430A9908185C
:1060C00081002863401801210002C9034018001410
:1060D000A08029460F98FFF77BFCA06029460E9808
:1060E00000E00EE0FFF726FCE0602A4605990698DE
:1060F000FFF790FB2061002E08D008E0296D0A20F0
:106100008847761E3606360E00D06BE702273846E3
:1061100011B0F0BD70B50B4C054620780026F64353
:10612000012806D1204629891C3000F05DFA00289C
:1061300001D0304670BD284600F024FB00202070BE
:1061400070BD0000C8050020F0B513B406460199E3
:10615000FAF7CEFC04460D4602460B46304601993E
:10616000FAF720FA064601981B4B0F4600280CDA76
:1061700000223046FAF7B8FB0CD90022174B304604
:106180003946FAF7F3FC1DD214E000223046FAF744
:10619000ABFB08D20022124B20462946FAF702FA3E
:1061A00004460D460EE000220C4B30463946FAF705
:1061B000DDFC07D800220A4B20462946FAF74EF9A3
:1061C00004460D46019A69004908D20FD2072046BD
:1061D000114303B0F0BD00000000E0BF0000E03F4D
:1061E0000000F03F10B5012220210248FBF74FFAD2
:1061F00010BD00000004005010B50022202102480C
:10620000FBF745FA10BD00000004005010B5012254
:1062100040210248FBF73BFA10BD0000000400508B
:1062200010B5002240210248FBF731FA10BD0000F2
:106230000004005010B540210148FBF723FA10BDBF
:106240000004005010B5144600F007F8A04202D038
:106250000020C04310BD002010BD70B50546FF20D2
:10626000002231240FE0AB5C58400823060602D51B
:106270004000604000E040005B1E1B06C0B21B0EE9
:10628000F4D1521C92B28A42EDD370BD7047F8B57A
:1062900016460F46044600F047F86000401CC0B2A6
:1062A00000F081F8050009D1002405E0012000F08C
:1062B00009F83855641CA4B2B442F7D300F042F890
:1062C0002846F8BD70B506460025FFF79FFFFDF78D
:1062D00013FB0724052000F098F8FFF783FFFFF772
:1062E000A9FF002800D00120A0402843C5B2FFF735
:1062F00083FF641E64B2002CECDAFDF71FFB002E56
:1063000002D0FFF78DFF01E0FFF780FF052000F0CE
:106310007CF8FFF767FF052000F077F8FFF76CFFC8
:10632000FFF774FF284670BD10B5FDF707FBFFF7B8
:1063300077FF052000F069F8FFF75EFF052000F009
:1063400064F810BD10B5FDF7F9FAFFF769FF0520F5
:1063500000F05BF8FFF746FF052000F056F8FFF766
:1063600055FF052000F051F810BDF8B516460F4650
:106370000446FFF7D9FF6006000E00F014F8050090
:106380000DD1002409E0385D00F00DF8050002D0C1
:10639000FFF7D8FF03E0641CA4B2B442F3D3FFF7C5
:1063A000D1FF2846F8BD70B50546FDF7C7FA0724AA
:1063B000FFF722FF2846E040C00702D0FFF726FF84
:1063C00001E0FFF72DFF052000F01FF8FFF70AFF9F
:1063D000052000F01AF8641E64B2002CE8DAFFF71A
:1063E0000BFFFFF713FF052000F00FF8FDF784FA0D
:1063F000FFF7F8FEFFF71EFF002801D0012400E0A0
:106400000024FFF7F9FE204670BD4621484300E016
:10641000401E0028FCD170477CB50446FFF7B2FD52
:10642000002808D100262546009640350196287997
:10643000012801D001207CBD5A21684601702888BE
:106440002146FFF731FA0146684601716421417027
:1064500068883F2200219201904204D3FF2007E088
:106460008008491CC9B23F28FAD889010818C0B26F
:10647000694648713C2006552346022201A9684618
:10648000FEF7F8FF7CBDF8B506460C460846FFF758
:1064900079FD050029D17F2E00D900E01020E17898
:1064A000814222D0E0700123A66C60786A46F32115
:1064B000B047264640360127FF433075002801D0FB
:1064C0003D4612E068460078EF210840E17810224E
:1064D00011400143684601706078E46C01236A460C
:1064E0007321A04730750028EAD12846F8BD000086
:1064F000FCB50021C94300888E460102000A014311
:106500001E4889B201821E4A002382612FE0006882
:106510009A0084580846E02528400F0B019000227D
:106520003F03C806C00E0090A5891CE0A668500075
:10653000305A060B36038446BE4212D1CE0510D423
:106540000646E0200640019886420AD16046C00611
:10655000009EC00EB04204D80848846100208646E0
:1065600003E0521C12B29542E0DC5B1C1BB20548F2
:1065700082889A42CBDC7046FCBD0000C805002032
:10658000786B0008A86D000810B50446022000F0E2
:10659000D5F80021C943401C09D00648828B2280CF
:1065A000C08B60802068002801D0002010BD084604
:1065B00010BD0000C805002030B50A4A04469369A2
:1065C000002001469A8807E018688D004059857AB6
:1065D000A54203D0491CC9B28A42F5D88A4200D1EB
:1065E000002030BDC8050020F3B54800081885B06C
:1065F00087B26E463A4631465820FFF748FE0028DB
:106600001BD10024254613E0301903908278022123
:10661000FFF718FE401C10D00598315D41550398D6
:10662000E41C41780598A4B24019AD1C4170ADB28C
:10663000BC42E9D3002007B0F0BD0020C043FAE718
:1066400010B5014602225820FFF78FFE002801D026
:106650000020C04310BD10B5002000F06FF810BD41
:1066600070B505460C46012000F068F8401C06D0C5
:106670000448818B2980C08B2080002070BD0020C1
:10668000C04370BDC805002070B5054608480C46DB
:10669000007800F053F8401C06D00648818B298012
:1066A000C08B2080002070BD0020C04370BD000062
:1066B000886B0008C8050020F8B51E4C0020254650
:1066C0001C3D2870FFF7E2FD2088227901020004BA
:1066D000000E014320681204000C10430202000463
:1066E000000E0243090490B2014360680A0400BA34
:1066F000000C090C1043E960A8607D260E48F600E6
:106700000125FFF79DFFAF1E401C11D03046FFF75B
:106710007CFE29462046FFF767FF401C08D0204634
:10672000FFF7E6FE401C03D0002000F007F8F8BD9C
:106730003846F8BDE4050020746B000870B5FFF71B
:106740003BFF0025ED43002817D0066804460C30B7
:10675000761DFFF775FF401C0FD03046FFF755FE42
:106760002089002807D00649012008702046FFF73D
:10677000D1FC401C01D0002070BD284670BD000037
:10678000C8050020F8B5048906466000FFF7C4FB81
:106790000746002006E0164A41008A18928B401CEA
:1067A0007A5200B2A042F6DB3089401E04B20025C6
:1067B00017E030897168001B8000001F09586000D5
:1067C000385A09680202000A024390B2002900D038
:1067D000884707496A005118641E6D1C888324B2DB
:1067E0002DB2002CE5DA3846FFF758F9F8BD000065
:1067F000C8050020F8B580200143684601700125D6
:106800000E4E17462D031C46002229463046FAF745
:106810003EFF6423012269460948FCF77FF86423A0
:10682000224639460648FBF78FFF44B2012229462B
:106830003046FAF72CFF2046F8BD00000004005057
:106840006C020020F8B56846017001250E4E17460F
:106850002D031C46002229463046FAF718FF642310
:10686000012269460948FCF759F864232246394653
:106870000648FCF753F844B2012229463046FAF79D
:1068800006FF2046F8BD0000000400506C02002006
:1068900070B500241648FAF741FD1548FAF7DCFBFD
:1068A000144D02E0641CAC4220DCFF211048FAF7D2
:1068B000D5FC0028F6D10E48FAF7CEFBF9F776FFA3
:1068C000F9F7FEFF00220C4BF9F7E2FE0B4A0C4BE6
:1068D000F9F776FE00220B4BF9F772FE0A4A0B4BD2
:1068E000F9F7BCFDFAF714F80949486270BD0000D9
:1068F000D801002010270000E0FFEF40CDCCCCCC29
:10690000CCCCFC3F008051409A9999999999C93F04
:106910000C000020FFFFFF7FFFFFFF7FFFFFFF7FD7
:10692000FFFFFF7FFFFFFF7FEA51B87EFFFFFF7F82
:1069300021DBF97EFFFFFF7FFFFFFF7FC776BE7F72
:10694000F4285C7FFFFFFF7FEA51B87EFFFFFF7FE7
:10695000FFFFFF7F000024F40000127A0000093DD1
:106960000080841EFF583E0F548C93070090D00384
:106970001038EC019062F40000127A0000093D002A
:1069800080841E0040420F0020A1070090D0030029
:1069900048E80100000000000000000001020304BC
:1069A00006070809030406080C1018203000000030
:1069B0000001020304000000417574196F240F40A8
:1069C0002EBAACDA271210404032C4C178C610404B
:1069D000661330AC68461140E029CEF6B9FA114092
:1069E0000101CEFEA97A12408021D82BFB2E134044
:1069F0002019E2603C631440C010EC957D9715406F
:106A00006008F6CABECB164000000000006063C0FC
:106A100000000000006063C000000000006063C070
:106A200000000000006063C000000000006063C060
:106A300000000000006063C000000000006063C050
:106A400000000000006063C000000000006063C040
:106A500000000000006063C00000000000C062C0D1
:106A60000000000000C062C00000000000C062C062
:106A70000000000000C062C00000000000C062C052
:106A80000000000000C062C00000000000C062C042
:106A90000000000000C062C00000000000C062C032
:106AA0000000000000C062C020AEA036E07D0B37C1
:106AB000A017083660F0AF3660F0AF36403D2E3696
:106AC000C0AFD235000D993620A5633680A331378B
:106AD0004061223760DE353640466B36A032BF3625
:106AE000A032BF36A00ECB35E0625436A044393711
:106AF000A00ECB35809AF436001F1337E050DA35FC
:106B000040466B36809AF43680A33137807F3D361D
:106B10000016D636A03BFC36C0C14C36809AF436FF
:106B200060DE353680A33137809AF4368091B736EF
:106B300060022A3700FB1E3660F0AF36A0443937BA
:106B4000209C2636000D993660D5F835000D993613
:106B5000C0AFD2354034F135C0CA893640466B36B5
:106B6000C0B80F36807F3D36A044393760022A37DF
:106B7000C0C14C36202F2032000000000000000071
:106B800000000000000000000A00000000000000FB
:106B9000657468616E6F6C5F7369676E616C00002D
:106BA00000000000000000000000000000000000E5
:106BB0000000000068325F7369676E616C0000005E
:106BC00000000000000000000000000000000000C5
:106BD000000000000000000074564F430000000059
:106BE00000000000000000000000000000000000A5
:106BF000000000000000000000000000636F325F32
:106C000065710000000000000000000000000000AE
:106C10000000000000000000000000000000000074
:106C2000626173656C696E653100000000000000F0
:106C30000000000000000000000000000000000054
:106C400000000000626173656C696E6532000000CF
:106C50000000000000000000000000000000000034
:106C600000000000102700000000000000000000ED
:106C700020036961715F696E6974000000000000A3
:106C80000000000000000000000000000000000004
:106C90000000000050C30000F000002002000100CE
:106CA00020086961715F6D65617375726500000030
:106CB00000000000000000000000000000000000D4
:106CC0000000000010270000F80000200200020071
:106CD00020156961715F6765745F626173656C69D6
:106CE0006E650000000000000000000000000000D1
:106CF000000000001027000000000000000003005A
:106D0000201E6961715F7365745F626173656C6990
:106D10006E650000000000000000000000000000A0
:106D200000000000400D03000001002002000A00E6
:106D300020506D6561737572655F7369676E616C14
:106D400073000000000000000000000000000000D0
:106D500000000000102700000000000000000C00F0
:106D600020617365745F6162736F6C7574655F68D1
:106D7000756D69646974790000000000000000000E
:106D800000000000090020000801002005000000AC
:106D9000846D0008010000001C01002006000000B6
:106DA000866D000801000000340100200200000090
:106DB000D06D0008000000204C010000B80B000856
:106DC000406E00084C010020AC0A0000C4520008CC
:106DD000013845C0FC9B015480841E62203B0101A8
:106DE00016012A278025DB3380252350C332141453
:106DF000A086011CF04902490A23FF522809801A83
:106E00007018140807022532045A640459900111BD
:106E100013D46B1B08F804131C6C1B0840041A8C59
:106E20000C1AB0041A640C1A94041AC4041AF40458
:106E30000B14246D141A54041A98041A88040110AF
:04000005080000C12E
:00000001FF
