:020000040800F2
:10000000900D002001010008635200080B01000858
:1000100061520008F1140008C573000800000000D8
:10002000000000000000000000000000A55B0008C8
:1000300075240008000000000D5600083F6D000800
:100040001B0100081B0100081B0100081B01000820
:100050001B0100081B0100081B0100081B01000810
:100060001B0100081B0100081B0100081B01000800
:100070001B0100081B0100081B0100081B010008F0
:100080001B0100081B0100081B0100081B010008E0
:100090001B0100081B0100081B010008B92700080C
:1000A0001B0100081B0100081B0100081B010008C0
:1000B0001B0100081B0100081B0100081B010008B0
:1000C0001B0100081B0100081B0100081B010008A0
:1000D0001B010008AD7300081B010008B97300087C
:1000E0001B0100081B0100081B010008DFF80CD0F1
:1000F00000F04CFD00480047C17F0008900D002033
:100100000648804706480047FEE7FEE7FEE7FEE7B1
:10011000FEE7FEE7FEE7FEE7FEE7FEE7C56D000847
:10012000ED000008202A04DB203A21FA02F0002129
:10013000704721FA02F3D040C2F1200291400843F7
:100140001946704740EA01039B0703D009E008C93C
:10015000121F08C0042AFAD203E011F8013B00F88C
:10016000013B521EF9D27047D2B201E000F8012BD8
:10017000491EFBD270470022F6E710B513460A4627
:1001800004461946FFF7F0FF204610BD30B505467E
:100190002A460B4612F8010B13F8014B08B1A04296
:1001A000F8D01CB1002802D06D1CF1E7284630BD04
:1001B0000FB400B58DB010A909900B9000914FF0CD
:1001C000FF300A9000200C900548069005480790E3
:1001D0006A4609A80F9900F083FB0DB05DF814FB87
:1001E000FD0800081B0900082DE9FF5F1D464FF0C0
:1001F000FF3BD5E9014691465F464FF00008A969EB
:100200007F1C01988847296A824688470028F6D1D2
:10021000BAF1FF3F0CD024F4C064002E19DD600653
:1002200014D5BAF12B0F09D0BAF12D0F0ED103E07E
:10023000584604B0BDE8F09F44F48064A9697F1C6F
:1002400001988847761E8246002E02DDBAF1300FF3
:1002500003D0B9F1000F26D032E0A969761E44F42C
:1002600000747F1C019888478246002E05DDBAF194
:10027000780F06D0BAF1580F03D0B9F1000F10D0A3
:100280001EE0B9F1000F02D0B9F1100F18D1A96921
:10029000761E24F400747F1C019888478246102043
:1002A00002E0082000E00A20814609E008FB090876
:1002B000A969761E44F400747F1C01988847824621
:1002C000002E05DD4946504600F0F6FA0028EDDA2A
:1002D000E96901988847A00502D46FF00100A8E7FA
:1002E000E00725D1600613D5600502D5C8F10000EE
:1002F00000E0404629680A1D2A600968220501D5E8
:10030000087015E0220701D5088011E008600FE0B1
:100310002868011D29600068210502D580F8008049
:1003200006E0210702D5A0F8008001E0C0F80080B7
:1003300038467EE770B5064607F07AF80468054649
:100340000A220021304600F0F9FA2C6070BD42000C
:1003500005D0C0F3C7525242914201DC00207047E1
:1003600000EBC15070472DE9FE4F804681EA030043
:10037000C00F0C46009021F0004123F00045B8EB7F
:100380000200A94105D24046214690461C460B4634
:10039000024623F00040104347D0270DC7F30A0060
:1003A000C3F30A510290401A019040286BDAC3F35C
:1003B000130040F4801B0098924620B10023D2EB3A
:1003C000030A63EB0B0B01985946C0F140025046FB
:1003D00000F051FA06460D4650465946019A00F083
:1003E00059FA10EB08006141002487EA115284EAAF
:1003F000E7731A4340D0009A62B3019A012A4FEA88
:10040000075215DC001B61EB02014FF0004202EACB
:100410000752CDE90042001C41F5801132462B46BF
:1004200000F00AFB03B0BDE8F08F40462146F9E733
:10043000001B61EB0201001C41F5801300185B41B9
:100440002018A2F5001747EB030140EAD570B61952
:100450006D4111E06D084FEA360645EAC0754FEA76
:100460000752001B61EB0201001C41F58011490895
:100470004FEA30000019514132462B4603B0BDE827
:10048000F04F00F0CABA0098012240000023D0EBE0
:10049000020263EBE073009821464FEAE074B8EB88
:1004A000000061EB0401E9E783F000435BE781F0C2
:1004B000004158E72DE9FE4F81EA030404F00044AF
:1004C00021F0004100944FF0000B23F0004350EA6C
:1004D00001045ED052EA03045BD0C3F30A54C1F3B3
:1004E0000A552C44A4F2F3340194A0FB0254C1F346
:1004F000130141F48011C3F3130343F4801301FB90
:10050000024400FB034E840A970A44EA815447EAF6
:100510008357A4FB076802958D0A05FB07854FEA00
:10052000932C04FB0C542705029D4FEA065847EA1A
:100530001637B5EB08056EEB070C870E920E47EAEF
:10054000811742EA8312A7FB0201B6EB0B0164EBB1
:1005500000042B0D43EA0C335E1844EB1C50DA46C2
:100560005146E7FB0201C5F313044FEA0B3343EA9C
:1005700014534FEA0432019C43EA0603A4F10C042D
:100580000294009CCDE900B400F056FA03B0BDE837
:10059000F08F00200146F9E72DE9F04D81EA0304D0
:1005A00004F0004B21F0004514464FF0000A23F000
:1005B000004150EA050220D054EA01021DD0C5F3E3
:1005C0000A570246C5F31303C1F31300C1F30A56D9
:1005D00040F4801543F48013A7EB0608101BD646A1
:1005E00008F2FD3873EB050002D308F1010801E0C1
:1005F00092185B41B8F1000F03DA00200146BDE814
:10060000F08D00204FF48011064684460EE0171B43
:1006100073EB050705D3121B63EB050306434CEA96
:10062000010C49084FEA300092185B4150EA01077B
:10063000EDD152EA030012D082EA040083EA0501F8
:10064000084305D0101BAB4106D20122002306E06F
:1006500000224FF0004302E06FF0010253101AEB4A
:1006600006004CEB085110EB0A0041EB0B01BDE812
:10067000F04D00F0D2B970B521F0004303430CD027
:10068000C1F30A550024D5EB040564EB0403D61727
:10069000AD1AB34102DB0020014670BD201841EBCA
:1006A000025170BDC10F80EAE0700844CA0796236A
:1006B000002100F084B90EB5C10F80EAE070084453
:1006C000CA07002140F233438DE80E000A460B466C
:1006D00000F0B2F903B000BD0EB540F23341029113
:1006E0000021CDE900110A460B4600F0A5F903B040
:1006F00000BD70B5C1F30A5201F000450024C1F3FA
:10070000130140F2FF3341F480119A4201DA0020D4
:1007100070BD40F233439A42A2F2334203DC5242AC
:10072000FFF700FD00E090402C43F1D0404270BD47
:10073000C1F30A5210B5C1F3130140F2FF3341F483
:1007400080119A4201DA002010BD40F233439A42F0
:10075000A2F2334203DC5242FFF7E4FC10BD9040AA
:1007600010BD00F0004230F000400AD0C10D01F58C
:100770006071C0F3160042EA0151C20840071143FC
:10078000704700200146704730B5041E71F1000427
:1007900004DB4FF00044404264EB0101141E73F18E
:1007A000000405DB1C464FF00043524263EB040398
:1007B0008B4208BF824230BD30B5041E71F1000487
:1007C00004DB4FF00044404264EB0101141E73F15E
:1007D000000405DB1C464FF00043524263EB040368
:1007E000994208BF904230BD30B50B46014600200B
:1007F0002022012409E021FA02F59D4205D303FAE3
:1008000002F5491B04FA02F52844151EA2F1010263
:10081000F1DC30BD2DE9F05F0546002092469B4695
:1008200088460646814640241BE028464146474606
:100830002246FFF777FC53465A46C01A914110D31F
:1008400011461846224600F016F82D1A67EB0108EB
:100850004F4622460120002100F00DF817EB000959
:100860004E41201EA4F10104DFDC484631462A46F1
:100870004346BDE8F09F202A04DB203A00FA02F14B
:10088000002070479140C2F1200320FA03F319437E
:1008900090407047202A06DBCB17203A41FA02F03D
:1008A00043EAE07306E041FA02F3D040C2F12002CD
:1008B00091400843194670473A2800D2303820F05A
:1008C0002002412A01D3A2F13700884201D34FF020
:1008D000FF30704702681144137801601846704772
:1008E000D16004495161044911620021116111462E
:1008F00000F06CB9D5080008B90B0008426842B195
:10090000016811F8013B23B1521EC0E900121846DC
:1009100070470121C160881E704742685AB1C368A0
:10092000016843B983688B4205D0491E521CC0E957
:100930000012002070474FF0FF3070472DE9F0475C
:1009400091460F4680460446002614F8015B2DB1FF
:1009500000F02EF90068405DC007F6D12B2D02D0C3
:100960002D2D18D0641E4A463946204600F0C4FAA0
:1009700027B13968A14201D1C7F8008071054FF055
:1009800002040BD54042002803DD06F051FD04604F
:10099000A007BDE8F08746F48066E4E70028F8DAAF
:1009A00006F046FD04606FF00040F2E70029A8BFA2
:1009B0007047401C490008BF20F00100704710B488
:1009C000B0FA80FC00FA0CF050EA010404BF10BC3D
:1009D000704749B1CCF1200421FA04F411FA0CF16A
:1009E00018BF012121430843A3EB0C01CB1D4FEAA3
:1009F00000614FEA102042BF002010BC704700EB9E
:100A0000C35010440029A4BF10BC7047401C4900CB
:100A100008BF20F0010010BC704710B5141E73F120
:100A2000000408DA401C41F1000192185B411A43AE
:100A300001D120F0010010BD2DE9F04D92469B46FA
:100A400011B1B1FA81F202E0B0FA80F220329046A0
:100A5000FFF711FF04460F4640EA0A0041EA0B0186
:100A600053465A46084313D0114653EA010019D0A1
:100A7000C8F140025046FFF755FB05460E4650466A
:100A800059464246FFF7F7FE084305D0012004E02F
:100A900020463946BDE8F08D0020054346EAE07661
:100AA0002C4337430A986305E40AA0EB08000022B0
:100AB000FD0A44EA47540A3002D500200146E9E71E
:100AC000010510196941DDE9084500196941BDE8D2
:100AD000F04DA2E72DE9F041054621F000400C461B
:100AE000284309D0C4F30A5040F23341884205DD5F
:100AF00028462146BDE8F0812846FBE740F2FE315A
:100B0000884210DC0CDB4FEA043040EA155050EA12
:100B1000053105D0104804F0004101430020E9E709
:100B200000200146E6E7A0F233404642C6F140020B
:100B300028462146FFF79FFE07468846284621465D
:100B40003246FFF7EFFA43463A46FFF766FF324672
:100B5000BDE8F041FFF78FBE0000F03FC1F30A523D
:100B6000C1F3130140F2FF3341F480119A4202DADB
:100B700000200146704740F233439A42A2F23342CA
:100B800002DC5242FFF7CEBAFFF775BE064C074DA6
:100B900006E0E06840F0010394E80700984710344D
:100BA000AC42F6D3FFF7A6FA9CAC0008BCAC000838
:100BB00000487047C8AB000810B50446FFF7F8FFBF
:100BC0000068005D00F0010010BD00002DE9F34F4A
:100BD0008BB04FF0000801F10C000C464FF0010BF8
:100BE00046460DF1080A019062690121019890477B
:100BF000051E2DD0252D2CD0216A8847C0B16269F1
:100C0000012101989047216A88470028F7D1411EA9
:100C100062690198904700E0761CA1690B988847AB
:100C2000216A88470028F7D1E1690B988847DBE7FC
:100C3000A1690B9888470746A84201D1761CD3E7E3
:100C4000E1690B9888477F1C02D1B8F1000F6FD083
:100C500046E1002762693D463946019890472A28B7
:100C600004D162690121019890470125DFF884923F
:100C70006269012101989047A0F130010A290AD246
:100C80004F45E5DC07EB870100EB4107303FDFD440
:100C900045F01005ECE7E90601D46FF000476C2839
:100CA0000AD04C2814D0682815D06A280DD0742892
:100CB0001CD07A281AD01DE0626901210198904762
:100CC0006C2802D045F0040514E045F002050DE063
:100CD00045F020050AE062690121019890476828E3
:100CE00002D045F0080505E045F400656269012180
:100CF00001989047C4E9015765283DD019DC582870
:100D00007AD00CDC452837D004DC252826D04128B1
:100D100031D131E046282FD047282CD12CE05B2858
:100D200077D0612828D063287CD0642823D15AE06A
:100D3000D0E06F2848D008DC66281DD067281BD07B
:100D4000692821D06E2816D127E0702845D0732855
:100D500068D0752847D078280DD14DE0A1690B984F
:100D60008847054625283FF469AFE1690B98884715
:100D70006D1C3FF46AAFB3E023466A466FF0010092
:100D80000B99AFF300809EE045F040006060A8073B
:100D900023464FF0000236D43EE0E8077FF447AF29
:100DA0002068011D21600068290501D506701BE738
:100DB000290701D5068017E7A90703D5F117C0E970
:100DC000006111E706600FE745F040006060A8078A
:100DD00023464FF0080216D41EE040F60E0125EA25
:100DE0000100606016E045F040006060A8072346FF
:100DF0004FF00A0207D40FE045F040006060A807FA
:100E000008D5234610226FF001000B99AFF3008044
:100E100059E007E0234610226FF001000B99FFF71D
:100E2000E3F950E04FF000094F464B46632802D0EB
:100E30005B2806D040E0E80601D40120A06001272D
:100E40003AE062690121019890475E2805D14FF090
:100E500001096269494601989047216939B9002121
:100E60000A46534643F82120491C0829FADBB0B34F
:100E7000216969B9C11700EBD16253110AEB8301F3
:100E800022F01F02821A01200B68904003430B607E
:100E900062690121019890475D28E8D1B9F1000FFE
:100EA00009D00020514651F82020D24341F820209B
:100EB000401C0828F7DB02AB224600976FF00100C8
:100EC0000B99AFF3008000280CDA401C08D1BBF16D
:100ED000000F05D04FF0FF300DB0BDE8F08FFFE7F9
:100EE0004046F9E7E90701D108F1010806444FF04F
:100EF000000B79E6CCCCCC0C2DE9F05F8246007873
:100F0000002715468B460AF10104B946302801D066
:100F10009DB113E014F8010B0127782803D058285D
:100F200001D045B10AE00DB1102D07D100271025E1
:100F300014F8010B02E0082500E00A250026B0465F
:100F40000EE005FB080005FB06F1012701EB10464A
:100F50001FFA80F8B6F5803F00D3B94614F8010BAC
:100F60002946FFF7A9FC0028EBDABBF1000F05D0FA
:100F70000FB1641E00E05446CBF80040B9F1000FF9
:100F800006D006F055FA02210160C81EBDE8F09FA8
:100F900048EA0640FAE730B58C1810F8012B12F039
:100FA0000F0301D110F8013B120906D110F8012BF3
:100FB00003E010F8015B01F8015B5B1EF9D101E071
:100FC00001F8013B521EFBD1A142E6D3002030BD07
:100FD00070B5044600688168C943C9071CD181689F
:100FE00021F00101816002F055F905460FE000BFD4
:100FF00002F050F9401B022809D9A06A40F0100005
:10100000A062E06A40F00100E062012070BD20684B
:101010008068C043C007EBD0002070BDF8B5002643
:101020000446009600688168C943C90728D08168D2
:1010300041F001018160134813490068B0FBF1F0F1
:1010400000E0401E00900028FBD102F023F9054685
:1010500011E000BF02F01EF9401B02280BD9A06A64
:1010600040F01000A062E06A40F00100E06284F805
:1010700024600120F8BD20688068C043C007E9D122
:101080000020F8BD2C02002040420F002DE9F0475F
:1010900092468946044600252CE02038A208C6B2B4
:1010A0003B2A05D9002409F11800224600F0FF0967
:1010B00002F11F00C1B21C32D0B205F003FE09F1EB
:1010C0001700C1B2484605F00EFE05F01DFEDFF820
:1010D0003080002706EB460607EB061118F80100E2
:1010E00000F0EAFC7F1CFFB2302FF5D36D1C0C34EE
:1010F000EDB2E4B21AF805000028CED1BDE8F087C1
:10110000649100082DE9F04792468946044600257F
:101110002AE02038A208C6B23D2A05D9002409F1E8
:101120000800224600F0FF0902F11D00C1B21C3286
:10113000D0B205F0C7FD09F10700C1B2484605F07D
:10114000D2FD05F0E1FDDFF82C80002707EBC6019A
:1011500018F8010000F0B0FC7F1CFFB2082FF5D397
:101160006D1C0834EDB2E4B21AF805000028D0D1A5
:10117000BDE8F087D48900082DE9F04792468946FA
:10118000044600252CE02038A208C6B23D2A05D925
:10119000002409F10C00224600F0FF0902F11D00B5
:1011A000C1B21C32D0B205F08DFD09F10B00C1B205
:1011B000484605F098FD05F0A7FDDFF830800027D0
:1011C00006EB460607EB860118F8010000F074FCF8
:1011D0007F1CFFB20C2FF5D36D1C0834EDB2E4B2C6
:1011E0001AF805000028CED1BDE8F087E48C00088D
:1011F000F8B5044602F04EF8054620208DF80000B0
:10120000200C8DF80100200A8DF802008DF80340B3
:1012100000F020F9114E4FF4805400222146304650
:1012200002F033F84FF47A73042269460C4802F056
:101230006EFF01222146304602F027F800F020F828
:101240000228FBD002F026F8401B40F6B831884255
:1012500001D90320F8BD0020F8BD0000000C0140BA
:101260002C06002070B500244FF080752046FFF753
:10127000BFFF04F58054AC42F8DB002070BD0000D5
:101280007CB512A0124D00684FF4805400900022EB
:101290002146284601F0F9FF4FF47A7633460122C1
:1012A00069460C4802F033FF3346012201A9094880
:1012B00002F080FE01222146284601F0E6FF9DF85B
:1012C0000400C00700D002207CBD00000500000023
:1012D000000C01402C06002038B50DA00D4D006813
:1012E0004FF48054009000222146284601F0CDFFA3
:1012F0004FF47A7302226946074802F008FF012280
:101300002146284601F0C1FFBDE83840FFF7B8BFCD
:1013100066990000000C01402C0600202DE9F843DE
:10132000054603208DF80000080C8DF80100080A1E
:101330008DF80200DFF8488014468DF803104FF452
:10134000805700223946404601F09FFF4FF47A76DD
:101350003346042269460B4802F0D9FEA2B2334656
:101360002946084802F026FE10B10120BDE8F883A6
:1013700001223946404601F088FF0020F6E70000D0
:10138000000C01402C0600202DE9F74F82B01646D4
:101390000C4601F07FFF0746002001E000F5807059
:1013A000A042FBD9051BB54200D9354604EB060B1C
:1013B000DFF898904FF0020A4FF480584FF47A7695
:1013C0008DF800A0200C8DF80100200A8DF8020095
:1013D0008DF8034000F03EF800224146484601F0F7
:1013E00054FF334604226946194802F090FE30B992
:1013F000AAB233461648029902F089FE18B10120BC
:1014000005B0BDE8F08F01224146484601F03DFF9E
:1014100007E000BF01F03EFFC01BB04201D903202E
:10142000EEE7FFF72DFF0228F4D002982C44284461
:10143000029004F58070584502D9ABEB040501E039
:101440004FF480755C45BBD30020D9E7000C014008
:101450002C060020F8B515A00068009001F01AFFD6
:10146000134F05464FF4805600223146384601F0AE
:101470000CFF4FF47A742346012269460D4802F0AE
:1014800046FE01223146384601F0FFFE07E000BF6C
:1014900001F000FF401BA04201D90320F8BDFFF777
:1014A000EFFE0228F4D00020F8BD00000600000086
:1014B000000C01402C0600200B484FF47A710068A4
:1014C000B0FBF1F0401EB0F1807F0BD24FF0E02175
:1014D0004861064AF02082F8140D00208861072038
:1014E00008617047FEE700002C0200200FE000E0DA
:1014F000FEE700002DE9F04FF348C1B00188090470
:101500007ED500240460802110A8FEF734FEEFA1F0
:10151000EF48FEF73BFE98B1EEA1ED48FEF736FE30
:10152000B8B1EDA1EA48FEF731FEEC4E05004FF4EC
:10153000803866D0E8783F2811D03D281ED0DCE006
:101540008021E34806F0CEFF0221E5A006F0CAFFA5
:10155000B6E10521E3A000BF06F0C4FFCDE0802185
:10156000DB4806F0BFFF0221DDA006F0BBFFDFA1D4
:1015700010A8726E05F038FF14210EE1706E404520
:101580000BD18021D24806F0ADFF0221D4A006F095
:10159000A9FF1421DAA006F0A5FF281D06F0BAFB6A
:1015A000A0F58031B1F57F0F65D8C11700EB9160D0
:1015B00020F03F058021C64806F094FF0221C8A014
:1015C00006F090FF52E04022294630A8FFF7A6FE21
:1015D00030A803F0C3FFBE4CDDE93867203CE0696A
:1015E000FFF7BFF881468B46A068FFF7BAF8029074
:1015F0008A466068FFF7B5F800908846206801E0E9
:101600007FE044E0FFF7ADF80B46C7F30721C6F3D0
:10161000074C0DF1340ECDF828C08EE8020AFAB25C
:10162000370ECDE90B72278BE28AC6F30721F6B29B
:10163000CDE90861CDE90627A18A2269CDE9042117
:101640000246CDF80CA0CDF80480B24910A805F0F0
:10165000CBFE802110A806F045FF0221A0A006F0D5
:1016600041FF802110A8FEF786FD40359B48406E63
:101670008542A8DB41E04FF08001954806F032FF3B
:10168000022197A006F02EFF1021A3A064E7A6A1D7
:101690008F48FEF77BFD914D0127E135002833D0BF
:1016A000306E4FF08001002889481BD006F01AFFE9
:1016B00002218BA006F016FF0D219CA006F012FF60
:1016C000FFF7D0FDC6F86480AF71EC712C72722206
:1016D00000212846FFF758FE0E2198A006F002FFD1
:1016E00034660AE006F0FEFE02217DA006F0FAFE56
:1016F000302196A006F0F6FE376680217448FEF78A
:101700003AFD41B0BDE8F08F9CA17148FEF73EFD67
:10171000002844D0861D9BA16D48FEF737FD0700C9
:101720003FF40EAF6D481521B830FEF724FD6B482D
:10173000BA1B3146B830FEF705FD92A16448FEF7AA
:1017400025FD064665481421CD30FEF714FD63489B
:101750001422711CCD30FEF7F5FC0020FFF748FD88
:101760005E491522B83101F13200FEF7EBFC5B490E
:101770006C77CD31142201F13300FEF7E3FC5748BA
:1017800085F8324072220021E130FFF7FDFD534B16
:101790007DA1CD33A3F1150282E010A8DCE689A17A
:1017A0004B48FEF7F3FCD0B18021494806F09AFE81
:1017B00002214BA006F096FE0F2183A006F092FEB8
:1017C00087F31388BFF34F8F83480168834A01F47E
:1017D000E06111430160BFF34F8F00BFFDE780A1BF
:1017E0003B48FEF7D3FC00286AD07FA13848FEF7BB
:1017F000CDFC80B18021364806F074FE022138A06D
:1018000006F070FE354B79A19033A3F1180210A8B1
:1018100005F0EAFD4FE07BA12D48FEF7B7FC401C28
:10182000074658A1FEF7B2FC060046D02B48182107
:101830007830FEF7A0FC2948F21B39467830FEF7D5
:1018400081FC264828219030761CFEF794FC234822
:10185000282231469030FEF775FC0020FFF7C8FCC7
:101860001E491822783101F19E00FEF76BFC1B49DE
:1018700005F84C4F9031282201F19500FEF762FCEB
:101880001648EC7772220021E130FFF77DFD36210A
:101890005DA006F027FE114B54A19033A3F118026E
:1018A00010A805F0A1FD8021094806F01BFE0221C9
:1018B0000BA006F017FE80216FE7102160A04BE619
:1018C000122163A048E600007C0100204154000082
:1018D000F404002041542B00455850001000002013
:1018E0000D0A000041540D0A0000000043555252F9
:1018F0005F414444523A253038580D0A0000000038
:101900004E6F206461746120746F206578706F720F
:10191000740D0A001CAC0008496E76616C69642085
:10192000416464726573730045525300576F726B64
:10193000696E672E2E2E0D0A00000000457261733D
:101940006520646F6E65210D0A0000005479706592
:1019500020616761696E20746F20636F6D666972C4
:101960006D20746865206572617365206F662077ED
:10197000686F6C6520636869700D0A0043574A41BF
:10198000503D00002C0000004E65772057694669E5
:1019900020536574204F4B0D0A535349443A257325
:1019A00020506173733A25730D0A5265626F6F742C
:1019B00020746F2074616B65206566666563740DC5
:1019C0000A0000005253540053797374656D20521D
:1019D000657365740D0A00000CED00E00400FA0563
:1019E000434D5345540000003F00000044657649D4
:1019F000443A2573204150492D4B65793A25730DA2
:101A00000A0000003D0000004E6577204465762006
:101A1000494420616E6420415049204B6579205330
:101A20006574204F4B2C5265626F6F7420746F2069
:101A300074616B65206566666563740D0A0000005D
:101A4000496E76616C69642044657649440D0A00EC
:101A5000496E76616C696420436F6D6D616E640DD3
:101A60000A0000001CB5002001F043F80CA214216C
:101A70001E20FFF747FB4FF4FA6001F0F1FA002057
:101A800001F037F840210020CDE900015F231A461C
:101A90000221DD2000F0F7FC0649012008601CBD92
:101AA00053657474696E672053756363657373213E
:101AB000000000006C0000202DE9FC5F00240546BA
:101AC000A0464FF00F094FF0F00A4FF0FF0B6E46A3
:101AD0000DF1040715F0C00006D0402807D080287B
:101AE00008D0C0280BD108E006F8048007E006F80B
:101AF000049004E006F804A001E006F804B0A8068B
:101B0000000E10F0C00106D0402907D0802908D06F
:101B1000C0290BD108E007F8048007E007F804901B
:101B200004E007F804A001E007F804B08006050E01
:101B3000305D012103F094FC385D012103F090FC3D
:101B4000641CE4B2022CC5D3BDE8FC9F2DE9F14F23
:101B5000ACB0784A78A10CA805F046FC7D4801F0AD
:101B6000C8FB4FF47A727CA10CA800F0EFFD48B1DD
:101B70007AA000F07BFD002845D17BA000F076FD27
:101B800000282CD07D4D00247248AC6001F0B1FBE0
:101B90004FF4007631467A48FEF7EDFA64226EA1E2
:101BA00078A000F0D3FD31467548AC60FEF7E3FA4B
:101BB000642001F055FA80210CA8FEF7DCFA654894
:101BC00001F097FB4FF4FA773A4663A171A000F059
:101BD000BDFD80B161A000F049FDA0B903E0012086
:101BE0002DB0BDE8F08F3A465BA16AA000F0AEFDD3
:101BF00008B10320F4E7574801F07BFB3146604809
:101C0000AC60FEF7B8FA66480068FEF7AAFD8246A7
:101C100064488B460068FEF7A4FD07466248894683
:101C20000068FEF79EFD0646604888460068FEF79D
:101C300098FD04465E480D460068FEF792FD08AB2D
:101C40005C4A83E8800E5C4B5C4FDFF874C11288FD
:101C50001B683F88BCF800C0CDE9063205978DE8C7
:101C60007011024646480B465649643805F0BCFBE5
:101C7000554805F0A9FB554955A005F0A5FB52486C
:101C80000F3005F0A1FB50482D3005F09DFB514968
:101C900051A005F099FB4C48363005F095FB4A48B9
:101CA0004E3005F091FB3648643806F047F8821C48
:101CB0004BA1324805F098FB304805F085FB4248BF
:101CC000C01F05F081FB2E48643805F07DFB6420C1
:101CD00001F0C6F9294C06E00A2001F0C1F941A043
:101CE00000F0C4FC18B96068401E6060F4D1642044
:101CF00001F0B6F9174801F0FCFA28212C98FEF7FC
:101D00003AFA1F48007868B13AA11D48FEF73EFA3A
:101D100004463AA11A48FEF739FA021B21462C98CC
:101D2000FEF710FA2C98007808B1002058E702203E
:101D300056E700006801002041542B43495053549A
:101D40004152543D22544350222C222573222C38D8
:101D5000300000000C0600204F4B00004261642060
:101D60005265717565737400414C52454144592068
:101D7000434F4E4E454354454400000000000020B0
:101D80009802002041542B4349504D4F44453D316A
:101D90000000000041542B43495053454E4400007D
:101DA00054000020500000204C000020480000207B
:101DB00044000020140000205800002016000020DD
:101DC00018000020CCAB0008DBA800088800002029
:101DD00025730000A000002025730D0A00000000FC
:101DE00025640000485454502F312E3120323030B9
:101DF00000000000446174653A20000020474D5403
:101E0000000000002DE9F04F00258BB0284600F0BF
:101E100070FEE148DFF884834FF01A0A00684FF043
:101E20002709C11700EB11506FF30B004FF0180B8F
:101E30000190DB4801F05DFADAA102A8019A05F0F1
:101E4000D3FA0022172311460A20CDF800A004F08F
:101E50005FFF00224E46272311464A20CDF800900E
:101E600004F056FF02AA05215820FFF74BF917236B
:101E700000220D210A20CDF800B004F049FF2920EE
:101E80000090282300220D212A2004F041FF27235F
:101E900000220D214A20009604F03AFF0E20009007
:101EA0000D2300221A210A2004F032FF05EB8500E1
:101EB00000EBC507FF1CF9B2BCA20020FFF722F916
:101EC000B8F800004646011B03290ADD0446F9B2B2
:101ED000B7A20020FFF716F96D1C022D0DDB0225BD
:101EE0000BE0211A032908DD0446F9B2B0A2002054
:101EF000FFF708F96D1E00D5002500F07BFC0128D6
:101F000097D19DB1012D7CD0022D92D1002000F0FF
:101F1000F0FD40210020CDE900015F231A46022197
:101F2000DD2000F0B0FA0BB0BDE8F08F2C27B046F2
:101F30002A23002227218020009704F0E9FE9DA299
:101F400034218020FFF7DEF89BA234219220FFF796
:101F5000D9F8A6B196A234217820FFF7D3F893A23E
:101F600034218820FFF7CEF8B8F80000011B0329C0
:101F70000CDD761C0446012E0FDB01260DE08BA242
:101F800034217820FFF7BEF889A2E9E7211A032956
:101F900003DD0446761E00D5002600F02BFC012848
:101FA000C6D1002E73D12D26334600222721802052
:101FB000009604F0ADFE2D230022272190200096EC
:101FC00004F0A6FE2D2300222721A020009604F075
:101FD0009FFE2D23002234218020009604F098FEDD
:101FE0002D23002234219020009604F091FE2D2311
:101FF00000223421A020009604F08AFE664E30684C
:1020000000E01BE0B0F5883F02DBA0F5805001E066
:102010004FF4803030600020FFF7EAF830686749FD
:10202000020C8A71020ACA71087272220021634886
:10203000FFF7AAF90198FFF7DBF8A7E02C27B046D5
:102040002A23002227218020009704F061FE59A254
:1020500034218020FFF756F857A234219220FFF751
:1020600051F8AEB152A234217820FFF74BF84FA2BD
:1020700034218820FFF746F8B8F80000011B032937
:102080000DDD761C0446012E10DB01260EE012E069
:1020900046A234217820FFF735F845A2E8E7211A57
:1020A000032903DD0446761E00D5002600F0A2FBBE
:1020B0000128C5D15EB32D2633460022272180207A
:1020C000009604F025FE2D23002227219020009663
:1020D00004F01EFE2D2300222721A020009604F0EC
:1020E00017FE2D23002234218020009604F010FEDC
:1020F0002D23002234219020009604F009FE2D2388
:1021000000223421A020009604F002FE91E62D2644
:102110003346002227218020009604F0F9FD2D236C
:10212000002227219020009604F0F2FD2D230022AA
:102130002721A020009604F0EBFD2D23002234215E
:102140008020009604F0E4FD2D230022342190200D
:10215000009604F0DDFD2D2300223421A0200096FE
:1021600004F0D6FD16A234218820FEF7CBFFFFF73E
:1021700079F809484FF48031722201600F4801213B
:1021800081710021C1710172FFF7FEF80EA23421A6
:102190007820FEF7B7FF4CE6740000208401002091
:1021A0000C06002030782530385800003E00000032
:1021B00020000000590000004E000000F100002047
:1021C000776F726B696E6700646F6E6521202020E7
:1021D00020202020000000002DE9F04F00258BB0CA
:1021E000284600F086FC96480468B4F5803F0CD081
:1021F0009448403C01F07DF84FF0160A4FF01D095D
:10220000DFF844824FF0250B0DE090A214211E2030
:10221000FEF778FF4FF4FA6000F022FFEAE0894809
:1022200001F067F835B900218EA20846FEF76AFF73
:102230008DA20CE0012D04D0022D0ED0032D20D153
:102240002AE0002188A20846FEF75CFF85A234211F
:102250000020FEF757FF84A20AE0002182A2084670
:10226000FEF750FF80A234210020FEF74BFF7DA235
:1022700034216420FEF746FF7BA23421A020FEF724
:1022800041FFB8F80000811B032916DD6D1C0646CE
:10229000032D19DB032517E0002173A20846FEF782
:1022A00031FF71A234210020FEF72CFF6EA23421F1
:1022B0006420FEF727FF6BA2DFE7311A032903DD55
:1022C00006466D1E00D500250E2000900D2300222D
:1022D00034210A2004F01CFD5F4623230022342110
:1022E0007020CDF800B004F013FD262003460090C6
:1022F00000223421AC2004F00BFD242300223421E1
:10230000BC20009704F004FD224658A102A805F065
:102310006BF800225746152311460A20CDF800A07D
:1023200004F0F6FC00221C2311462A20CDF8009070
:1023300004F0EEFC02AA05214820FEF7E3FE00F0BF
:1023400059FA01287FF46BAFA5B1012D52D0022DAF
:1023500060D0032DF6D13A4880340068403884427A
:1023600001DB4FF48034204603F052F9354800F089
:10237000C0FF5FE7BA464746324800F0BAFF224640
:102380003AA102A805F030F80022152311460A20D0
:10239000CDF800A004F0BCFC00221C2311462A202A
:1023A000CDF8009004F0B4FC02AA05214820FEF705
:1023B000A9FE3888811B032909DD064620484034E0
:1023C0000068403884420DDB4FF480340AE0311A53
:1023D000032907DD403C0646B4F5803F02DA184881
:1023E0000468403C00F006FA0128C5D1204603F0FD
:1023F0000FF914E7002000F07CFB40210020CDE91C
:1024000000015F231A460221DD2000F03CF80BB0EA
:10241000BDE8F08F4FF48031803C8C4208DA0848E8
:102420000068A0F58032A0F18004403A00D10C464B
:10243000204603F0EDF8034800F05BFF0DE70000D5
:10244000740000200C060020840100204E6F2072D2
:1024500065636F72642063616E20626520666F75CC
:102460006E6421003E00000020000000307825301E
:1024700038580000704701B5009801E0401E0090F8
:102480000028FBD108BD2DE9FF4F87B09D08DDF87E
:1024900050B011F003000E464FEA9209029019D095
:1024A000B40805F11C0109F11C00CDE9000104F09C
:1024B00009FC0BEB06000590401EC1B2584604F023
:1024C00012FC04F021FCA5EB09004FF0000A00F11A
:1024D000010816E0FF2000EB9600C4B2E1E70027F8
:1024E00009E00121079802F0BBFF0121079802F0E3
:1024F000B7FF7F1CFFB2B742F3D30AF1010000F02F
:10250000FF0AD045EBDC281B1C30C0B2019904F057
:10251000D9FB1598801BC1B204900598C0B204F095
:10252000E2FB04F0F1FB15984FF0000AA0EB0B075B
:1025300007987F1C00F00F00039027E0002504F1AE
:10254000010B1DE095BB029880B3012804D002283E
:1025500009D0032812D109E00121002002F080FFF8
:102560000121039808E00121002001E001210398E6
:1025700002F076FF0121079802F072FF6D1CEDB2A8
:102580005D45DFD30AF1010000F0FF0A5745D5DCB5
:10259000DDE9000104F096FB04981599401CC0B2D7
:1025A00004F0A1FB04F0B0FB002014E0FFE70121E0
:1025B0000798DDE7002509E00121079802F050FFA8
:1025C0000121079802F04CFF6D1CEDB2B542F3D328
:1025D0000AF10100C0B28246D045EBDC09EB0400F1
:1025E0001C30C1B2009804F06DFB0498C1B205988C
:1025F000C0B204F078FB04F087FB0798002600F0D7
:10260000F00926E0002504F101081EE0A54225D1CD
:10261000029818B3012804D0022805D0032812D14B
:1026200009E00121484601E00121079802F018FF66
:102630000121002005E00121079802F011FF01218E
:10264000484602F00DFF6D1CEDB24545DED3761C09
:10265000F6B2B742D6DC0BB0BDE8F08F0121079887
:1026600002F0FEFE01210798EBE700000146014859
:10267000FDF78CBD9802002070B5214E90B000256A
:102680004FF4FA744FF400711E48B560FDF773FD06
:1026900014221DA11DA000F059F800F077F81E4883
:1026A00000F027FE06E00A2000F0DAFC1BA0FFF78E
:1026B000DDFF08B9641EF6D1174800F01AFE40216C
:1026C0006846B560FDF757FD164B174A17A16846D7
:1026D00004F08AFE4FF47A720BA1684600F036F8D7
:1026E000040002D0012010B070BD0B4800F001FEC4
:1026F0004FF4967204A112A000F028F82046F2E7E9
:1027000000000020980200204F4B000041542B4352
:10271000574D4F44453D33000C06002072656164FF
:1027200079000000DD000020C800002041542B4348
:10273000574A41503D222573222C22257322000046
:1027400041542B4349504D55583D300070B50E460D
:102750000146144600250BA004F036FE86B154B99C
:102760000EE00A2000F07CFC3046FFF77FFF10B13E
:10277000002524B104E0641E2404240CF1D10125B9
:10278000284670BD25730D0A0000000070B5094D84
:102790004FF4006400222146284600F076FD4FF4F5
:1027A0007A7000F05DFC21462846BDE870400122A9
:1027B00000F06BBD0008014010B5202000F064FC63
:1027C00040210A4800F05CFD0949012843F698229F
:1027D000088803D040B1401F088010BD47F2305335
:1027E000984201D2401DF7E70A8010BD000C01405D
:1027F0008401002010B50C4C8021204600F040FDE3
:1028000040B942F21070FFF736FE8021204600F0FA
:1028100037FD08B1002010BD8021204600F030FDBA
:102820000028F9D0012010BD000C01402DE9F04F27
:1028300000248DB02546204600F05BF940210020A1
:10284000CDE900015F231A460221DD20FFF71BFEC0
:10285000DFF83492DFF834A2DFF834824FF00F0B48
:102860000627002288498B4801F065F90022874934
:10287000884801F039F906F071F8874800F039FD11
:102880000E20002200900D2311460A2004F040FA89
:10289000122000900F2300220D210A2004F038FAA4
:1028A0009AF8021099F8026099F8013099F800201E
:1028B0008DE84E009AF801309AF8032077A104A819
:1028C00004F092FD1020CDE900B05E46FF236222A5
:1028D0000121DD20FFF7D7FD04AA03216720FEF7C1
:1028E00011FC16200090132300221A210A2004F064
:1028F0000FFA142000901323002227210A2004F04D
:1029000007FA18200090172300222721282004F01E
:10291000FFF90523002234210A20009704F0F8F97A
:102920001B200346009000223421282004F0F0F9F7
:1029300062A237213420FEF7E5FB62A104A8D8F893
:10294000002004F051FD1A200146009019230022B6
:10295000642004F0DDF91D2000901C2300221A21C0
:10296000842004F0D5F904AA1E21A420FEF7CAFB96
:10297000D8F8000000F0DCF8FDF7F3FE02460B4645
:1029800052A104A804F030FD212000901E23002253
:102990002721642004F0BCF904AA2B21A420FEF70F
:1029A000B1FB4D484DA1D0E9002304A804F01CFD63
:1029B0000F23002234216420009604F0A9F922207C
:1029C0000346009000223421742004F0A1F906236C
:1029D000002234218420009704F09AF9082003464D
:1029E000009000223421942004F092F904AA3821A6
:1029F000A420FEF787FB04EB840000EBC406F61C62
:102A0000F1B238A20020FEF77DFB37480088411B59
:102A100003290ADD0546F1B234A20020FEF772FB5D
:102A2000641C042C0DDB04240BE0291A032908DDA7
:102A30000546F1B22DA20020FEF764FB641E00D50E
:102A40000024FFF7D7FE01287FF40BAF54B1012C0F
:102A500010D0022C11D0032C12D0042CF4D1FFF78B
:102A600001F8FEE6002000F044F802F0B9FA0DB0DB
:102A7000BDE8F08F04F0CAF9F3E6FFF7ADFBF0E62E
:102A8000FFF7C0F9EDE600001A00002078000020F2
:102A900074000020180600200C060020323025307B
:102AA00032642D253032642D2530326420253032B9
:102AB000643A253032643A253032640031303025B2
:102AC0000000000030782530385800002530332EC3
:102AD00032664D696200000080000020252E326CB5
:102AE000665600003E000000840100202000000027
:102AF000FEE770B506467721002004F0E3F87F2159
:102B0000002004F0F0F804F0FFF800240025012173
:102B1000304602F0A5FC0121304602F0A1FC6D1CFC
:102B2000EDB2782DF3D3641CE4B2802CEED370BDEB
:102B300010B5B0F1807F01DD002010BDC0F18070C4
:102B4000FDF7B0FD6FF009042146FDF700FC2146BA
:102B5000FDF7FDFBBDE810400321FDF7F8BB0000C9
:102B6000F8B50024009490F824202546012A12D0BC
:102B7000012280F824204A681F23072A0DD2066804
:102B8000776B521E02EB820293409F430B68934087
:102B90001F43776319E00220F8BD06680D2A0AD2A8
:102BA000376BD21F02EB820293409F430B68934026
:102BB0001F43376309E0F76A0D3A02EB8202934044
:102BC0009F430B6893401F43F7620A680723066818
:102BD0000A2A0AD3F7680A3A02EB420293409F435B
:102BE0008B6893401F43F76008E0376902EB4202AD
:102BF00093409F438B6893401F4337610A68102AB4
:102C000001D0112A20D1124B02689A4217D1936841
:102C10001B0219D4936843F40003936009681029D8
:102C200012D10C490C4A0968B1FBF2F101EB8101A8
:102C3000490000E0491E00910029FBD104E0816AAF
:102C400041F020018162012480F824502046F8BD23
:102C5000002401402C02002040420F000068C06C9C
:102C6000704700002DE9F0414FF0000704003D4699
:102C70007ED0A06A002628B9E66284F82460204647
:102C800000F07EF82046FEF7A3F9A16A01F01001DA
:102C9000014304D0A06A40F01000A06268E0A16A7D
:102CA00021F4885141F00201A1626268E169237B4D
:102CB0000A4347EA43010A43A1684FF48077B942C7
:102CC00008D0012906D0002194F814C0BCF1010FEE
:102CD00002D00AE03946F7E7F3B1A36A43F02003D4
:102CE000A362E36A43F00103E3622368D3F804C0FC
:102CF0002CF4694C4CEA010CC3F804C023689968B1
:102D0000DFF870C001EA0C0111439960A168B94273
:102D10000BD0012909D00CE0DFF85CC0A3690CEBF3
:102D200043330B4343F40061DFE7218A0D05A5F52A
:102D300080152168CB6A23F470032B43CB62216892
:102D400089680E4B1940914208D1E662A16A21F0D0
:102D5000020141F00101A162BDE8F081A06A20F00A
:102D6000020040F01000A062E06A40F00100E06262
:102D70000120F1E7FDF7E1FF00E0FFFFFE0E1FFF7E
:102D800000B585B000210091019102910391006886
:102D90000E49884218D10E48816941F40071816161
:102DA000816901F400710491816941F0040181613C
:102DB0008069694600F0040004900120009003201F
:102DC0000190044800F06CF905B000BD00240140FA
:102DD00000100240000801402DE9F84300260D468E
:102DE0000446009600F056FA804620688168C905BE
:102DF00008D5A06A40F02000A06284F82460012079
:102E0000BDE8F8834168C90503D4C06A10F4700FA7
:102E100026D0022000F012FB38490968B1FBF0F718
:102E20002068036936490B424FEA61014FEAA1125B
:102E30001BD1C3684FEA611C13EA0C0F15D103695B
:102E40000B4221D1C06810421ED114201FE0681C23
:102E500006D045B300F01EFAA0EB0800A84222D825
:102E6000206800688007F2D52AE003690B4202D18E
:102E7000C168114206D0026922490A4206D1C068DF
:102E8000084203D1542002E0292000E0FC204743FF
:102E9000009813E0681C0ED02DB100F0FBF9A0EBF8
:102EA0000800A84207D9A06A40F00400A06284F894
:102EB00024600320A4E70098401C0090B842E9D3A6
:102EC00021686FF012000860A06A40F40070A062F0
:102ED00020688068C0F3424007280CD1207B50B99D
:102EE000A06A20F48070A062A06AC00403D4A06A23
:102EF00040F00100A062002082E700002C020020C8
:102F0000244992244992240070B5044690F8240084
:102F100001280DD0012084F824002046FEF77EF819
:102F200002004FF0000005D084F82400104670BD68
:102F3000022070BDA16A40F20123994341F48071DF
:102F4000A1621F4D23681F49AB4218D10E6816F4C9
:102F5000702F14D0A66A46F48016A6620E68760515
:102F600005D5A66A26F4005646F48056A662A66ADF
:102F7000F6040AD5E66A26F00606E66206E0A66AC8
:102F800026F48016A6625E68E9E7E06284F8240011
:102F90006FF00200186020688368C3F34243072B78
:102FA00005D1A84208D1096811F4702F04D08168B6
:102FB00041F480118160B9E7816841F4A001F9E72B
:102FC000002801400424014010B590F8211000248D
:102FD000022903D00421816301243DE001680A68CD
:102FE00022F00E020A6001680A6822F001020A60FB
:102FF0001A4A0168914201D1012121E0174A143295
:10300000914201D110211BE0144A2832914201D192
:10301000891515E0114A3C32914201D189140FE023
:103020000E4A5032914202D14FF4803108E00B4AEF
:103030006432914202D14FF4801101E04FF080716F
:10304000064A083A5160012180F82110002180F8D9
:103050002010416B01B18847204610BD0800024096
:1030600070B5044600F016F90546601C02D004480D
:103070000078044400F00EF9401BA042FAD370BD62
:103080002002002070470000044910B50A6802427F
:1030900002D00860FFF7F6FF10BD000014040140E5
:1030A0002DE9F84FDFF8B891002409F1040A0AF17C
:1030B000040B23460F270BF1040EC9E00125A540A0
:1030C0002A40AA427DD1674ED1F804C0ACEB060875
:1030D000B44532D014DCBCF1030F3AD009DCBCF1AA
:1030E000000F2AD0BCF1010F1CD0BCF1020F31D16E
:1030F0001DE0BCF1110F17D0BCF1120F2AD119E05D
:10310000B8F5881F19D006DCB8F5803F15D0B8F5A2
:10311000801F1FD111E0B8F5001F0ED0B8F5041FB5
:1031200018D10AE0CB6815E0CB681B1D12E0CB6814
:1031300008330FE0CB680C330CE08B682BB1012B0C
:103140004FF0080303D0456104E0042302E0056169
:1031500000E00023FF2A01D8064601E000F1040642
:103160004FEA840501D9A5F12005D6F8008007FAB9
:1031700005FC28EA0C0803FA05F548EA0508C6F834
:1031800000804D68ED0062D5374DAE6946F001060E
:10319000AE61AD6924F0030605F001050095334DDD
:1031A00006EB050CDCF80850A607360F07FA06F800
:1031B00025EA0805DFF8B880404503D14FF0000844
:1031C00017E044E0DFF8AC80404502D14FF0010841
:1031D0000FE0DFF8A480404502D14FF0020808E07C
:1031E000DFF89880404502D14FF0030801E04FF02E
:1031F000040808FA06F848EA0508CCF808804D6883
:10320000D9F80060ED034D4601D5164300E0964322
:103210002E604D68DAF80060AD03554601D51643BF
:1032200000E096432E604D68DBF80060ED025D46DD
:1032300001D5164300E096432E604D68DEF800602D
:10324000AD02754601D5164300E096432E60641C1E
:103250000D682A46E5407FF431AFBDE8F88F0000E5
:103260000004014000001110001002400000014065
:1032700000080140000C0140001001400014014012
:103280008068084000D0012070470AB10161704792
:103290000904FBE701488068704700002002002015
:1032A00070B5040011D021684CF6CC40086021684C
:1032B00045F255500860D4E9000141602168A068DA
:1032C0008860FFF7E7FF054609E0012070BD00BFF9
:1032D000FFF7E0FF401B262801D9032070BD2068BE
:1032E000C0680028F4D121684AF6AA2008600020AE
:1032F00070BD00684AF6AA210160002070470000F6
:1033000002488168027811448160704720020020E1
:10331000074810B5016841F010010160032000F07A
:1033200075F8002000F006F800F024F8002010BD29
:103330000020024070B50D4D04464FF47A71287894
:10334000B1FBF0F00A490968B1FBF0F001F083F835
:1033500048B9102C07D200222146501E00F036F842
:1033600000206C6070BD012070BD000020020020B4
:103370002C0200200C4808B5816941F001018161EF
:10338000816901F001010091C16941F08051C16181
:10339000C06900F0805000900448416821F0E0616D
:1033A00041F00071416008BD001002400000014082
:1033B000002809DB00F01F02012191404009800034
:1033C00000F1E020C0F8001170470000F0B40E4B8F
:1033D0001B680C46C3F30223C3F10705042D00D973
:1033E0000425191D072901D2002300E0DB1E012658
:1033F00006FA05F1491E214099409E40761E16406E
:103400003143F0BC04F004B80CED00E0064900F0D4
:10341000070208684FF6FF03184040EA0220034AFB
:1034200010430860704700000CED00E00000FA0552
:10343000014901200862704700000E4210B529A41E
:1034400001461DCC86B08DE81D002AA02A4C0068DC
:1034500004900020012923D002293AD010291DD13F
:1034600061682268D20119D5C1F38342C9031DF8EE
:10347000020009D5616804AAC1F34041515C1F4AAA
:10348000B2FBF1F1484301E01D494843616849023C
:1034900004D440005FF00301B0FBF1F006B010BDB2
:1034A000226AC2F30121012903D1920701D5C80381
:1034B000F4E7022905D1626A920702D549F6404035
:1034C000ECE70329EAD121688903E7D54FF22440CC
:1034D000E4E700F033F96168C1F38131491C490028
:1034E000DAE7000002030405060708090A0B0C0DC1
:1034F0000E0F1010010200000010024000127A00AE
:1035000000093D002DE9F84305460078354CC00719
:1035100054D0E0690026C00008D4E06940F0805033
:10352000E061E069012600F0805000902E480168BB
:10353000C90512D40168804641F480710160FFF72B
:10354000A9FE074605E000BFFFF7A4FEC01B6428E4
:1035500023D8D8F80000C005F6D5206A10F44070D2
:1035600021D0A98801F4407181421CD0206A1F49F2
:10357000012220F440700A6000220A602062C00725
:1035800011D0FFF787FE074641F2883808E000BFF8
:10359000FFF780FEC11B414502D90320BDE8F88337
:1035A000206A8007F4D5206A696820F440700843D7
:1035B00020621EB1E06920F08050E0612878800729
:1035C00005D56068A96820F4404008436060287809
:1035D000C00605D56068E96820F480000843606093
:1035E0000020DBE70010024000700040400442422F
:1035F0002DE9F0470F46050061D0434E306800F0DA
:103600000700B84209D2306820F007003843306024
:10361000306800F00700B84251D128683B4C810760
:1036200012D5400703D5606840F4E06060602878F8
:10363000000703D5606840F4605060606068A96866
:1036400020F0F000084360602878C00728D0686840
:10365000012810D02168022810D0890700292EDA0D
:10366000616821F0030101436160FFF713FE8046AA
:1036700041F288390DE021688903EFE78901EDE720
:10368000FFF708FEA0EB0801494502D90320BDE879
:10369000F0876068696800F00C00B0EB810FEFD133
:1036A000306800F00700B8420BD9306820F00700FE
:1036B00038433060306800F00700B84201D0012084
:1036C000E5E72878400705D56068E96820F4E06000
:1036D000084360602878000706D56068296920F4EF
:1036E000605040EAC100606000F038F86168084A44
:1036F000C1F30311515CC8400649086006480068E0
:10370000FFF718FE0020C2E7002002400010024030
:103710002CAB00082C02002024020020044805499C
:1037200000684968044AC1F30221515CC8407047EF
:103730002C020020001002403CAB00080448054960
:1037400000684968044AC1F3C221515CC84070470F
:103750002C020020001002403CAB000812A185B0F2
:103760000FC98DE80F0014A0144A00680490516836
:10377000134801F00C03042B10D0082B0ED1C1F319
:103780008343C9031DF803000AD5516804AAC1F395
:103790004041515C0A4A5043B0FBF1F005B070471C
:1037A00008494843FAE70000020304050607080930
:1037B0000A0B0C0D0E0F1010010200000010024049
:1037C00000127A0000093D002DE9F84F040070D086
:1037D0002078C04DC00749D06868C0F38100012837
:1037E00007D06868C0F38100022809D16868C00367
:1037F00006D52868800339D560680028E7D035E011
:103800006068B0F5803F0BD010B1B0F5A02F11D09B
:10381000286820F480302860286820F4802002E0A6
:10382000286840F480302860606890B1FFF732FD6E
:1038300006460AE0286840F480202860F0E700BFD0
:10384000FFF728FD801B642873D828688003F7D50C
:103850000CE0FFF71FFD064605E000BFFFF71AFD6D
:10386000801B6428F0D828688003F7D420789A4E0B
:1038700080074FF001094FF0000839D5686810F053
:103880000C0F07D06868C0F38100022809D168686E
:10389000C00306D42868800714D52069012808D100
:1038A00010E02069B0B1C6F80090FFF7F3FC0746BE
:1038B00005E00AE1FFF7EEFCC01B0228C4D8286827
:1038C0008007F7D52868616920F0F80040EAC10058
:1038D00028600DE0C6F80080FFF7DCFC074604E036
:1038E000FFF7D8FCC01B022823D828688007F7D42C
:1038F000207800072CD57948A169D9B1C0F800908B
:10390000FFF7C8FC074604E0FFF7C4FCC01B022811
:103910000FD8686A8007F7D571484FF4FA510068EC
:10392000B0FBF1F0009000BF0098411E0091FAD268
:103930000EE080E0C0F80080FFF7ACFC074604E032
:10394000FFF7A8FCC01B022875D8686A8007F7D467
:103950002078400760D5E8690027C00008D4E869EE
:1039600040F08050E861E869012700F08050009045
:103970005C480168C90513D40168834641F480712D
:103980000160FFF787FC824606E000BFFFF782FC7C
:10399000A0EB0A0064284ED8DBF80000C005F5D57E
:1039A000E06801280AD008B1052813D0286A20F061
:1039B00001002862286A20F0040002E0286A40F032
:1039C00001002862E06841F2883B98B1FFF762FC91
:1039D00082460BE0286A40F004002862EEE700BF50
:1039E000FFF758FCA0EB0A0159455AD8286A80070E
:1039F000F6D50CE0FFF74EFC824605E0FFF74AFCE7
:103A0000A0EB0A0159454CD8286A8007F6D41FB1AB
:103A1000E86920F08050E861E06988B36968C1F323
:103A20008101022944D00228C6F8608004D0FFF743
:103A300031FC044638E034E0FFF72CFC074604E094
:103A4000FFF728FCC01B02282BD828688001F7D478
:103A5000206AB0F5803F05D16868A16820F4003085
:103A600008436860D4E908010843696821F47411C7
:103A700008436860C6F86090FFF70CFC044606E057
:103A800025E000BFFFF706FC001B022809D82868C4
:103A90008001F7D51BE000BFFFF7FCFB001B0228ED
:103AA00002D90320BDE8F88F28688001F4D40EE025
:103AB0000128F7D06868226A00F48031914204D16D
:103AC000616A00F47010884201D00120EAE700200A
:103AD000E8E7000000100240000042428004424239
:103AE0002C02002000700040F8B505004FF00000E7
:103AF00016460C46009006D02CB100226946284696
:103B000000F019F808B10120F8BD287B2070E87B8F
:103B1000E070697B6170A97BA17056B101F047FE2E
:103B2000E070607801F043FE6070A07801F03FFE25
:103B3000A0700020F8BD2DE9F04791460C465FEAE1
:103B400000084AD084B3D8F800004068400744D445
:103B5000404601F0CBFE4FF461620546B0FBF2F146
:103B6000B0FBF2F302FB13503C23B0FBF3F0B5FBC8
:103B7000F2F6607002FB1650B0FBF3F203FB12008A
:103B8000A070182931D31820B1FBF0F7B1FBF0F287
:103B900000FB12102070404601F0A1FE411C04D031
:103BA000A84202D9461B02E017E04FF0FF36A7EB10
:103BB000071000EB4000C0EB001005EBC0152946D4
:103BC000404601F0E2FE40B9701C01D0711900E0DE
:103BD0003146404601F0C5FE10B10120BDE8F08736
:103BE0003946404601F0EEFD00E02170B9F1000FCA
:103BF0000BD0207801F0DBFD2070607801F0D7FD5C
:103C00006070A07801F0D3FDA0700020E6E700000E
:103C100070B5040003D0607C002610B105E00120DF
:103C200070BD2674204600F043F8022060742046E0
:103C300000F010F9042578BB204601F01AFE58BBAD
:103C40002068416821F007014160A06820B1174851
:103C5000016821F0010101601448001F0168A26899
:103C600021F46071114301606068411C04D101209E
:103C7000FFF7E4FB80B1401E21688A6822F00F0242
:103C800042EA10428A602168CA6860F30F02CA6083
:103C9000204601F009FE08B16574C0E7E673012013
:103CA0006073A0736074002070BD0000306C004031
:103CB00008B50068084988420DD1FFF7B9FB0748ED
:103CC000C16941F00061C161C069054900F000604F
:103CD00000900120086008BD00280040001002404C
:103CE0003C0442422DE9F0410D4604003BD0C5B3EF
:103CF000207C01283AD04FF0010884F8108002207F
:103D00006074E87872B301F049FDE073687801F0FF
:103D100045FD6073A87801F041FDA073C2B2617BDC
:103D2000E07B01F0F3FD20732870204601F0DEFDFA
:103D30004FF46161B0FBF1F1002518292DD918224B
:103D4000B1FBF2F1A1EB011101EB4101C1EB01115A
:103D500000EBC1163146204601F017FE0427C8B912
:103D60000BE000E004E00120BDE8F0810220FBE769
:103D7000E07368786073A878CFE7204601F0AFFD64
:103D8000411C0AD0B04208D206490144204601F045
:103D9000E8FD10B167742574E5E784F81180257497
:103DA0000020E1E7805101002DE9F0410D460400BB
:103DB00024D01DB3207C012823D04FF0010884F8C3
:103DC0001080022060742878EAB101F0E7FC4FF41B
:103DD000616100FB01F6687801F0E0FCC0EB0010C7
:103DE00006EB8006A87801F0D9FC35182946204654
:103DF00001F0CBFD0026042710BB0FE00120BDE839
:103E0000F0810220FBE74FF4616148436978C1EB20
:103E1000011100EB8100A9784518E7E720684168A7
:103E200021F005014160204601F059FD411C0AD0F6
:103E3000A84208D206490144204601F092FD10B183
:103E400067742674DAE784F8118026740020D6E7B8
:103E50008051010070B504000AD02068416821F04B
:103E600008014160FFF716FA05464FF47A7608E03C
:103E7000012070BDFFF70EFA401BB04201D90320AC
:103E800070BD206840680007F4D5002070BD70B593
:103E9000040009D0606A002540B125616561A56212
:103EA00094F8510040B10CE0012070BD6068B0F59D
:103EB000827FF4D0E561F2E784F85050204600F0AC
:103EC0003FF8022084F851002068016821F0400189
:103ED0000160A088218900F4827001F40441084344
:103EE000A18901F400610843217C01F0020108432B
:103EF000217D01F001010843218B01F40071084389
:103F0000217F01F03801084394F8201001F080016E
:103F10000843218D01F40051084321680860A0691D
:103F2000042101EA1040216848602068C16921F439
:103F30000061C1616565012084F85100002070BDF9
:103F400030B585B000240094019402940394006875
:103F50001549884225D11548C16941F48041C161A4
:103F6000C16901F480410491816941F008018161D6
:103F700080690F4D00F0080004904FF4204000903D
:103F8000022001900320039069462846FFF788F835
:103F90004FF48040CDE90004694628460294FFF7BB
:103FA0007FF805B030BD000000380040001002402E
:103FB000000C01402DE9F84F044640680025984662
:103FC00016460F464FF0040BB0F5827F01D1A06872
:103FD00088B194F85000012818D0012084F85000CE
:103FE000FFF758F9814694F851004FF0000A012874
:103FF0000ED0022582E084F851B013460A462046CE
:10400000CDF8008000F036F9BDE8F88F0220FBE71C
:10401000002F72D0002E70D084F851B0C4F854A094
:10402000A763A687E687C4F830A0A4F834A0A4F854
:1040300036A0C4F840A0C4F844A0A068B0F5004F72
:1040400009D12068016821F0400101602068016801
:1040500021F48041016020680168490603D40168A9
:1040600041F040010160E068D8B139E02068816822
:10407000C90709D0007BA16B0870A06B401CA0632E
:10408000E08F401EE0870CE0FFF704F9A0EB090188
:10409000414503D3B8F1FF3F03D036E0B8F1000F3C
:1040A00033D0E08F0028E1D11DE020688168C90786
:1040B00009D0C068A16B0880A06B801CA063E08F52
:1040C000401EE0870CE0FFF7E5F8A0EB0901414551
:1040D00003D3B8F1FF3F03D017E0B8F1000F14D0BD
:1040E000E08F0028E1D14A464146204601F0C0FC5D
:1040F00008B120206065606D00B10125012084F8C1
:10410000510084F850A028467EE70325F6E72DE904
:10411000F84F044690F8500000271D461646894681
:1041200001280DD04FF0010B84F850B0FFF7B2F822
:10413000804694F85100BA46012804D0022793E043
:104140000220BDE8F88FB9F1000F73D0002E71D0B6
:10415000032084F85100C4F854A0C4F83090A68617
:10416000E686C4F838A0A4F83CA0A4F83EA0C4F8A1
:1041700044A0C4F840A0A068B0F5004F09D1206861
:10418000016821F0400101602068016841F480412C
:10419000016020680168490603D4016841F04001CC
:1041A0000160E068B0F5006F606803D030B3012EA5
:1041B00024D041E008B1012E1CD1206B2168008879
:1041C000C86006E020688168890709D5216B0988E5
:1041D000C160206B801C2063E08E401EE08609E0F9
:1041E000FFF758F8A0EB0800A84202D3681C01D0E2
:1041F00031E07DB3E08E0028E4D120E0206B21681F
:104200000078087306E020688168890709D5216B6A
:1042100009780173206B401C2063E08E401EE0860D
:104220000AE0FFF737F8A0EB0800A84203D3681CA8
:1042300002D010E017E06DB1E08E0028E3D14246D5
:104240002946204601F042FC08B120206065A068A4
:1042500018B106E0FFE7032706E02068C168806820
:104260000090606D00B1012784F851B084F850A02F
:10427000384666E72DE9F84F044690F850000027CD
:104280000A9E1D4692468B464FF0010901280ED02A
:10429000012084F85000FEF7FDFF804694F851009D
:1042A000616801280CD0B1F5827F07D102E00220BD
:1042B000BDE8F88FA16809B9042801D00227C2E03F
:1042C000BBF1000F27D0BAF1000F24D01DB394F832
:1042D0005100042802D0052084F8510000206065B8
:1042E000C4F838A0E587A587C4F830B0E586A58670
:1042F0002064606420680168490603D4016841F0C5
:1043000040010160E068B0F5006F606805D0E8B377
:10431000012D46D07FE0012795E008B1012D39D16C
:10432000206B21680088C860206B801C2063E08EB1
:10433000401EE0862EE02068816889070FD5E18E57
:1043400069B1B9F1010F0AD1216B0988C160206BF5
:10435000801C2063E08E401EE0864FF0000920683C
:104360008168C9070CD0E18F51B1C068A16B08808A
:10437000A06B801CA063E08F401EE0874FF0010916
:10438000FEF788FFA0EB0800B04200E009E001D38F
:10439000701C50D1E08E0028CDD1E08F0028CAD10A
:1043A0003FE0206B216800780873206B401C20637D
:1043B000E08E401EE0862EE02068816889070FD5D8
:1043C000E18E69B1B9F1010F0AD1216B097801734E
:1043D000206B401C2063E08E401EE0864FF00009F9
:1043E00020688168C9070CD0E18F51B1C068A16B0A
:1043F0000870A06B401CA063E08F401EE0874FF068
:104400000109FEF747FFA0EB0800B04202D3701C81
:1044100001D010E07EB1E08E0028CDD1E08F0028E1
:10442000CAD142463146204601F050FB28B101274F
:104430002020606507E0032705E0A06818B9206820
:10444000C16880680090012084F85100002084F841
:10445000500038462CE710B5401EB0F1807F01D3E4
:10446000012010BD4FF0E02460610F21601702F0C1
:10447000CFFF0020A06107202061002010BD704701
:1044800070B5026804461068D168536910F00F0FC8
:1044900053D003F0010501F490762E435FD0C2079C
:1044A00005D0CA0503D5E26B42F00102E263420780
:1044B00005D5DA0703D0E26B42F00202E26382071D
:1044C00005D5DA0703D0E26B42F00402E26302078B
:1044D00007D501F020022A4303D0E26B42F0080224
:1044E000E263E26B002A34D0800604D5880602D548
:1044F000204602F087FE20684069E16BC0F380101F
:1045000001F008010143204624D002F06DFE20682E
:10451000416949061AD5416921F040014161606B4A
:10452000A0B12D494163606BFEF74EFD002810D00D
:10453000606B416BBDE87040084783060FD58B0662
:104540000DD52046BDE8704002F05CBE2046FFF766
:1045500096FF70BDFFF793FF0020E06370BD030678
:104560002BD50B0629D594F839002128F6D1A0685F
:10457000B0F5805F01D12069B0B1206A411C216291
:10458000216800784860E08C401E0004000CE08444
:10459000E4D12068C16821F08001C1602068C16851
:1045A00041F04001C16070BD206A0088C0F308007E
:1045B0005060206A801C2062E5E74006F3D548067B
:1045C000F1D5D168204621F04001D160202184F846
:1045D000391000F074F970BDD971000870B504008D
:1045E00004D094F83900002510B106E0012070BD18
:1045F00084F83850204600F023F8242084F839004D
:104600002068C16821F40051C160204602F040FEDC
:104610002068016921F4904101612068416921F01D
:104620002A0141612068C16841F40051C160E5631D
:10463000202084F8390084F83A00002070BD000082
:1046400070B586B00024009401940294039403682A
:104650002E482D4E022103220515B34226D183692F
:1046600043F480438361836903F480430493836943
:1046700043F0040383618069254E00F00400049038
:104680000802CDE90001039269463046FEF708FDB5
:10469000CDE90054694630460294FEF701FD002240
:1046A00011462520FEF792FE252028E0194EB34240
:1046B00027D1C36943F48023C361C36903F4802312
:1046C0000493836943F0080383618069CDE9005155
:1046D00000F00800CDE903200F4D69462846FEF79B
:1046E000DFFCE814CDE90004694628460294FEF791
:1046F000D7FC002211462720FEF768FE2720FEF790
:1047000057FE06B070BD00000038014000100240A6
:104710000008014000480040000C014090F83A3089
:10472000202B22D1F9B1F2B190F83830012B1CD0F6
:1047300081628285C2850021C163222280F83A20ED
:1047400080F838100168CA6842F48072CA60016853
:104750004A6942F001024A610068C16841F02001E3
:10476000C1600020704701207047022070470000A0
:1047700070B5064600681E4900251E4C88420FD1C0
:104780001E491D4B227808681A54401C0860B0F579
:10479000007F00D30D60012216491948FFF7BEFFC4
:1047A00018493068884222D16068010412D441045B
:1047B000617804D50A290CD140F4004015E00D2998
:1047C00011D0C0F30D02104B401C63289954606057
:1047D00000D965600749BDE8704009480122491CBD
:1047E0004030FFF79BBF40F480406060F2E770BD4F
:1047F00000380140780100209802002008000020C5
:104800008406002000480040F40400202DE9F8430D
:10481000044690F839001F4616460D4620284CD114
:10482000C5B1BEB194F83800012846D0012084F803
:1048300038004FF00008C4F83C80212084F839008B
:10484000FEF728FDA6848146E684A068B0F5805F67
:1048500003D004E00120BDE8F883206928B12E468A
:104860005FF0000584F838800EE00026FAE780212A
:10487000204602F069FDA0B9AEB116F8010B21681F
:104880004860E08C401EE084E08C4B464FF0000214
:1048900000970028EBD14FF04001204602F054FD74
:1048A00030B10320D7E735F8020BC0F30800E6E784
:1048B000202084F839000020CDE70220CBE77047A4
:1048C0002DE9F04F95B004463022654906A8FBF764
:1048D00039FC64A12046FBF759FC801C044662A108
:1048E000FBF754FC4FF0000A074680F800A0204672
:1048F000FBF720FD0646B7F80100ADF81000F87888
:104900005A4D8DF8120001200DF11808686169698F
:1049100008EB810050F8041C04A803F0D3FD002824
:104920005CD068690024401C68610D28EFDB50A151
:10493000781CFBF72BFC81464BA1401CFBF726FCA7
:10494000804680F800A057464846FBF7F3FC8246B5
:1049500008F10100814647A1FBF718FC804607706B
:104960004846FBF7E7FC834608F10100814641A178
:10497000FBF70CFC804607704846FBF7DBFC07465C
:1049800008F10100FBF7D6FC0246EA6205F11805C2
:10499000504651C50BF1080165E80917012C1FD0DD
:1049A000032C1DD0052C1BD0072C19D0082C17D098
:1049B0000A2C15D00C2C13D0042C13D0062C11D09B
:1049C000092C0FD00B2C0DD04FF4C87390FBF3FCC7
:1049D00003FB1C0373B1830706D00DE06C69A6E7E7
:1049E0001F230AE01E2308E0642390FBF3FC03FB73
:1049F0001C030BB11D2300E01C2318290FDB183901
:104A0000761CC5E908619E4209DDF11A641CC5E9FE
:104A100007410C2C03DD401C0C3CC5E9060413487F
:104A200095F824100A300170477082705E3095F856
:104A300020108170297F4170297E0022A1F5FA6142
:104A4000C170A0F15E010C48FFF7AEF907490022E2
:104A500068310948FFF746F915B0BDE8F08F00004E
:104A60003CA900082C0000002000000010000020DD
:104A7000323000003A000000180600202DE9F04115
:104A8000574DA0B0074600244FF4007631465548F4
:104A9000AC60FBF770FB544A54A1684602F0A4FCDA
:104AA0004FF47A7258A16846FDF750FE40B157A006
:104AB000FDF7DCFD00283DD157A0FDF7D7FD28B359
:104AC0005A48FEF716FC31464648AC60FBF753FBEC
:104AD00064224DA156A0FDF739FE31464148AC6035
:104AE000FBF749FB6420FEF7BBFA80216846FBF721
:104AF00042FB4FF4FA78424643A151A0FDF726FE4F
:104B000080B142A0FDF7B2FDA0B903E0012020B0C2
:104B1000BDE8F08142463CA149A0FDF717FE08B16F
:104B20000320F4E74148FEF7E4FB31462D48AC6032
:104B3000FBF721FB454802F047FC454945A002F040
:104B400043FC42480F3002F03FFC40482D3002F059
:104B50003BFC414941A002F037FC3C48363002F0B2
:104B600033FC3A484E3002F02FFC01223DA11C4894
:104B700002F03AFC1A4802F027FC3448C01F02F049
:104B800023FC39A002F020FC6420FEF769FA06E05D
:104B90000A20FEF765FA35A0FDF768FD18B96868C8
:104BA000401E6860F4D16420FEF75AFA2821384686
:104BB000FBF7E1FA1D48FEF79CFB0A48007840B17C
:104BC0002CA10848FBF7E2FA01461F223846FBF702
:104BD000B9FA387808B1002099E7022097E7000079
:104BE00000000020980200206801002041542B435F
:104BF000495053544152543D22544350222C2225B3
:104C000073222C38300000004F4B000042616420BA
:104C10005265717565737400414C52454144592089
:104C2000434F4E4E45435445440000000C060020BF
:104C300041542B4349504D4F44453D310000000045
:104C400041542B43495053454E440000DBA8000813
:104C50008800002025730000A000002025730D0AA5
:104C600000000000256400003B0000004854545040
:104C700000000000446174653A20000070B50C46E5
:104C80001546810801F11F02D01E114602F01AF8E4
:104C900004F10B00C1B2204602F025F802F034F80E
:104CA000064E002405EB450504EBC500305CFCF71F
:104CB00003FF641CE4B2182CF6D370BD64A3000893
:104CC00070B50C461546810801F12102501F1146AE
:104CD00001F0F8FF04F11700C1B2204602F003F81A
:104CE00002F012F8064E002405EBC50504EBC500E2
:104CF000305CFCF7E1FE641CE4B2482CF6D370BDD6
:104D0000B4A700083EB50024104800940194029412
:104D10000D498460016001250573047505614FF438
:104D200060214460C161FDF79DFF08B1FDF7E0FE21
:104D3000CDE90045694605480294FDF711FF0028BA
:104D400001D0FDF7D5FE3EBD00240140DC0500206A
:104D50002DE9F04786B000244A480094019402945B
:104D60000394816941F010018161816901F01001B2
:104D70000491816941F020018161816901F0200184
:104D80000491816941F004018161816901F00401AC
:104D90000491816941F0080181618069DFF8E89040
:104DA00000F00800049000224FF4FB714846FEF723
:104DB0006CFADFF8D8A041F20207002239465046CB
:104DC000FEF763FA0122D1024846FEF75EFA4FF47D
:104DD0000078012241465046FEF757FA40F6F600A9
:104DE00001250226CDE90005CDE90246694648467F
:104DF000FEF756F90820CDE90004694648460294BA
:104E0000FEF74EF900970396CDE9015469465046E6
:104E1000FEF746F94FF48270CDE90004694650462A
:104E20000294FEF73DF92802009001AA112082E8C1
:104E3000510069464846FEF733F920200090144897
:104E4000CDE9010569465046FEF72AF9C0208DE8F4
:104E5000310069465046FEF723F90320CDE90250A0
:104E6000CDE9008569465046FEF71AF90022114641
:104E70001720FEF7ABFA1720FEF79AFA06B0BDE846
:104E8000F08700000010024000080140000C0140C3
:104E900000002110094810B5074901600621416052
:104EA00040F6FF718160FEF7FBF9002803D0BDE8F2
:104EB0001040FDF71DBE10BD003000400C06002064
:104EC0001CB5002418480194164900940160611E25
:104ED00041604FF480718160FEF79AFE08B1FDF7E2
:104EE00007FE8DF804408DF805408DF8064001223C
:104EF00001A90D48FEF758FF08B1FDF7F9FD0120A3
:104F00008DF800008DF801008DF8020002468DF842
:104F1000034069460448FEF7E5FE002801D0FDF78E
:104F2000E7FD1CBD00280040180600200F4810B502
:104F30000D4901604FF48271416000218160C160C0
:104F40004FF400720161C0E90512C1610162416262
:104F500081620A21C162FEF79AFF002803D0BDE8F2
:104F60001040FDF7C5BD10BD003800402C060020E4
:104F70000C4810B50A4901604FF4E131416000214D
:104F800081600C22C160C0E904128161C161FFF738
:104F900025FB002803D0BDE81040FDF7A9BD10BDDA
:104FA00000380140840600200C4810B50A49016011
:104FB0004FF4E1314160002181600C22C160C0E901
:104FC00004128161C161FFF709FB002803D0BDE82D
:104FD0001040FDF78DBD10BD00480040C406002004
:104FE00070B58CB002F01CFF00287DD11A26192064
:104FF000CDE90006FF2300220121AA20FDF743FA94
:10500000002211461046FFF75BFE714C606BFBF708
:10501000A8FB02460B466FA103A802F0E5F903AA1C
:1050200000212420FCF732F8012200216020FFF744
:1050300047FE022200218820FFF742FEA06BFBF70B
:1050400090FB02460B4665A103A802F0CDF903AA26
:105050000021AC20FCF71AF80C2003460022009037
:105060001D21104601F054FEE06BFBF77AFB02466F
:105070000B465CA103A802F0B7F903AA1D210D207D
:10508000FCF77AF82825CDE9006552231A4601215C
:10509000AA20FDF7F8F9228954A103A802F0A4F987
:1050A00054A21D215720FCF767F803AA1D21702088
:1050B000FCF762F8CDE90065AF231A460121AA206A
:1050C000FDF7E1F9E2884DA103A802F08DF94DA2A8
:1050D0001D21B420FCF750F803AA1D21DC20FCF7A9
:1050E0004BF80095FF2300E06FE000220121AA2089
:1050F0000195FDF7C8F945A229210020FCF73CF8ED
:1051000044A103A8A26C02F06FF903AA292132205E
:10511000FCF732F841A229216420FCF72DF8A2887F
:105120003FA103A802F060F903AA29217820FCF727
:1051300023F83426CDE90056AF231A460121AA20D0
:10514000FDF7A1F938A22921B420FCF715F8206C4D
:10515000FBF707FB02460B4634A103A802F044F913
:1051600003AA2921D820FCF707F80096FF23002284
:105170000121AA200196FDF786F904F1200007C855
:105180008DE80700D4E906232AA103A802F02CF930
:1051900003AA36216420FBF7EFFF606CFBF7E1FA0E
:1051A00002460B462AA103A802F01EF903AA3621E3
:1051B0000020FBF7E1FF28A103A8226B02F014F9FD
:1051C00003AA36213220FBF7D7FF0CB070BD0000D8
:1051D000100000202530322E326600002530322E9D
:1051E0003266250025362E30665061002530336446
:1051F00070706D00434F323A000000002530336478
:105200000000000054564F433A000000504D322E2B
:10521000353A0000253034647567000055563A0071
:10522000253034647557000047523A00252E306609
:10523000680000005550543A2530326425303264FD
:105240002530326420253032643A25303264000043
:10525000252E3266560000002564646200000000BE
:10526000FEE7704710B57D4C012280212046FEF7F5
:105270000CF80A20FDF7F4FE002280212046FEF7FC
:1052800004F80A20FDF7ECFE012280212046FDF7FC
:10529000FCFF0021AE2000F0E3F80021FD2000F02B
:1052A000DFF80121122000F0DBF80021B32000F02C
:1052B000D7F80121912000F0D3F80021CA2000F096
:1052C000CFF801213F2000F0CBF80021A22000F010
:1052D000C7F80121002000F0C3F80021A12000F050
:1052E000BFF80121002000F0BBF80021A02000F051
:1052F000B7F80121142000F0B3F80121112000F0CB
:10530000AFF80021B52000F0ABF80121002000F03B
:10531000A7F80021AB2000F0A3F80121084600F017
:105320009FF80021B42000F09BF80121A02000F09C
:1053300097F80121F82000F093F80021C12000F037
:105340008FF80121EF2000F08BF80021C72000F03A
:1053500087F80121FF2000F083F80021B82000F039
:105360007FF801210C2000F07BF80121182000F0CB
:1053700077F80121242000F073F80121302000F09B
:105380006FF801213C2000F06BF80121482000F06B
:1053900067F80121542000F063F80121602000F03B
:1053A0005FF801216C2000F05BF80121782000F00B
:1053B00057F80121842000F053F80121902000F0DB
:1053C0004FF801219C2000F04BF80121A82000F0AB
:1053D00047F80121B42000F043F80021084600F00E
:1053E0003FF80021B12000F03BF80121E22000F05D
:1053F00037F80021D12000F033F80121A22000F07D
:105400002FF80121202000F02BF80021BB2000F014
:1054100027F801211F2000F023F80021B62000F01A
:105420001FF80121082000F01BF80021BE2000F029
:1054300017F80121072000F013F80021A62000F042
:105440000FF80021A92000F00BF80020FDF751FB18
:105450000021BDE81040AF2000F002B80008014074
:1054600070B51A4E054609B1012200E00022402124
:105470003046FDF70AFF002202213046FDF705FF06
:105480000024002220213046FDF7FFFE280601D52A
:10549000012200E0002210213046FDF7F6FE012235
:1054A00020213046FDF7F1FE6806641C050EE4B2CB
:1054B000082CE6D3012202213046FDF7E6FE3046F5
:1054C000BDE8704001224021FDF7DFBE0008014029
:1054D000204B00B5187880B9587870B9987860B9C1
:1054E000D87850B9187940B9587930B9987920B935
:1054F000D87910B9187A00282AD0164802F016FC7C
:10550000154A5063181D02F011FC906311480830D1
:1055100002F00CFCD0630F480C3002F007FC106462
:10552000187C107053F8110F00BAD97820F0FF00E2
:1055300008439064988840BA9080D88840BA108117
:10554000188940BAD08003481B3002F0EFFB50644A
:1055500000BD0000B40400201000002000B5024689
:1055600002F0E4FB144B1860101D02F0DFFB5860E2
:1055700002F1080002F0DAFB986002F10C0002F080
:10558000D5FBD860D2F81100117D00BA20F0FF00E1
:1055900008431861B2F8150040BA9882B2F81700B3
:1055A00040BAD882B2F8190040BA188302F11B0041
:1055B00002F0BCFBD86100BDD404002070B50446E5
:1055C00002F0B4FB104D2860201D02F0AFFB6860B4
:1055D00004F1080002F0AAFBA86004F10C0002F03C
:1055E000A5FBE86054F8110F00BAE17820F0FF0045
:1055F00008432861A08840BAA882E08840BAE882BF
:10560000208940BA288370BD9804002070470000AC
:105610002DE9F04FB7B083460146402206A8FBF7BC
:105620007DFEDDE90E50824606A8FFF7C7FF474C16
:10563000A068FBF796F8804689466068FBF791F80A
:1056400006460F462068FBF78CF8024620690B4699
:10565000CDE903908DE8C0013DA116A801F0C4FE7C
:1056600016AA0D210020FBF74DFD02AE0AF0FF0344
:105670002A0EC5F30741C5F3072086E80F00E9B2FB
:10568000208BCDE90001E38AA28A38A116A801F097
:10569000ABFE16AA16210020FBF734FD3E48006839
:1056A000A0F5803140394DD040220BF1400106A8D1
:1056B000FBF734FE9DF81800FF2807D19DF819006C
:1056C000FF2803D19DF81A00FF283BD0DDE90E50DA
:1056D000824606A8FFF772FFA068FBF742F88146F2
:1056E00088466068FBF73DF806460F462068FBF7E2
:1056F00038F8024620690B46CDE903808DE8C002E8
:1057000013A116A801F070FE16AA1F210020FBF7B6
:10571000F9FC02AE0AF0FF032A0EC5F30741C5F3F8
:10572000072086E80F00E9B2208BCDE90001E38A6B
:10573000A28A0EA116A801F057FE16AA2821002061
:10574000FBF7E0FC37B0BDE8F08F000098040020C4
:10575000252E31664320252E3166252520252E3025
:105760006650612025647567000000002564755748
:1057700020256470706D20256470706220323025A1
:105780003032642530326425303264202530326472
:10579000253032640000000074000020010901EB94
:1057A000810100F00F0000EB4100C0B27047002102
:1057B00002E00A38C0B2491C0A28FAD2090740EAB6
:1057C000116070472DE9F04104460025C07B627BE3
:1057D000A37B42E0012A16D0032A14D0052A12D056
:1057E000072A10D0082A0ED00A2A0CD00C2A0AD078
:1057F000042A10D0062A0ED0092A0CD00B2A0AD06F
:10580000022A0DD028E01F2B0CD30C2A05D101222F
:105810001346401C20E01E2B04D30123521C1BE026
:105820001C2B02D203F1010316E011D183B29E07B3
:1058300010D16426B3FBF6F706FB173636B94FF4E2
:10584000C876B3FBF6F706FB17331BB91D2303E03D
:105850001D2B01D1032201236D1C8D42BAD3D1B27D
:10586000E0736173DAB2A27300F050F82073BDE800
:10587000F08170B50446FDF70DFD05464FF47A76CC
:1058800006E0FDF707FD401BB04201D9032070BDC3
:10589000206840688006F4D52068416841F0100116
:1058A0004160002070BD000070B50446006841688A
:1058B00021F010014160FDF7EDFC05464FF47A76CA
:1058C00007E000BFFDF7E6FC401BB04201D9032012
:1058D00070BD206840688006F4D5002070BD016866
:1058E000086A496A89B241EA0040704700688169E4
:1058F0008AB2C1698BB2816989B28A4203D0C06918
:1059000061F31F40704743EA02407047F0B56424DA
:10591000C1EBC1030927A500072603EB01130329E7
:10592000B3FBF7F100F5FA60114401440AD2401EBE
:10593000B0FBF4F201EB9001B0FBF5F0891A0844DA
:10594000001D08E0B0FBF4F201EB9001B0FBF5F0B4
:10595000891A0844801CB0FBF6F106FB1100C0B2A6
:10596000F0BD70B50D4606460024FFF782FF48B92A
:105970003168280C08623168A8B248623046FFF7E7
:1059800093FF00B10124204670BD70B50D46064658
:105990000024FFF76EFF48B93168280C8861316830
:1059A000A8B2C8613046FFF77FFF00B1012420464E
:1059B00070BD00000748064901600749416007497A
:1059C00081600749C160074901610749416170472A
:1059D0006D60000804070020E76A0008B16B00084A
:1059E000596000089D6B00082D6A000800B50C483E
:1059F00093B0416EB1F5803F10D0402268464039E7
:105A0000FBF78CFC202269460648FAF79BFBDDE990
:105A10000801CDE9100110A802F03EFA13B000BD54
:105A200010000020B404002038B5104C0122616E33
:105A300003E0616E4031012261666846FBF76EFC4F
:105A40009DF80000FF28F4D10849606EE131020C96
:105A50008A71020ACA7108720020FBF7C9FB034869
:105A600072220021E130FBF78FFC38BD10000020CE
:105A7000F8B5044640684FF48273984217D1A06885
:105A80004FF48065B0F5004F01D0A8420FD12068D7
:105A9000066826F0400606606068984207D1A06854
:105AA000A84204D100920B460022012103E000929B
:105AB0000B4600228021204600F018F8002804D070
:105AC000606D40F0200060650320F8BD38B50B46DE
:105AD000009204460022802100F008F8002804D03B
:105AE000606D40F020006065032038BD2DE9F8436B
:105AF0001E46914688460446089DFDF7CBFB401B99
:105B0000351AFDF7C7FB074625480068C0F3CB30C0
:105B1000684338E0701C37D0FDF7BCFBC01BA842BF
:105B200003D215B1009860B32CE02068416821F0E1
:105B3000E00141606068B0F5827F0BD1A068B0F5EC
:105B4000004F02D0B0F5806F04D12068016821F0C9
:105B500040010160A06AB0F5005F09D120680168CA
:105B600021F4005101602068016841F40051016096
:105B7000012084F85100002084F850000320BDE883
:105B8000F8830025401E00902068816838EA0100F3
:105B900004D000214945BDD10020F0E70121F9E7FB
:105BA0002C0200207047000030B50C48C16991F804
:105BB000270000F0070291F83000C409521C10F0D1
:105BC000060300D0012391F83210224402251A4422
:105BD00005EAD0001144084430BD000088010020CF
:105BE000044A53890B80002353810A880249FAF73B
:105BF000A9BA0000880100208C0700202DE9F05F81
:105C0000D54C012720466278C069DFF85093D44D07
:105C10004FF000084FF0050B4FF0200A00F1400153
:105C20003E460C2A7ED2DFE802F07D065792F0EF66
:105C3000EEEDECEBEAE990F83020D20601D54C22EB
:105C400000E00C2280F84020E12280F8412002226E
:105C5000402000F0BFFF052000F0C6F94FF480712E
:105C6000BE48FAF788FABC4838304068FAF734FD85
:105C700006468946FFF798FFFAF72EFD0322FAF74A
:105C8000FAFC32464B46FAF787FC0022B54BFAF78E
:105C900011FC02F037FC0022B34BFAF764FBFAF771
:105CA00047FD80B200EB50002062606228682061EE
:105CB0006061E069A02180F83510352000F084FF94
:105CC00084F8028084F8038084F8048084F80580D6
:105CD000A4F80A80022033E100F0FAFE012804D182
:105CE000A07810B9A6702868606100F0E3FE012872
:105CF00013D1A07888B1E07878B9E67000F050F957
:105D0000C4E90C0100F032F9A06200F05FF9E07123
:105D100028682061606103206070A078E178884382
:105D20000FD000E08AE028686169401A616A884201
:105D300007D96670E069407B40F020010D2000F03B
:105D400043FFE078A1780843217908433BE060896C
:105D5000B0F5807F01D90620F2E000F0A5FE012811
:105D60002CD16089617908430DD1E06990F8301039
:105D7000090605D5784801210A3000F0AFFE02E09F
:105D800090F832006081618960790A1AE16991F8BE
:105D9000351001F03F018A420ADD484400F09EFEC2
:105DA000E069617990F8350000F03F00084404E0B4
:105DB000D1B2484400F092FEA07A607100F06EFE0D
:105DC000012802D0207980B3C3E02868206160896F
:105DD00062794FF0040550EA020104D0801AC1B282
:105DE00009EB02001AE0E06990F8301009060DD5C1
:105DF000594801210A3000F071FE0AE0A6E0A1E056
:105E000076E052E03AE02CE01EE018E090F8320034
:105E10006081A17A6079091AC9B2484400F05EFE37
:105E2000A07A60712671657093E0FFE728682169A8
:105E3000401A216A884201D984F801B089E084F8C7
:105E400005806670022784E084F80580A4F80A8043
:105E5000407B40F020010D2000F0B6FE6670032765
:105E600077E084F80580A4F80A80407B40F02001A8
:105E70000D2000F0A9FE667006276AE080F84060F9
:105E800080F841A00222402000F0A4FEE0699821A1
:105E900080F83510352000F097FE032000F0A4F8BC
:105EA0000820607084F8068053E000F00BFE0128A3
:105EB0004FD1E06990F83000000604D52648012152
:105EC0000C3000F0B1FEA089411E3F2901D820709E
:105ED00002E0504684F800A0C1B2204800F0A4FEC1
:105EE000A07921780844A0712868A061092027E0E2
:105EF00000F0DAFD90B9A189A0790A1A21788A42C6
:105F000006DD484400F090FEA0792178084404E0C2
:105F1000D1B2484400F088FE207BA07100F0BEFDA5
:105F2000012806D12868A0610A206070012000F0D5
:105F30005BF82868A169401AB0F57A7F09D90B206F
:105F4000607006E084F80180042702E084F8018094
:105F500005273846BDE8F09F880100208C07002007
:105F60001C02002000408F400000F03F10B50A4C9A
:105F700002221B20E1691B3100F066FDE069B0F8E8
:105F80001B0040BAFAF7A8FB0022044BFAF792FA7A
:105F9000BDE81040FAF7ADBB8801002080844E4078
:105FA00010B5084C1120E169113100F049FDE0699C
:105FB000407CFAF791FBBDE810400022024BFAF753
:105FC00079BA0000880100200000E0BF10B5054C40
:105FD0000C20E1690C3100F033FDE069007B4009E1
:105FE00010BD00008801002070B50F4C0546002050
:105FF000E169497821F0F80121728D4213D0032D17
:1060000000D10120617A884202D0607200F011FE56
:10601000E069417801F0F80129434170BDE8704022
:10602000012000F0D1BD70BD8801002001494870F9
:10603000704700008801002010B5054C0A46A18178
:1060400001460448FAF77EF80720607010BD000092
:10605000880100208C070020034A12780AB100F062
:1060600039B8FFF7BDBD000086010020114908B511
:106070000F4808601049086000F02AF800F033FD6E
:106080006946062000F0DCFC05E00CA001F09CF95C
:106090006420FCF7E5FF9DF800006C28F5D10B4962
:1060A0000120087000F02EFD00F020F808BD00006F
:1060B0001C070020A4010020F00100204861726448
:1060C0002053504920457272210D0A00860100209C
:1060D00070470000034BDA880A800021D98002490A
:1060E000FAF730B8E00100208C08002070B5264D8A
:1060F0000020287000F0C2FA244C6F22611C01209D
:1061000000F0A2FC296920206F220873611C012085
:1061100000F060FD05F12004206800F09DFBA079EF
:1061200000F02AFCE07900F0B1FA207A00F068FB78
:10613000607900F009FC607A00F0C2FA40F2FF30AA
:1061400000F044FC207E00F075FB012000F0D0FA46
:106150000F492068884207D9802000F019FB0120F0
:1061600000F02CFB142006E0002000F011FB0020C2
:1061700000F024FB0E20207100F092FBBDE870407F
:10618000012000F0E3BA0000E00100201C0700201D
:106190000057A6162DE9F84FF94C0126DFF8E483E5
:1061A0002078DFF8E4A30027B1464FF0020B04F19A
:1061B00020050B287ED2DFE800F07D064F98F2F133
:1061C000F0EF7DEEED00012000F0C0FA20699D2186
:1061D0004174112000F0F8FCE87A012829D02169E7
:1061E000FF2081F82400206990F82410242000F07A
:1061F000EBFC21690222402001F83F7F4F7000F044
:10620000E9FCA87A012825D02069C17B41730D20C3
:1062100000F0DAFC5FF0050000F098FA4FF48071AE
:10622000DA48F9F7A8FF68696061DAF80000E06011
:106230006BE02169287B81F824001C201C3100F0D0
:10624000FFFB2069007F00F03F0158F8210000F0BB
:1062500003FBC8E70620DFE700F020FC012818D187
:10626000DAF80000E060E87A01280CD121691C20EE
:106270001C3100F0E5FB2069007F00F03F0158F879
:10628000210000F0E9FA4021122000F09DFC0320DB
:10629000207000F00FFC01281BD1DAF80000E0604C
:1062A000E87A01280ED121691C201C3100F0C8FBBE
:1062B000206900E02BE0007F00F03F0158F821004A
:1062C00000F0CAFA0221122000F07EFC00F0C8F9AA
:1062D0006070A87A01281AD1DAF80000E168401A43
:1062E0006169884213D9042012E121691220123118
:1062F00000F0A6FB2069807C80060CD520211220AE
:1063000000F062FCA87A012802D084F800B073E1A2
:1063100084F8009070E16946192000F091FB9DF827
:106320000000010605D5C043401CC0F38500404273
:1063300000E08008207196492868DFF8488288428A
:10634000DFF850A294F90400A8F1F00828D2002840
:1063500013DAFAF7B0F90F466979064608EBC1017E
:106360000022D1E900015346FAF7A4F800228A4B33
:10637000F9F7F9FF0022894B27E021691A201A3129
:1063800000F05EFB2069807EFAF7A6F97D4B6A7902
:10639000A03B2BE022E10BE104E1CEE07CE077E0E2
:1063A000002817DAFAF787F90F466979064608EBED
:1063B000C1010022D1E900015346FAF77BF800221F
:1063C000754BF9F7D0FF0022754BF9F7CCFF324639
:1063D0003B460FE021691A201A3100F031FB206999
:1063E000807EFAF779F9674B6A79503B03EBC20379
:1063F000D3E90023F9F7B7FFC4E90601A87A012819
:1064000020D021691020103100F01AFB687A012891
:106410002ED021691320133100F012FB2069C17CBA
:10642000E180017C41730D2000F0CEFB2069C17C2E
:10643000564800F053FBA87A012826D084F800B013
:106440000226D9E02069C17B41730D2000F0BCFB1E
:10645000687A012808D021691320133100F0F0FA7E
:106460002069C17CE180E3E7206990F82210F9E718
:10647000206990F82210E180017C41730D2000F02A
:10648000A3FB206990F82210D2E784F80090D7E7A8
:1064900084F800900326AFE0012000F057F9E87A75
:1064A000012837D02069F721417480F824702069D1
:1064B00090F82410242000F087FB2069417C1120F3
:1064C00000F082FB2069217A80F82210222000F05F
:1064D0007BFB2069394687730E2000F075FB20692D
:1064E000817B41730D2000F06FFB206990F8221032
:1064F000264800F099FB21694120022201F83F0F54
:106500004020487000F066FB032000F01FF90620D1
:10651000207071E02169F5204874287B81F82400FF
:106520001C201C3100F08CFA2069007F00F03F0134
:1065300058F8210000F090F9B9E700F0AFFA01280F
:1065400005D10821122000F03FFB0720207000F049
:10655000B1FA012850D1E87A01280CD121691C2018
:106560001C3100F06DFA2069007F00F03F0158F8FF
:10657000210000F071F90221122000F025FB3BE020
:10658000E001002060AA00081C0200208C08002006
:10659000008F42330000244000C065C0000010405E
:1065A00000001840012000F0D1F82770042623E0F5
:1065B000012000F0CBF82069FA214174112000F08D
:1065C00003FB21690222402001F83F7F4F7000F059
:1065D00001FB072000F0BAF80A2099E700F072FAF0
:1065E000012809D10421122000F0EEFA00F070FA1F
:1065F000012804D0277007263046BDE8F88F012116
:10660000122000F0E1FA84F800900826F4E7000078
:1066100070B5104D1B2029691B3100F011FA05F1EE
:1066200020040D49206888422869C07E04D2FAF708
:1066300053F86279094B04E0FAF74EF8074B627998
:10664000503303EBC203D3E90023BDE87040F9F7F0
:106650008ABE0000E0010020008F4233C0A900087C
:1066600010B5054C0C2021690C3100F0E9F92069C6
:10667000007B400910BD0000E001002002480169D4
:106680004220413100F0DCB9E001002070B50A4D34
:1066900004461D2029681D3100F0D2F92868417F89
:1066A00001F0F10141EA4401C9B241771D2000F037
:1066B0008BFA0248C47170BDF00100200002002076
:1066C00070B5094D04461D2029681D3100F0B8F948
:1066D0002868417F01F0FE01214341771D2000F031
:1066E00073FA0248447270BDF001002000020020DD
:1066F00070B50A4D044626202968263100F0A0F91D
:10670000286810F8261F01F0F70141EAC401017062
:10671000BDE87040262000F057BA0000F0010020CC
:1067200070B5094D044631202968303100F088F9F0
:10673000286810F8301F01F0F80121430170BDE80E
:106740007040312000F040BAF001002070B50F4CCD
:10675000054600202169497821F0F801A1708D4299
:1067600013D0032D00D10120E178884202D0E070DF
:1067700000F05FFA2069417801F0F8012943417087
:10678000BDE87040012000F01FBA70BDE00100209C
:1067900070B5094D044609202968093100F050F907
:1067A0002868417A01F07F0121434172BDE87040C1
:1067B000092000F009BA0000F001002070B50F4C6C
:1067C00005464D2021684C3100F03AF92168092036
:1067D000093100F035F92168487A00060BD51DB162
:1067E0005FF0870081F84C0091F84C10BDE87040D4
:1067F0004D2000F0E9B98420F4E70000F00100200A
:1068000070B50A4D04461E2029681E3100F018F9A3
:106810002868817F01F0FB0141EA840181771E2015
:1068200000F0D2F90248047270BD0000F0010020AF
:106830000002002010B5044605482146006880F893
:106840002240222000F0C0F90248047610BD00006A
:10685000F0010020000200200D4910B5096808442D
:106860000C490860F9F738FF00220B4BF9F794FE4A
:10687000F9F75EFF0949020C096801F8062F020AC0
:106880004A7088700322BDE81040062000F0A2B9CB
:10689000640100200002002080844E40F0010020AE
:1068A00070B5244D044609202968093100F0C8F864
:1068B00029684D204C3100F0C3F82868417A0A0657
:1068C00028D590F84C3087229A4303D0022C0EDA58
:1068D00002240FE0052C01DA052402E0142C00DD6F
:1068E000142401F0F00141F07001621F07E0112C47
:1068F00000DD112401F0F00141F07001A21E02F050
:106900000F0211434172C9B2092000F05DF90A4833
:10691000047170BD4FF0FF32944201DA144602E078
:106920000E2C00DD0E2401F0F00141F07001621C1C
:10693000E5E70000F0010020000200200149087096
:1069400070470000E001002070B5094D04461D208D
:1069500029681D3100F074F82868417F64F31F1125
:10696000C9B241771D2000F02FF90248447170BD73
:10697000F00100200002002070B504460C2801D967
:106980000C2408E0062C02D24FF0060400E002D1ED
:106990004FF0050001E04FF00300FFF7C1FE094D85
:1069A0001E2029681E3100F04BF82868817F64F3AF
:1069B0001F11C9B281771E2000F006F902488471C8
:1069C00070BD0000F00100200002002070B50C4DE9
:1069D0000446022229681E201E3100F035F829687D
:1069E000032202EA142211F81E0F00F0FC001043EB
:1069F00008704C70BDE8704002221E2000F0EAB81A
:106A0000F001002010B5074A064CD27A203C02B1B2
:106A1000FF2121818AB201460348F9F793FB052043
:106A2000207010BD000200208C0800200348007870
:106A300008B1FFF7AFBBFFF7E1B800008601002007
:106A4000012200F001B800002DE9F84300F07F00BA
:106A5000104E144688468DF800004FF40075002251
:106A600029463046FCF711FC4FF6FF773B460122E2
:106A700069460948FDF74BFB3B462246414606481E
:106A8000FDF798FA012229463046FCF7FEFBBDE8E7
:106A9000F8830000000C01402C060020042101486E
:106AA000FCF7EEBB000C014040210148FCF7E8BBBD
:106AB000001001404FF480710148FCF7E1BB000079
:106AC000000C014008210148FCF7DABB001001402E
:106AD00010210148FCF7D4BB001001400A460146D2
:106AE0000020FFF7B1BF10B5012000F04BF80120E6
:106AF000FCF7B6FA002000F045F8BDE8104006208B
:106B0000FCF7AEBA70B51C494A78824232D0487060
:106B100008701A4C1A4D00284FF0000016D0FFF7ED
:106B200015FE2068417841F080014170012000F09D
:106B30004BF80120FFF70AFE21680020022201F82D
:106B40003F0F4870402000F045F80CE0FFF7FEFDD5
:106B50002068417801F07F014170012000F034F895
:106B60000120FFF7F3FD691CBDE870406F22012092
:106B7000FFF76ABF70BD000086010020F001002011
:106B80001C070020044B012804D0012202211846D2
:106B9000FCF77BBB0022F9E7000C0140034A1278A6
:106BA0000AB1FFF72FBFFFF747BA000086010020A8
:106BB0000448007800284FF0010001D0FFF7BEBE66
:106BC000FFF734BA8601002013B5012201A900F0B5
:106BD00001F81CBD2DE9F84340F08000104E14462A
:106BE00088468DF800004FF4007500222946304693
:106BF000FCF74BFB4FF6FF773B46012269460948FD
:106C0000FDF785FA3B46224641460648FDF77FFAE6
:106C1000012229463046FCF738FBBDE8F883000026
:106C2000000C01402C0600200A4601460020FFF718
:106C3000D1BF70473EB540212048F9F79CFA1F4963
:106C40002022C0391D48F9F77DFA01A801F0A4FC03
:106C50001A48019940381A4C0166BDF80810A0F88E
:106C600064100122616E03E0616E403101226166B1
:106C70006846FAF753FB9DF80000FF28F4D1402244
:106C80000E48616EFAF780FB40220C48616EFAF7FD
:106C900045FB606E0A494030E131020C60668A7142
:106CA000020ACA7108720020FAF7A2FA0448722296
:106CB0000021E130FAF768FB3EBD000074050020BA
:106CC0001000002070B50D46044600211520FEF787
:106CD000C7FB01212046FEF7C3FB2846BDE87040F4
:106CE0000121FEF7BDBB70B50D460446002175209D
:106CF000FEF7B6FB01212046FEF7B2FB2846BDE8B1
:106D000070400121FEF7ACBB00215C20FEF7A8BB60
:106D10002DE9F0411032069D88460646D7B21C4642
:106D20006D1C08E0224641463046FDF7A7FFF019EA
:106D3000641CC6B2E4B2AC42F4D3BDE8F081FCF707
:106D4000DFBA30B593B028216846F9F714FA142158
:106D50000AA8F9F710FA00240F94109411940D204A
:106D60004FF4803112948DE8130001200225CDE903
:106D70000605039004904FF4E010CDE90810684632
:106D8000FCF722FD00B1FEE70F20CDE90A054FF424
:106D90008060CDE90C4002210AA80E94FCF728FC83
:106DA00000B1FEE703200F904FF480701090C001F7
:106DB00011900FA8FCF7A6FB002800D0FEE713B047
:106DC00030BD00000D48016841F0010101604168DB
:106DD0000B4A1140416001680A4A11400160016894
:106DE00021F480210160416821F4FE0141604FF4EB
:106DF0001F0181600449C003086070470010024011
:106E00000000FFF8FFFFF6FE08ED00E02DE9F04F6F
:106E100000248BB04FF0FF352046FBF76AFEDFF809
:106E20007C83DF4FDF4E4FF00E0A4FF0010BA1467F
:106E3000DD48FCF75EFA0D23002234210A20CDF84C
:106E400000A0FFF765FF052D23D0D8A23421002034
:106E5000FAF758F9C5EBC50000EB80003C30C0B232
:106E6000D3A22C21FAF712F9B8F80000011B03296C
:106E700015DD0446C5EBC50000EB80003C30C0B218
:106E8000CAA22C21FAF702F96D1C052D18DB052585
:106E900016E0C8A234210020FAF734F9E4E7211AF9
:106EA00003290DDD0446C5EBC50000EB80003C3036
:106EB000C0B2BEA22C21FAF7E9F86D1E00D500255C
:106EC000B0787A7839788DE807007378F278BAA1CB
:106ED00003A800F089FA03AA14211E20FAF7D6F8B5
:106EE000FBF788FC0128A3D1052D1BD04DB3012D44
:106EF0005BD0022D7ED0032D7DD0042D98D1AA48E1
:106F0000FCF7F7F9B8F80000011B032974DD04460B
:106F10007878401CC1B2481C78703C2901D387F8AE
:106F2000019025E10020FBF7E4FD4021CDE900912F
:106F30005F231A460221DD20FBF7A5FA0BB0BDE85E
:106F4000F08F9948FCF7D5F9B8F80000011B032928
:106F50000ADD0446F078401CC0B2411CF170632881
:106F60000ED386F803900BE0211A032908DD0446AE
:106F7000F078401E10F0FF00F07001D16320F07037
:106F8000B0787A7839788DE807007378F2788AA13A
:106F900003A800F029FA03AA14211E20FAF776F8B4
:106FA000FBF728FC0128CCD197E07F48FCF7A1F93A
:106FB000B8F80000011B03290ADD04467078401C64
:106FC000C0B2411C71700D280ED386F801B00BE0E1
:106FD000211A032908DD04467078401E10F0FF00D6
:106FE000707001D10C207070B0787A7839788DE8A3
:106FF000070002E011E076E0AEE07378F2786EA16F
:1070000003A800F0F1F903AA14211E20FAF73EF8B4
:10701000FBF7F0FB0128C8D15FE06348FCF769F992
:107020007378012B1ED0032B1CD0052B1AD0072BF5
:1070300018D0082B16D00A2B14D00C2B12D0042BEE
:1070400012D0062B10D0092B0ED00B2B0CD0F078C1
:107050004FF4C871B0FBF1F201FB120161B181077D
:1070600004D00BE01F200AE01E2008E06421B0FBE2
:10707000F1F201FB120008B11D2000E01C20B8F85D
:1070800000100A1B032A0ADD0C46B178491CC9B25C
:107090004A1CB27081420DDB86F802B00AE0621A27
:1070A000032A07DD0C46B178491E11F0FF01B170CB
:1070B00000D1B070B0787A7839788DE80700F2782E
:1070C0003DA103A800F090F903AA14211E20F9F7AE
:1070D000DDFFFBF78FFB01289FD1002231493D489E
:1070E000FCF700FEA4E63048FCF703F9B8F800000E
:1070F000011B03290ADD04463878401CC0B2411C3C
:10710000397018280ED387F800900BE0211A032954
:1071100008DD04463878401E10F0FF00387001D1B9
:1071200017203870B0787A7839788DE8070073784E
:10713000F27821A103A800F057F903AA14211E2018
:10714000F9F7A4FFFBF756FB0128CCD10022144924
:107150002048FCF729FE6BE6211A032908DD0446C6
:107160007878401E10F0FF00787001D13B207870D5
:10717000B0787A7839788DE807007378F2780EA1C4
:1071800003A800F031F903AA14211E20F9F77EFFAD
:10719000FBF730FB01287FF4B2AED7E78401002073
:1071A0001A000020780000200C06002020000000BB
:1071B0005E0000003E0000003230253032642D2594
:1071C0003032642D2530326420253032643A253047
:1071D000326400001806002010B5406A0021C18505
:1071E000C184FDF74CF910BD0168CA6822F49072A1
:1071F000CA6001684A6922F001024A61202180F8D0
:107200003A10704710B590F83A10222901D00220A8
:1072100010BD82684FF480539A4201D1016921B1B7
:10722000816A9A421BD04AB10AE00268816A5268B8
:10723000C2F308020A80816A891C08E0026972B1FF
:107240000268526802F07F020A70816A491C8162FA
:10725000C18D491E0904090CC18503D016E00268DE
:107260005268F1E70168CA6822F02002CA6001682A
:10727000CA6822F48072CA6001684A6922F0010279
:107280004A61202180F83A10FDF772FA002010BD03
:1072900070B5044600680169E26821F44051114369
:1072A00001612169A0680843616908432168CA68CF
:1072B00041F20C639A430243CA6020684169A269A3
:1072C00021F44071114341611E492068884202D176
:1072D000FCF734FA01E0FCF721FA00EBC00101EB06
:1072E0000012606864218000B2FBF0F3B3FBF1F39D
:1072F0006FF018067343B2FBF0F5B2FBF0F605EB46
:107300008305322303EB0515B5FBF1F5B6FBF1F66A
:1073100005F0F00505EB0615B2FBF0F6B2FBF0F058
:10732000B0FBF1F06FF01802504306EB800003EB66
:107330000010B0FBF1F0216800F00F0028448860D5
:1073400070BD0000003801402DE9F0419846174615
:107350000E460446069D1DE0681C1BD02DB1FBF7B0
:1073600099FFA0EB0800A84214D92068C16821F455
:10737000D071C1602068416921F001014161202084
:1073800084F8390084F83A00002084F8380003209B
:10739000BDE8F0812068006836EA000004D00020D3
:1073A000B842D9D00020F3E70120F9E70148FDF702
:1073B00067B80000840600200148FDF761B80000AE
:1073C000C4060020FEE700000FB4054B10B503A96A
:1073D000044A029800F002F910BC5DF814FB0000AA
:1073E000817E0008800100200FB4084B10B504A96D
:1073F00002AA039800F0F2F8044602A9002000F067
:1074000084FC204610BC5DF814FB00000B7D0008D6
:107410000907090E002804DB00F1E02080F80014C1
:10742000704700F00F0000F1E02080F8141D704755
:10743000004870473002002002E008C8121F08C14F
:10744000002AFAD170477047002001E001C1121FE5
:10745000002AFBD1704700002DE9FF5F82B00021B8
:10746000DDE90430020DDDF840B0034318D044F6E6
:107470001050A2F2FF3242431514119801281FD078
:10748000A5EB0B00401C5FEA000A4FF000064E4FD0
:10749000DFF83891B046504615D5CAF1000413E024
:1074A000119801244AA3012801D16FEA0B01029827
:1074B000119AC0E90031C0E9024206B0BDE8F09F70
:1074C000CBF10000DFE704460021404A491842EBB7
:1074D0000450CDE9001012E0E00707D032463B46E9
:1074E00040464946F8F7E6FF8046894632463B4625
:1074F00010461946F8F7DEFF06460F466410002CCA
:10750000EAD1DDE90401DDE90023BAF1000F06DA72
:10751000F8F7D0FF42464B46F8F7CCFF05E0F9F705
:107520003BF842464B46F9F737F804460E46002230
:10753000284BF9F741F903D84FF0FF30014607E037
:107540000022254B20463146F8F70DFFF9F706FBE0
:10755000102409E0002C0ADB0A220023F9F75AF96B
:10756000039B30321A55641E50EA0102F2D1641CAA
:10757000039AC4F111031444119A012A03D0012281
:1075800008430DD10AE0084304D000204FF0110B4E
:10759000119072E7A3EB0B056D1E0DE05B4504DD5A
:1075A0004FF0000205F1010504E003DA4FF000029C
:1075B000A5F10105002AECD002981199C0E9023129
:1075C000C0E9004579E70000000014400000F03FEA
:1075D000300000000000F0430000E03F2DE9FF4FC5
:1075E00095B09B468946064600250FE2252877D1AF
:1075F00000242746F84A0121059400E0044316F8C8
:10760000013F203B01FA03F01042F7D130782A28DD
:1076100011D06FF02F033078A0F13002092A16D86C
:10762000059A44F0020402EB820203EB420210448A
:10763000761C0590EFE759F8042B0592002A03DA2F
:10764000504244F40054059044F00204761C307813
:107650002E2816D116F8010F44F004042A280DD064
:107660006FF02F023078A0F13003092B09D807EB17
:10767000870302EB4303C718761CF3E759F8047B32
:10768000761C30786C280FD006DC4C2817D0682880
:107690000DD06A2814D104E0742810D07A280FD1B4
:1076A0000DE044F400140AE044F4801401E044F4D2
:1076B00040147278824202D104F58014761C761C44
:1076C000307866280BD013DC582877D009DC0028E6
:1076D00075D04528F6D04628F4D047281AD19DE128
:1076E00018E0632835D0642879D0652812D195E157
:1076F000702873D008DC6728F1D069286FD06E2815
:107700000DD06F2806D1B5E073282CD0752875D020
:10771000782874D05A46179990476D1C75E1C4F3C8
:107720000250022809D003280DD0D9F800100428EF
:107730000DD00D6009F1040967E1D9F80010EA17CE
:10774000C1E90052F6E7D9F800100D80F2E70D709C
:10775000F0E719F8041B8DF8001000208DF80100E7
:10776000EA46012003E059F804AB4FF0FF3061070F
:107770004FF0000102D40DE008F101018846B94242
:107780000FDA8045F8DB1AF808100029F4D108E078
:1077900008F1010188468142FADB1AF80810002935
:1077A000F6D105985B46A0EB080721463846179AA4
:1077B00000F094FA284400EB080507E04DE029E1C9
:1077C0000DE01AF8010B5A4617999047B8F10108D5
:1077D000F7D25B4621463846179A13E142E00A2267
:1077E0000092C4F302524FF0000A022A08D059F85E
:1077F00004CB032A4FEAEC710AD00DE029E02AE01D
:1078000009F1070121F00702F2E802C1914609E0FF
:107810000FFA8CFC4FEAEC71042A03D14FFA8CFC6E
:107820004FEAEC71002907DA0A460021DCF1000C6E
:1078300061EB02012D2202E0220504D52B228DF8F6
:107840000420012203E0E20701D02022F7E790465E
:1078500059E00A2102E010220DE010214FF0000A49
:1078600000910BE010224FF0000A44F004040827B6
:10787000009203E008224FF0000A0092C4F3025283
:10788000022A05D059F804CB0021032A08D009E0C8
:1078900009F1070121F00702F2E802C1914605E073
:1078A0001FFA8CFC042A01D10CF0FF0C4FF00008E9
:1078B000220728D5702806D0009B83F0100353EAD6
:1078C0000A0305D00EE040228DF80420012208E0D2
:1078D0005CEA010206D030228DF804208DF8050004
:1078E00002229046009B83F0080353EA0A030AD160
:1078F0005CEA010201D1620705D530228DF804202F
:107900004FF001087F1E582804D034A003900EA821
:1079100002900DE036A0F9E753466046009AF8F76A
:1079200079FF84460398825C0298401E02900270A0
:107930005CEA0100F0D1029806A9081A00F1200AB9
:10794000600702D524F4803400E00127574502DDAA
:10795000A7EB0A0000E0002000EB0A010090059868
:107960004144401A0590E00306D45B462146179A2D
:10797000059800F0B3F90544002706E001A85A462F
:10798000C05D179990476D1C7F1C4745F6DBE003EF
:107990000CD55B462146179A059800F09FF90544DF
:1079A00004E030205A46179990476D1C0099481EF4
:1079B00000900029F5DC08E0029802995A46007808
:1079C000491C0291179990476D1CBAF10001AAF168
:1079D000010AF1DC65E10000092801003031323391
:1079E00034353637383961626364656600000000FB
:1079F00030313233343536373839414243444546E5
:107A00000000000000F058F90544761C307800288A
:107A10007FF4ECAD19B02846BDE8F08F620700D4C2
:107A2000062709F1070222F0070CFCE80223E146D1
:107A300003F000485FEA080C02D00FF2702C0DE052
:107A40005FEA045C02D50FF2682C07E05FEAC47CB1
:107A500002D00FF2602C01E0AFF2700C4FF0FF3853
:107A600023F00043CDF850C065280CD006DC452833
:107A700009D046281DD047283DD13DE0662818D0C2
:107A800067287ED138E00021112F01DB112000E0B2
:107A9000781CCDE9000106A90EA8FFF7DDFCDDE9A1
:107AA0000F010E9A03910021009207F1010A04913F
:107AB0004DE04FF000400097CDE9011006A90EA857
:107AC000FFF7CAFCDDE90F0203920E9B1199002219
:107AD000DDF80CA00093049211B9791C00EB010AA7
:107AE000B7EB0A0004D4C0F1FF3007F1010A04909B
:107AF000AAEB0700019044E0012F00DA01270021E2
:107B0000112F01DD112000E03846CDE9000106A962
:107B10000EA8FFF7A1FCDDE90F010E9A03910021E9
:107B200004910092BA4621070CD40399514500DA1A
:107B30008A46BAF1010F05DD009AAAF10101515CF4
:107B4000302908D0B84202DA10F1040F06DA012118
:107B5000CDE9011015E0AAF10101E9E7002805DCF3
:107B6000049901440491AAEB000102E0411C514533
:107B700000DD8A460499401A401C01904FF00040F5
:107B80000290200704D40198504501DBCDF8048011
:107B900000208DF84F0002980DF14F07B0F1004F13
:107BA00025D02B200E9002984FF0020800280CDA06
:107BB000404202902D200E9007E00A210298F8F72B
:107BC00013FE3031029007F8011DB8F10001A8F151
:107BD0000108F2DC02980028EFD1791E0E98087097
:107BE000307800F0200040F0450007F8020D12A8A0
:107BF000C01B00F107081498007800B1012000EBC9
:107C00000A01019801EBE07105984144401A401EB9
:107C10000590E00306D45B462146179A059800F0CC
:107C20005DF805441498007818B15A4617999047A2
:107C30006D1CE00324D55B462146179A059800F099
:107C40004DF805441CE00498002807DBDDE903013A
:107C5000884203DD0098405C179901E017993020B5
:107C60005A469047049805F10105401C049001987C
:107C7000401E019004D12E205A46179990476D1C42
:107C8000BAF10001AAF1010ADDDC05E017F8010BE9
:107C90005A46179990476D1CB8F10001A8F10108E8
:107CA000F4DC5B462146179A0598ABE62D000000F0
:107CB0002B000000200000002DE9F04104460025C3
:107CC0001E461746880404D405E039462020B047F4
:107CD0006D1C641EF9D52846BDE8F0812DE9F04100
:107CE000044600251E469046C80301D5302700E013
:107CF0002027880404D505E041463846B0476D1C6E
:107D0000641EF9D52846BDE8F0810A68531C0B6053
:107D10001070704708B50021009118B16A4602A1A1
:107D2000F8F746FA009808BD25780000014600687B
:107D3000C97800BA20F0FF000843704701460020D0
:107D40000A5C002A01D0401CFAE770472DE9F04791
:107D50002E4C01252E4EE06DDFF8B8904FF4807860
:107D600001284AD000F0FAFDD4E91C010022334674
:107D7000F8F722FD02D2606D012815D0E06C0028D2
:107D800009DDD4E91C0100223346F8F7FDFC02D8D6
:107D9000E06C401EE064E06C1F4E204F32280DDD89
:107DA000606D012803D009E0E06C401CF2E701227D
:107DB00041464846FBF769FA00206065D4E91C019A
:107DC00032463B46F8F7E0FC01D2606D60B1206DB1
:107DD00000280FDDD4E91C0132463B46F8F7ECFCE5
:107DE00008D2606D18B105E0206D401C01E0206DE7
:107DF000401E2065206D322805DD002241464846A0
:107E0000FBF743FA6565BDE8F0870000100000202D
:107E100000001040000801409A99999999990F40E3
:107E20001048114A416B914219DA104A914216D218
:107E3000816B4FF40002914211DB0D4B99420EDA37
:107E40000C4BC16B99420ADD0B4B994207DA406C2F
:107E5000904204DB0949884201DA00207047012082
:107E6000704700001000002000007042000048C26F
:107E70000000C8420050434700D8D64700002041C8
:107E800004490A685206FCD5024AC1B2121D1160AB
:107E900070470000003801400278074902F5FA6295
:107EA0008A614278CA6182780A62C2784A6202793B
:107EB0008A624079C86270471000002070B5C0B077
:107EC000FF2200216846F9F729FA9DF800003B4E91
:107ED000AF2832D00020F9F78BF906F1B80115224E
:107EE00001F13200F8F72EF906F1E1050024A5F1C1
:107EF00014016C77142201F13300F8F723F9A5F18E
:107F0000690185F83240182201F19E00F8F71AF94C
:107F1000A5F1510185F84C40282201F19500F8F7B0
:107F200011F985F86B404FF48030706672220021A1
:107F30002846F9F729FA40B070BD20481521B8301D
:107F4000F8F719F91D481522B8300DF10901F8F7B5
:107F5000F9F81A481421CD30F8F70DF91748142212
:107F6000CD300DF11F01F8F7EDF8144818217830E5
:107F7000F8F701F91148182278300DF13501F8F7BA
:107F8000E1F80E4828219030F8F7F5F80B48282240
:107F9000903011A9F8F7D6F89DF806009DF8071063
:107FA000000440EA01209DF8081072220843706620
:107FB00002486946E130F8F7C5F8BCE71000002038
:107FC0008CB0FBF7A5F9FEF7BCFEFCF7C1FEFCF791
:107FD000CFFFFCF7E9FFFCF773FFFCF7A7FFFCF707
:107FE00091FEFCF757FF0122AD49AE48FCF796FB26
:107FF0000122AD49AD48FCF791FBFDF733F9AC4CDC
:10800000012204212046FBF740F9012211022046FB
:10801000FBF73BF9A74D01206865F9F74DFAFDF72D
:10802000C9FC286100688047286980688047F9F7A3
:1080300053F9FFF743FF0220002300901A46194628
:108040005A20FEF765FE9CA200218420F9F794F8DF
:108050000E210D20CDE90001FF2300220121AA20DD
:10806000FAF711FA272196A000F03CFA9EA23421DB
:108070002620F9F781F8A2A214210020F9F742F88E
:108080001521A4A000F02EFA05F1B802A7A102A8BC
:10809000FFF7AAF91D2102A800F024FA02AA1D2167
:1080A0000020F9F72FF8A348FBF723F9FAF7E4FAD1
:1080B00038B1A1A227210020F9F724F82821A7A090
:1080C00006E0B0A227210020F9F71CF81321B1A087
:1080D00000F008FAB4A10022D1E90001CDE90A01BB
:1080E00006200346009014219620FEF711FE08207A
:1080F0000346009000221421A620FEF709FE6869BD
:1081000013E000BF00F02AFCD5E91C23A8A10AA8AF
:10811000FFF76AF90AAA1421BC20F9F72DF86420A8
:10812000FAF79EFF6869401C68611E28EADB00269A
:1081300030466E61FAF7DDFC0021AF20FDF790F9C3
:108140005C4900220A319C48FBF7F5FC59490022A2
:1081500068319948FBF7C8FC56486830C078002859
:1081600025D17448FBF7C5F8002194A20846F8F71A
:10817000C9FF152196A000F0B5F99B48FCF77EFCDD
:108180004FF47A74002823D098A208210020F8F731
:10819000B9FF16219AA000F0A5F92046FAF760FF72
:1081A0000020FAF7A6FC0021AF20FDF759F9FDF7F2
:1081B0003BFCFDF71BFCFDF78BF9FCF711FF1721CA
:1081C00095A000F08FF92B2199A000F08BF93DE0EC
:1081D000A2A208210020F8F795FF0F21A3A000F02C
:1081E00081F91F21804800F07DF902213DA000F0B7
:1081F00079F97D48FCF764FBCFE7A0483446AE65CB
:108200000655641C202CFBDBAC6528692949C26833
:10821000891C9A489047FEF7FBF9F8F76AFA286339
:10822000286980688047FDF753F9FFF7F9FDD8B159
:108230000F2193A000F056F9FDF7D8FBFDF748F9A0
:10824000FCF7CEFE20218D48F7F795FF286940699D
:1082500080470228D1D0FFF779FDF9F74BF9FAF7FB
:10826000C9FA012815D016E00020FAF742FC0021D7
:10827000AF20FDF7F5F8002185A20846F8F742FF88
:1082800013218BA000F02EF900F0B2F9FEF7D2FC1A
:10829000D6E7FAF7CBFA2748FBF72BF8D6E700002A
:1082A000780100208406002079010020C406002007
:1082B000000801401000002056332E30000000005E
:1082C000474945205765617468657220537461742D
:1082D000696F6E2045646765204461746120536551
:1082E000727665720D0A0000474945205374756423
:1082F000696F20323032302D31322D31350000009F
:108300005769466920436F6E6E656374696E672EA8
:108310002E2E00005769466920436F6E6E656374A8
:10832000696E672E2E2E0D0A00000000535349443B
:108330003A2573000C0600205769466920436F6E8A
:108340006E656374206572726F722C20736176653E
:108350002064617461206C6F63616C000D0A576961
:10836000466920436F6E6E656374206572726F722A
:108370002C20736176652064617461206C6F636189
:108380006C0D0A005769466920436F6E6E65637411
:10839000656400000D0A5769466920436F6E6E657B
:1083A000637465640D0A0000302E30305600000002
:1083B000252E326C66560000180600204C6F636153
:1083C0006C2054696D65206E6F74207365740000B5
:1083D0004C6F63616C2054696D65206E6F742073FF
:1083E00065740D0A00000000B40500204E6574207D
:1083F00054696D6520476574204661696C65640049
:108400004E65742054696D65204765742046616926
:108410006C65640D0A00000053797374656D204229
:108420006F6F7420436F6D706C6574650D0A00008A
:108430004C697374656E696E6720617420343337DC
:108440004D487A20666F72205765617468657220A6
:108450005061636B616765730D0A00004E6574209F
:1084600054696D6520476574000000004E657420F6
:1084700054696D65204765740D0A0000B40400203E
:108480004461746120496E76616C69640D0A000074
:10849000496E636F6D696E67205061636B616765DC
:1084A0002E2E2E416E616C797A696E672E2E2E000B
:1084B0005061636B616765205265636569766564C9
:1084C0000D0A000002780B789A4209D142784B7865
:1084D0009A4205D180788978884201D1002070477E
:1084E00001207047002202E0835C13B1521C8A42D3
:1084F000FADB014692B264230148FCF787B9000019
:10850000C40600202DE9F04D07460E46F8F7E2FAC2
:1085100004460D463A463346F7F7C9FFDFF86CA02C
:10852000DFF86CB01B4B0746884616F0004F4FF043
:1085300000020AD0F8F728F90AD900225B4638462B
:108540004146F8F739F91BD212E0F8F71DF908D2C5
:108550000022534620462946F7F7A6FF04460D465B
:108560000EE000225B4638464146F8F725F907D869
:108570000022534620462946F7F7F5FE04460D46ED
:108580003146204665F31E01BDE8F08D0000F03F46
:108590000000E03F0000E0BF10B504460022124991
:1085A0001248FBF7C8FA104900225E310F48FBF76A
:1085B0009BFA0D495E31A1F16800CA78227002F57C
:1085C000FA6282614A786270C2618978A170016240
:1085D00005490A78E27042624A782271826289789B
:1085E0006171C16210BD00001A0000201806002051
:1085F00070B56FA208210020F8F784FD1C2173A03C
:10860000FFF770FF7848F9F7A1FA04464FF47A753E
:1086100001283AD11E2175A0FFF764FF7BA210212B
:108620000020F8F76FFD7048F9F790FA044601282A
:108630002BD116217CA0FFF755FF81A21821002025
:10864000F8F760FD83A0FEF7BFFEFAF715F860B1FA
:108650001E2181A0FFF746FF87A220210020F8F706
:1086600051FD2846FAF7FCFC99E05F48F9F76EFAED
:108670000446222185A0FFF735FF8DA2202100208E
:10868000F8F740FD2846FAF7EBFC032C34D11F2104
:108690008FA0FFF727FF96A210210020F8F732FDE8
:1086A0005148F9F753FA040056D016215EA0FFF79F
:1086B00019FF63A218210020F8F724FD65A0FEF73A
:1086C00083FEF9F7D9FF30B11E2163A0FFF70AFF3F
:1086D00069A220210AE04448F9F738FA04000ED0D4
:1086E00022216AA0FFF7FEFE71A218210020F8F7F0
:1086F00009FD2846FAF7B4FC022C04D02BE02846EA
:10870000FAF7AEFC28E01A2181A0FFF7EBFE87A262
:1087100010210020F8F7F6FC3348F9F717FA0400A7
:108720001AD0162140A0FFF7DDFE45A21821002037
:10873000F8F7E8FCF9F7A0FF48B11E2146A0FFF7C3
:10874000D1FE4DA220210020F8F7DCFC27E02648CE
:10875000F9F7FCF9044614BB11217BA0FFF7C2FE18
:1087600079A218210020F8F7CDFC1F4A2021002013
:10877000F8F7C8FC28211C48FFF7B4FE02215BA0D3
:10878000FFF7B0FE1848FCF79BF82846FAF768FC9C
:108790000020FAF7AEF90021AF20FCF761FE0020BF
:1087A000FAF7A7F90021AF20FCF75AFE204670BD6A
:1087B0004461746120436F72726563742C55706CF0
:1087C0006F6164696E672E2E2E0000004461746133
:1087D00020436F72726563742C55706C6F616469AD
:1087E0006E672E2E2E0D0A00B40500205443502033
:1087F000436F6E6E204661696C65642052657472C9
:1088000079696E672E2E2E0D0A0000005443502009
:10881000436F6E6E204661696C65642052657472A8
:1088200079696E672E2E2E005265436F6E6E6563FA
:108830007420746F20526F757465720D0A00000009
:108840005265436F6E6E65637420746F20526F754E
:10885000746572002B2B2B005265436F6E6E65633F
:1088600074204661696C65642C636865636B20776E
:108870006966690D0A0000005265436F6E6E65639C
:1088800074206661696C6564000000005265747252
:1088900079204661696C65642C536176652064615A
:1088A0007461206C6F63616C6C792E0D0A0000009E
:1088B0005265747279204661696C65642C536176E7
:1088C000652064617461206C6F63616C6C792E004B
:1088D000506F7274204F70656E204661696C6564DC
:1088E000205265747279696E672E2E2E0D0A000073
:1088F000506F7274204F70656E204661696C6564BC
:10890000205265747279696E672E2E2E0000000069
:10891000456D707479205265706C792066726F6D48
:10892000207365727665720D0A000000456D7074E3
:1089300079205265706C792066726F6D2073657254
:108940007665722E2E2E000055706C6F6164205378
:108950007563636573730D0A0000000070B5002431
:108960001648FAF7D1FA1548FAF778F942F2107575
:1089700002E0641CAC4220DCFF211048FAF72CFA1C
:108980000028F6D10D48FAF769F9F7F78BFEF7F7EB
:10899000E8FE00220A4BF7F7FFFD4FF06632094B65
:1089A000F7F788FD0022084BF7F784FD0022074BFC
:1089B000F7F77AFD064AC2E91C0170BDDC0500200C
:1089C000E0FFEF4066660A4000805140000006402C
:1089D00010000020000000000000000020202020E7
:1089E0002000200050505000000000005050F8506F
:1089F000F85050002078C07028F02000C0C8102027
:108A00004098180040A0A040A89068003020400086
:108A100000000000102040404020100040201010B6
:108A20001020400020A8702070A82000202020F8EE
:108A3000202020000000000060408000000000F8BE
:108A4000000000000000000000606000000810202E
:108A500040800000708898A8C8887000206020209E
:108A600020207000708808304080F800F80810302E
:108A70000888700010305090F8101000F880F0084E
:108A800008887000384080F088887000F80810204E
:108A900040404000708888708888700070888878AE
:108AA0000810E0000060600060600000006060008E
:108AB0006060800010204080402010000000F8001E
:108AC000F80000004020100810204000708810209E
:108AD000200020007088B8A8B880780020508888CE
:108AE000F8888800F08888F08888F0007088808096
:108AF00080887000F08888888888F000F88080F08E
:108B00008080F800F88080F080808000708880800D
:108B1000B8887800888888F88888880070202020A5
:108B20002020700038101010109060008890A0C0B5
:108B3000A0908800808080808080F80088D8A8A8D5
:108B4000888888008888C8A898888800708888885D
:108B500088887000F08888F080808000708888881D
:108B6000A8906800F08888F0A090880070888070D5
:108B700008887000F820202020202000888888881D
:108B8000888870008888888888502000888888A80D
:108B9000A8D888008888502050888800888850206D
:108BA00020202000F80810204080F800F0C0C0C04D
:108BB000C0C0F0000080402010080000781818188D
:108BC000181878002070A82020202000002040F8ED
:108BD0004020000020100800000000000000E0100D
:108BE000709068008080B0C888C8B00000007088AD
:108BF0008080700008086898889868000000708875
:108C0000F0807000304840F0404040000000708824
:108C1000887808F08080B0C888888800200000200C
:108C2000202020001000003010101060808090A0E4
:108C3000C0A098006020202020207000000050A8D4
:108C4000A8A8A8000000B048484848000000708864
:108C5000888870000000F08888F0808000007888A4
:108C6000887808080000B048404040000000788044
:108C70007008F0004040F8404048300000009090FC
:108C80009090680000008888885020000000A8A804
:108C9000A8A8500000008850205088000000888854
:108CA000986808F00000F8102040F800204040804C
:108CB000404020002020200020202000201010080C
:108CC00010102000000040A810000000A850A8507C
:108CD000A850A8008000784040404078E0A0E00024
:108CE0000000000000000000000000000000000084
:108CF000001010101010000010000000006C484818
:108D00000000000000000000001414287C287C28CB
:108D100050500000001038404038487010100000DB
:108D2000002050200C7008140800000000000018FB
:108D300020205448340000000010101010000000E3
:108D400000000000000808101010101010080800A3
:108D500000202010101010101020200000107C1097
:108D600028280000000000000000101010FC101067
:108D7000100000000000000000000018103020006B
:108D800000000000007C0000000000000000000067
:108D9000000000303000000000040408081010201B
:108DA000204000000038444444444444380000005B
:108DB00000301010101010107C0000000038440427
:108DC000081020447C0000000038440418040444C7
:108DD00038000000000C141424447C040C00000033
:108DE000003C20203804044438000000001C2040CF
:108DF0007844444438000000007C4404080808100B
:108E00001000000000384444384444443800000056
:108E100000384444443C0408700000000000003066
:108E2000300000303000000000000018180000186A
:108E30003020000000000C10608060100C0000006A
:108E4000000000007C007C00000000000000C0204A
:108E500018041820C00000000000182404081000A6
:108E6000300000003844444C54544C404438000016
:108E70000030102828287C44EC00000000F844440E
:108E800078444444F8000000003C444040404044E2
:108E90003800000000F0484444444448F00000001A
:108EA00000FC445070504044FC000000007C20282E
:108EB0003828202070000000003C4440404C4444CE
:108EC0003800000000EC44447C444444EC000000C2
:108ED000007C1010101010107C000000003C0808EE
:108EE000084848483000000000EC444850704844AE
:108EF000E400000000702020202024247C000000DA
:108F000000EC6C6C54544444EC00000000EC6464CD
:108F10005454544CEC00000000384444444444444D
:108F2000380000000078242424382020700000003D
:108F30000038444444444444381C000000F844448D
:108F400044784844E000000000344C403804046495
:108F50005800000000FC90101010101038000000A5
:108F600000EC4444444444443800000000EC4444D1
:108F7000282828101000000000EC44445454545495
:108F80002800000000C4442810102844C400000039
:108F900000EC44282810101038000000007C440821
:108FA000101020447C0000000038202020202020C9
:108FB0002020380000402020201010080808000061
:108FC00000380808080808080808380000101028A9
:108FD000440000000000000000000000000000004D
:108FE000000000FC0010080000000000000000006D
:108FF00000000038443C44443C00000000C040589D
:1090000064444444F80000000000003C44404044F4
:1090100038000000000C04344C4444443C00000080
:1090200000000038447C40403C000000001C207CD4
:10903000202020207C000000000000344C444444E8
:109040003C04380000C0405864444444EC00000034
:1090500000100070101010107C000000001000784C
:10906000080808080808700000C0405C48705048B4
:10907000DC00000000301010101010107C00000008
:10908000000000E854545454FC000000000000D8D4
:1090900064444444EC00000000000038444444446C
:1090A00038000000000000D8644444447840E000E8
:1090B000000000344C4444443C040C000000006CAC
:1090C000302020207C0000000000003C4438044494
:1090D000780000000000207C202020201C000000E0
:1090E000000000CC4444444C34000000000000EC7C
:1090F0004444282810000000000000EC445454545C
:1091000028000000000000CC48303048CC000000AF
:10911000000000EC44242818101078000000007CA7
:10912000481020447C00000000081010101020108F
:109130001010080000101010101010101010000077
:109140000020101010100810101020000000000067
:109150000024580000000000000000000024580017
:1091600000000000000000000000000000000000FF
:1091700000000000000000000000000000000000EF
:1091800000000000000000000000000000000000DF
:1091900000000000000002000700070007000700B1
:1091A000070007000700070002000200020002009B
:1091B0000200020002000000000002000700070099
:1091C000020000000000000039C039C039C0108022
:1091D000108010800000000000000000000000006F
:1091E000000000000000000000000000000000007F
:1091F000000000000000000000000000018031803D
:10920000318031E03F80F18031803180318031E048
:109210003F80F1803180318031803180300000002A
:109220000000000000000000060006003FC066606D
:10923000C630C630C600C60066003E000F8007C0BC
:1092400006600630C630C630C63066603FC00600D5
:10925000060000000000000030004820CC60CC4038
:10926000CCC0CC80CD804B003200060004000C0046
:1092700009801A403660266066604660C66082409B
:1092800001800000000000001C002200420042009B
:109290004200640028003000380048004C00C40040
:1092A000C670C320C320C1C0C0C0C1C067603C300D
:1092B0000000000000000000070007000700070092
:1092C0000200020002000000000000000000000098
:1092D000000000000000000000000000000000008E
:1092E0000000000000200040008001800100030019
:1092F0000300060006000600060006000600060041
:109300000600060006000300030001000180008043
:1093100000400020400020001000180008000C0051
:109320000C00060006000600060006000600060007
:109330000600060006000C000C00080018001000D3
:1093400020004000000000000000000004000E00AB
:109350000E00C460E4E064C01100000000001100D1
:1093600064C0E4E0C4600E000E00040000000000D1
:1093700000000000000000000000000000000000ED
:10938000000006000600060006007FE07FE0060001
:1093900006000600060000000000000000000000BB
:1093A00000000000000000000000000000000000BD
:1093B00000000000000000000000000000000000AD
:1093C0000000000000000C001E001E000E00060041
:1093D0000C00180000000000000000000000000069
:1093E000000000000000000000007FE07FE00000BF
:1093F000000000000000000000000000000000006D
:10940000000000000000000000000000000000005C
:10941000000000000000000000000000000000004C
:1094200000000000000000000C001E001E000C00E8
:1094300000000000000000200060004000C000802C
:109440000180010003000200060004000C00080077
:10945000180010003000200060004000C0008000B4
:1094600000000000000000000E001B003180318071
:1094700060C060C0C060C060C060C060C060C060EC
:10948000C060C06060C060C0318031801B000E00D1
:10949000000000000000000006001E007E00060024
:1094A000060006000600060006000600060006008C
:1094B00006000600060006000600060006003FC083
:1094C00000000000000000001F00318060C0E0606C
:1094D000E0606060006000C000C001800300060022
:1094E0000C001800300070006020E020FFE0FFE07A
:1094F00000000000000000000F0039C070E0706044
:109500003060006000C0018003000E00038000C0D6
:109510000060006000606060E060E0E071C03F00FB
:10952000000000000000000001800380038007802D
:1095300005800D8009801980118031802180618033
:109540004180C180FFF0018001800180018007E03F
:1095500000000000000000007FC07FC060006000CD
:109560006000600060006700698070C040C00060FB
:109570000060006000606060E0C0E0C071803F009B
:1095800000000000000000001F00338061C061C0C7
:10959000C180C000C000CF00D180E0C0C0C0C060AA
:1095A000C060C060C060C06060C060C031801F002B
:1095B00000000000000000007FE0FFE0C06080408D
:1095C00080C0008001800100030003000600060047
:1095D00006000C000C000C000C000C000C000C0031
:1095E00000000000000000001F00318060C060C06B
:1095F00060C060C031801B000E001F00318060C061
:10960000C060C060C060C060C06060C031801F00CA
:1096100000000000000000001F00318060C060C03A
:10962000C060C060C060C060C060606060E0316009
:109630001E6000600060306070C070C039801F0024
:10964000000000000000000000000000000000001A
:1096500006000F000F0006000000000000000000E0
:1096600006000F000F0006000000000000000000D0
:1096700000000000000000000000000000000000EA
:1096800006000F000F0006000000000000000000B0
:1096900006000F000F000700030006000C0000008A
:1096A00000000000000000000000006000C0018019
:1096B000030006000C00180030006000C0006000CD
:1096C000300018000C0006000300018000C000609C
:1096D000000000000000000000000000000000008A
:1096E000000000007FE07FE00000000000000000BC
:1096F0007FE07FE0000000000000000000000000AC
:1097000000000000000000000000C0006000300009
:1097100018000C0006000300018000C0006000C0BB
:109720000180030006000C00180030006000C0003B
:1097300000000000000000000F8018C03060706062
:109740007060206000C000C00180010003000200C2
:1097500002000200020000000000020007000700F3
:1097600002000000000000001F0020804040802018
:109770008F2099A0B1A0B1A0B1A0B1A0B1A0B1A01B
:10978000B1A0BFA09CC080008000402020401F806E
:109790000000000000000000060006000B000B00A7
:1097A00009000900198019801080108030C030C075
:1097B0003FC030C020406060606060606060F0F07A
:1097C0000000000000000000FE006300618060C037
:1097D00060C060C060C0618063007E00638060C064
:1097E00060C060606060606060C060C06180FF00F9
:1097F00000000000000000001F2031E060E0606019
:10980000C020C000C000C000C000C000C000C00038
:10981000C000C000C000C060606060C031801F0038
:109820000000000000000000FE006300618060C0D6
:1098300060C06060606060606060606060606060C8
:1098400060606060606060C060C061806300FE0056
:109850000000000000000000FFE060E060606020A9
:10986000602060006100610063007F0063006100B0
:1098700061006000600060206020606060E0FFE0E8
:109880000000000000000000FFE060E06060602079
:10989000602060006100610063007F006300610080
:1098A0006100600060006000600060006000F00027
:1098B00000000000000000001E4033C060C0604097
:1098C000C040C000C000C000C000C1E0C0C0C0C0F7
:1098D000C0C0C0C0C0C0C0C061C063C036C01CC072
:1098E0000000000000000000F1E060C060C060C047
:1098F00060C060C060C060C060C07FC060C060C049
:1099000060C060C060C060C060C060C060C0F1E0A6
:1099100000000000000000001FE00300030003003F
:10992000030003000300030003000300030003001F
:1099300003000300030003000300030003001FE013
:10994000000000000000000007E0018001800180AD
:1099500001800180018001800180018001800180FF
:10996000018001806180F180E180C18067003E005C
:109970000000000000000000F3E0618061806300EF
:109980006300660066006C006C007C007C00760062
:109990007600630063006180618060C060C0F1F0A8
:1099A0000000000000000000F000600060006000A7
:1099B00060006000600060006000600060006000A7
:1099C00060006000600060206020606060E0FFE098
:1099D0000000000000000000E070606060606060F7
:1099E00070E070E070E070E079E0696069606F607D
:1099F0006660666066606060606060606060F0F035
:109A00000000000000000000E1E060C060C070C025
:109A100070C070C078C068C06CC064C066C062C0EE
:109A200063C061C061C061C060C060C06040F040A0
:109A300000000000000000001F00318060C0C06016
:109A4000C060C060C060C060C060C060C060C06016
:109A5000C060C060C060C060C06060C031801F0076
:109A60000000000000000000FE00638060C060C0D5
:109A700060606060606060C060C063807E006000A5
:109A80006000600060006000600060006000F00046
:109A900000000000000000001F00318060C0C060B6
:109AA000C060C060C060C060C060C060C060C060B6
:109AB000C060C060C060CC60C660636031C01EC062
:109AC0000070000000000000FE006380618060C044
:109AD00060C060C060C0618063807E006C006C000C
:109AE00066006600630063006180618060C0F1E031
:109AF00000000000000000001E4073C0C1C0C0C0D4
:109B0000C040E000700038001C000E000700038019
:109B100001C000E08060C060E060F0C0D9808F00CC
:109B20000000000000000000FFF0E670C630861064
:109B30008610060006000600060006000600060065
:109B400006000600060006000600060006001F804C
:109B50000000000000000000F1E060C060C060C0D4
:109B600060C060C060C060C060C060C060C060C0F5
:109B700060C060C060C060C060C060C031801F0055
:109B80000000000000000000F1E060C060C060C0A4
:109B900060C060C03180318031803180318031805F
:109BA0001B001B001B001B000E000E000E0004001B
:109BB0000000000000000000F0F060606060606085
:109BC00060606060606060602640264026402640FD
:109BD000264036C036C036C01980198019801980D9
:109BE0000000000000000000F0F06060606030C025
:109BF00030C0198019800F000F00060006000F000A
:109C00000F001980198030C030C060606060F0F0D3
:109C10000000000000000000F0F06060606030C0F4
:109C200030C030C01980198019800F000F00060065
:109C300006000600060006000600060006001F805B
:109C40000000000000000000FFC0E0C0C1C0818033
:109C500083000300060006000C000C00180018002A
:109C60003000300060006020C020C060C0E0FFE035
:109C70000000000007E004000400040004000400E9
:109C800004000400040004000400040004000400B4
:109C900004000400040004000400040004000400A4
:109CA000040007E000008000C000400060002000C9
:109CB00030001000180008000C000400060002002C
:109CC000030001000180008000C00040006000200F
:109CD000000000007E0002000200020002000200FC
:109CE0000200020002000200020002000200020064
:109CF0000200020002000200020002000200020054
:109D000002007E00000006000F00198030C0606075
:109D100040200000000000000000000000000000E3
:109D20000000000000000000000000000000000033
:109D30000000000000000000000000000000000023
:109D40000000000000000000000000000000000013
:109D50000000000000000000000000000000000003
:109D60000000FFF018003C000F0001C000000000E0
:109D700000000000000000000000000000000000E3
:109D800000000000000000000000000000000000D3
:109D900000000000000000000000000000000000C3
:109DA0000000000000003F006180F0C060C000C003
:109DB0000FC038C060C0C0C0C0C0C0C0E3C03E60FB
:109DC0000000000000000000E00060006000600093
:109DD0006000600060006F00798070C060C06060EB
:109DE000606060606060606060C070C07980CF005B
:109DF0000000000000000000000000000000000063
:109E00000000000000001F0031C060E061E0C0C041
:109E1000C000C000C000C0006000606030C01F8093
:109E2000000000000000000000E000600060006032
:109E30000060006000601F6031E060E06060C06052
:109E4000C060C060C060C060606060E031E01F2042
:109E50000000000000000000000000000000000002
:109E60000000000000001F00318060C060C0C060C2
:109E7000C060FFE0C000C0006000606030C01F80B4
:109E8000000000000000000007C00CE018E01840CF
:109E9000180018001800FF0018001800180018001B
:109EA00018001800180018001800180018007E008C
:109EB00000000000000000000000000000000000A2
:109EC0000000000000003E6063E0C180C180C180EE
:109ED00063003E0060007800CF80C1C0C060C060F9
:109EE00060C03F8000000000E00060006000600093
:109EF00060006000600067006D8078C070C060C066
:109F000060C060C060C060C060C060C060C0F1E0A0
:109F1000000000000000000006000F000F00060017
:109F20000000000000001E000600060006000600FB
:109F300006000600060006000600060006001F8058
:109F400000000000000000000300078007800300FD
:109F50000000000000000780018001800180018076
:109F6000018001800180018001806180F180E180B9
:109F700063003E0000000000E00060006000600040
:109F800060006000600063E06180630066006C0058
:109F90007E007600630063006180618060C0F1E054
:109FA00000000000000000001E0006000600060081
:109FB0000600060006000600060006000600060071
:109FC00006000600060006000600060006001F80C8
:109FD0000000000000000000000000000000000081
:109FE000000000000000EDC07FE066606660666013
:109FF0006660666066606660666066606660F77090
:10A000000000000000000000000000000000000050
:10A01000000000000000E7006D8078C070C060C0E4
:10A0200060C060C060C060C060C060C060C0F1E07F
:10A030000000000000000000000000000000000020
:10A040000000000000001F00318060C060C0C060E0
:10A05000C060C060C060C06060C060C031801F0070
:10A0600000000000000000000000000000000000F0
:10A07000000000000000EF00798070C060C06060E8
:10A080006060606060C070C079806F0060006000D8
:10A090006000F00000000000000000000000000070
:10A0A0000000000000001E4033C061C060C0C0C09E
:10A0B000C0C0C0C060C061C033C01EC000C000C00E
:10A0C00000C001E0000000000000000000000000EF
:10A0D000000000000000E7806CC078E070C0600005
:10A0E0006000600060006000600060006000F000E0
:10A0F0000000000000000000000000000000000060
:10A100000000000000003F0061C0C0C0C040E0008F
:10A1100078001F0003C000E08060C060E0C03F80A6
:10A12000000000000000000000000000080018000F
:10A13000180018001800FFC01800180018001800B8
:10A140001800180018001800186018600CC007806C
:10A1500000000000000000000000000000000000FF
:10A16000000000000000E1C060C060C060C060C0CE
:10A1700060C060C060C060C061C063C036C01CE029
:10A1800000000000000000000000000000000000CF
:10A19000000000000000F1E060C060C0318031804C
:10A1A00031801B001B001B000E000E000E0004007F
:10A1B000000000000000000000000000000000009F
:10A1C000000000000000F0F06060606066606660A3
:10A1D00036C036C036C03FC019801980198019803A
:10A1E000000000000000000000000000000000006F
:10A1F000000000000000F1E060C060C031801B0082
:10A200000E000E000E001B00318060C060C0F1E047
:10A21000000000000000000000000000000000003E
:10A22000000000000000F1E060C030C03180198003
:10A2300019800F000F000700060006000600CC0082
:10A24000CC007800000000000000000000000000CA
:10A250000000000000007FE0406040C0018003007B
:10A2600006000C00180030006020C020C060FFE035
:10A270000000000001E003000600060006000600E2
:10A2800006000600060006000C00180018000C006E
:10A29000060006000600060006000600060006008E
:10A2A000030001E0060006000600060006000600A6
:10A2B000060006000600060006000600060006006E
:10A2C000060006000600060006000600060006005E
:10A2D0000600060078000C000600060006000600D6
:10A2E000060006000600060003000180018003004E
:10A2F000060006000600060006000600060006002E
:10A300000C007800000000000000000000000000C9
:10A31000000000000000000038006C30C36001C085
:10A32000000000000000000000000000000000002D
:10A330000000000000000000000000000400040015
:10A340000E000A001B0011003180208060C04040D8
:10A35000C060FFE0000000000000000000000000FE
:10A360000000000020003FE04000BFC000007F80F0
:10A3700000800080008000A00060002010003F00EE
:10A380004100FFC044407FC0184064801B006680CD
:10A390001A60E600410021000100F9E0010091008F
:10A3A00057E0542024203420C7E0042000007FC060
:10A3B00000000000000000003F80000000000000DE
:10A3C0000000FFE0480049E0FD20492079E04920F5
:10A3D000792049E0FD200120492086600800040022
:10A3E000FFE00800110020807FC011401100112003
:10A3F0002120C0E008000800FF8088808880FF805E
:10A4000088808880FF808820082007E004000400FE
:10A4100004007FC04440444044407FC044400400A6
:10A420000400040000007FE04000420042004200BF
:10A430005FC04200428042404200BFE001C03E0097
:10A44000200020003FE0200020002FE028204820AE
:10A450004FE0882010003F8051000E003180C06026
:10A460003F8024803F8024803F8020800200820043
:10A4700052C0134016409A407240124012C052001F
:10A4800090200FE0000000001E80398063E04360F0
:10A49000C720C620C62000000000000040E02F00BA
:10A4A00008000FE0E8202A20294028802940322097
:10A4B00050008FE000007FE0402040204F204920E6
:10A4C00049204F20402040207FE04020040004002D
:10A4D000FFE004000E001500150024804440BFA0DA
:10A4E0000400040021002100256025A0F7202D2074
:10A4F0002520256025003420C42003E00040F040E2
:10A50000904097E09040F040924091409140F04060
:10A51000904001C04FE0202000205FA050A050A03C
:10A520005FA050A050A05FA0402040E01100550067
:10A530001100FDE03240594095402140F9404880EB
:10A540003140CA20200027E02420F7E0248027E0C3
:10A550003480E7E026202A202BE072200400FFE070
:10A5600015002480C4603F8020803F8020803F8091
:10A570000000FFE088004FE010202FA0C8A048A0F6
:10A580004FA048A048A06FA0482000C00020EE20A7
:10A59000AAA0AAA0AAA0FFA0AAA0AAA0AAA0AA2096
:10A5A000AA2066600100E280A440A820C7C0C100C4
:10A5B000AFE0A100A540C920912083003F8020800A
:10A5C0003F802080FFE048007BC0494079404C80BC
:10A5D000F9400A2010207DC00100450029E0FD401F
:10A5E00011407D4011405540924034400000FFE052
:10A5F0000800110020807FC0044004007FC00400D8
:10A600000400FFE021002100256025A0F7202D2077
:10A610002520256025003420C42003E020802080F0
:10A6200020802480F4E024802480248024803480CE
:10A63000C4800FE00C20702010A0FEA054A0D6A073
:10A6400054A0D6A038A054209220106004000A0024
:10A6500011002080DF60040004007FC0040024801B
:10A6600044408C2008000400FFE0912020804040FE
:10A6700000007FC0040004000400FFE04FE0202041
:10A6800000205FA050A050A05FA050A050A05FA0ED
:10A69000402040E0200027802480F48024807480C3
:10A6A0006C80A480248024A028A0306008000800CA
:10A6B000080008000FC00800080008000800080093
:10A6C0000800FFE0000000000000000000000000A3
:10A6D000FFE000000000000000000000FFE00400B8
:10A6E00008007FC0404040404440444044400B008C
:10A6F00030C0C0200000FFE0080008000A00090088
:10A700000880084008400800080008004200420095
:10A710004FC0E240424042405FE042006500C50059
:10A720000880106004000A0011002080C0603F8093
:10A73000040004007FC004000400FFE010007DE07E
:10A74000012045202940FF4001207D20452045C0B3
:10A750007D0045000200F3C02440208047E07520C2
:10A76000D7E0552057E07520552008600800040008
:10A77000FFE080200000FFE00400240027C0240048
:10A7800054008FE00FC0E040A440A440A440A7E0E4
:10A79000A020A020EFA0A020002000C0000000000A
:10A7A00000000000000000000000000000000000A9
:10A7B0000000000000000000000003FFC003FFC015
:10A7C000F300C0F300C00300C00300C0F33CC0F3BB
:10A7D0003CC00330C00330C0F330C0F330C0033C92
:10A7E000C0033CC0F300C0F300C0033CC0033CC046
:10A7F00003FFC003FFC000000000000000000000D5
:10A8000000000000000C0000121F8012306812606F
:10A81000180CC01800800801800801800001800029
:10A8200001800001800001800000800000C0000065
:10A83000C0100060200038C0000F000000000000C1
:10A840000000000000000000000003FFC003FFC084
:10A85000F300C0F302C00366C003ECC0F3ECC0F326
:10A8600008C00308C00318C0F310C0F330C0033E93
:10A87000C0036EC0F34EC0F300C0033CC0033CC035
:10A8800003FFC003FFC00000000000000000000044
:10A89000000000000000000000100001FC400780E4
:10A8A000C00E01801C0390180718300718300E1CCA
:10A8B000601E0C603E0C603C0C603C0C60380C6010
:10A8C0001004000000000000000000000000000074
:10A8D000000000000D0A0D0A2C3B00504F5354207D
:10A8E0002F646576696365732F002F6461746170EE
:10A8F0006F696E74733F747970653D3520485454A8
:10A90000502F312E310D0A006170692D6B65793A37
:10A9100000486F73743A6170692E6865636C6F7577
:10A9200064732E636F6D0D0A00436F6E74656E74F1
:10A930002D4C656E6774683A000000007CAC00081E
:10A940006CAC000888AC00088CAC000898AC00081F
:10A9500080AC000878AC000874AC000884AC000837
:10A9600090AC000894AC000870AC00080000000037
:10A97000417574196F240F402EBAACDA27121040BB
:10A980004032C4C178C61040661330AC68461140EE
:10A99000E029CEF6B9FA11400101CEFEA97A1240A3
:10A9A0008021D82BFB2E13402019E2603C63144019
:10A9B000C010EC957D9715406008F6CABECB1640D6
:10A9C00000000000006063C000000000006063C081
:10A9D00000000000006063C000000000006063C071
:10A9E00000000000006063C000000000006063C061
:10A9F00000000000006063C000000000006063C051
:10AA000000000000006063C000000000006063C040
:10AA10000000000000C062C00000000000C062C072
:10AA20000000000000C062C00000000000C062C062
:10AA30000000000000C062C00000000000C062C052
:10AA40000000000000C062C00000000000C062C042
:10AA50000000000000C062C00000000000C062C032
:10AA600020AEA036E07D0B37A017083660F0AF3679
:10AA700060F0AF36403D2E36C0AFD235000D99366E
:10AA800020A5633680A331374061223760DE35363A
:10AA900040466B36A032BF36A032BF36A00ECB3553
:10AAA000E0625436A0443937A00ECB35809AF43694
:10AAB000001F1337E050DA3540466B36809AF43683
:10AAC00080A33137807F3D360016D636A03BFC365A
:10AAD000C0C14C36809AF43660DE353680A33137FB
:10AAE000809AF4368091B73660022A3700FB1E3612
:10AAF00060F0AF36A0443937209C2636000D9936D9
:10AB000060D5F835000D9936C0AFD2354034F135F7
:10AB1000C0CA893640466B36C0B80F36807F3D3696
:10AB2000A044393760022A37C0C14C36000000000B
:10AB300000000000010203040607080900000000ED
:10AB40000102030400404040404040404040414139
:10AB500041414140404040404040404040404040F2
:10AB6000404040404005020202020202020202028C
:10AB70000202020202202020202020202020200289
:10AB80000202020202029090909090901010101019
:10AB900010101010101010101010101010101010B5
:10ABA0000202020202028888888888880808080849
:10ABB0000808080808080808080808080808080815
:10ABC000020202024000000045AB000874656D708F
:10ABD0002C252E32663B68756D692C252E32663B1E
:10ABE00070726573732C252E30663B65434F322C93
:10ABF00025643B54564F432C25643B504D322E3533
:10AC00002C25643B55562C25643B47522C252E3071
:10AC1000663B6261742C252E32660000252E31665B
:10AC20004320252E3166252520252E3066506120B3
:10AC300025647567202564755720256470706D2024
:10AC40002564707062203230253032642D25303218
:10AC5000642D2530326420253032643A2530326448
:10AC60003A2530326420252E326656004665620051
:10AC700044656300417567004A756C004A616E0067
:10AC80004A756E00536570004D617200417072002C
:10AC90004F6374004E6F76004D617900BCAC0008C4
:10ACA0000000002034020000960F000898AD000854
:10ACB000340200205C0B00004874000851D3F401FA
:10ACC00009272000AE084D012B022D9CFFFFFF8FAE
:10ACD000C2B1418FC2B142BE50C34700E08A446650
:10ACE000661E4157040224010A10363537323833C4
:10ACF000363633D01D536B564C4674544D70454612
:10AD0000663D78473538316A776F77545A397130F4
:10AD10003D80234749455F53747564696F5F4E6595
:10AD20007443656E746572003731303430323137B8
:10AD300033303131340867AF0077EF4F53013501BD
:10AD4000B50001001210C0FC9B013138332E3233A4
:10AD5000302E34302E333333983A7220042F0101D1
:10AD600001378025DB3380253350C342147CA08615
:10AD70000100F04902000101FF041D0101014A80A8
:10AD80001A701814080702014204426442648220C7
:08AD90004201921054A24A0492
:04000005080000ED02
:00000001FF
